:20000000483F00204173000001CA011001CA011001CA011001CA011001CA011001CA01105D
:1C00200001CA011001CA011001CA011001CA011001CA011001CA01103FCA011082
:20003C001FB58DF80C002448016824480088E0B123480068014218D022480068014204D1FD
:20005C0021480068008801420FD0224840F23A53046800930CA201929DF80C001C4B029006
:20007C001A881A4B186804A3A047032003A9012207F09CF900901FBD70726F6A6563745F0F
:20009C007A65726F2E6300C02843422920474150205374617465206368616E67653A20253F
:2000BC00642C2053656E64696E67206D736720746F206170702E00C0E0AC000010AD0000AA
:2000DC00400500003C05000044050000FCAC000084050000F4AC0000014908607047C046F5
:0400FC008C2500202F
:200100003C000000000000000000000034010000000000000000000001000000000000006D
:1C01200000000000000000000000000001000000000000000800000000000000BA
:20013C00340000000000000000000000680100000000000000000000010000000000000005
:14015C00010000000000000000000000080000000000000086
:2001700030000000000000000000000098010000040000000000000001000000FFFFFFFFA5
:10019000FF00000001000000080000000000000057
:2001A0002C0000000000000000000000C4010000040000000000000001000000FFFFFFFF4D
:0C01C000FFFFFFFF08000000000000002F
:2001CC0034050000E401000099A1011095A70110A5C2011009B2011045B80110000000000B
:0801EC00000000002E000000DD
:2001F400280000000000000000000000140200000000000000000000FFFFFFFF00000000B1
:080214000800000000000000DA
:20021C00300500003002000069C201106DC101101FC2011095BA011000000000000000008E
:04023C002C00000092
:20024000300500005402000075C20110A9B601109DBF011049B601100000000000000000DE
:040260002D0000006D
:200264002400000000000000000000008002000000000000000000000000000008000000CC
:040284000000000076
:20028800240000000000000000000000A40200000000000000000000000000000800000084
:0402A8000000000052
:2002AC00240000000000000000000000C8020000000000000100000000000000080000003B
:0402CC00000000002E
:2002D0000000000064180020040000000000000000000000200000007001000030000000AD
:2002F0001C0200006C1800200400000000000000000000000C0000003004000018000000D0
:20031000400200007418002004000000000000000000000024000000480400001800000053
:20033000000000007C18002004000000000000000000000010000000A00100002C00000018
:20035000CC0100008418002004000000000000000000000020000000640200002400000056
:20037000FFFFFFFF8C180020040000000000000000000000280000008802000024000000D3
:20039000FFFFFFFF94180020040000000000000000000000580000003C01000034000000B8
:2003B000FFFFFFFF9C180020040000000000000000000000100000006004000018000000CD
:2003D000FFFFFFFFA41800200400000000000000000000001C000000AC0200002400000043
:2003F000FFFFFFFFAC18002004000000000000000000000038000000F401000028000000B4
:20041000FFFFFFFFB418002004000000000000000000000054000000000100003C0000004F
:1804300018000000000000000000000040040000080000000000000050
:1804480018000000000000000000000058040000080000000000000020
:18046000180000000000000000000000700400000800000000000000F0
:0804780002000000B4AC00001A
:0404800008F050BD73
:040484000100000073
:0404880000008C0FD5
:04048C000000BC0FA1
:040490003200000036
:040494000100000063
:04049800D817002051
:04049C00000200005A
:0404A0000000000058
:0404A40001CA011078
:0404A8000000000050
:0404AC00000000004C
:0404B0000800000040
:0404B40000007612BC
:0404B800C01600204A
:0404BC00010000003B
:0404C000F017002011
:0404C400080000002C
:0404C8000000000030
:0404CC00000000002C
:0404D0000000000028
:0404D4000000000024
:0404D8000000000020
:0404DC00010000001B
:0404E00028170020B9
:0404E400060000000E
:0404E800010000000F
:0404EC002C160020AA
:0404F0000000000008
:0404F4000000000004
:0404F80000020000FE
:0404FC0000000000FC
:02050000704742
:020502002800CF
:020504000100F4
:020506002400CF
:020508002C00C5
:02050A002D00C2
:02050C002E00BF
:02050E000100EA
:0105100001E9
:080514000300000080AC0000B0
:08051C000000000000000000D7
:040524000000930D33
:040528000000AD0D15
:04052C0087C401106F
:04053000380500008A
:040534003805000086
:0405380000000000BF
:04053C0090610000CA
:0405400090610000C6
:0405440000000000B3
:04054800F017002088
:04054C00FF8B000021
:040550002000000087
:04055400F4AB000004
:0405580054AB0000A0
:04055C000DC30110BA
:04056000398F0000CF
:040564003B8F0000C9
:0405680099C801101D
:04056C009BC8011017
:040570000000000087
:04057400F4900000FF
:0405780030AA0000A5
:04057C0048AA000089
:0405800018AA0000B5
:020584000280F3
:020586000380F0
:02058800C0179A
:02058A0001006E
:01058C00016D
:040590000000000067
:040594000000000063
:04059800000000005F
:04059C00000000005B
:0405A0002D8F00009B
:0405A400D17800000A
:0405A800BD8500000D
:0405AC00B97C000016
:0405B0001B7E0000AE
:0405B400BD80000006
:0405B800B962000024
:0405BC00738D00003B
:0405C0000D690000C1
:0405C40011C8011049
:0405C80021C8011035
:0405CC000800000023
:0405D0002400000003
:0405D400180000000B
:0405D80028000000F7
:0405DC0020000000FB
:0405E0003C000000DB
:0405E4000C00000007
:0405E80034000000DB
:2005EC002DE9F04FADF1740D00F0AEFCA74891490488A74809680668A648A74A006806EA87
:20060C0000070E9706EA01070F971768A34A1588A34A12681092A34A12681192A24A0D94DB
:20062C001268129202EA00040A401492A94A13941268159202EA00040A40A849A648169432
:20064C000068189017926839AE48199100F1680110311A910820ADF820000A24ADF822402C
:20066C004FF0FF33099308A807F01AFC0028F1D100200C900824ADF820400923ADF82230AA
:20068C0008A807F00DFCDDF828C0CDF86CC00028CDF830C040F0BA83BDF824004FF0010885
:2006AC00102840F00A8197489DF826100078884240F00381644620884FF6FF71814200F0E1
:2006CC008F802378913B70D01F3B40F0F68060780D9A162840D020797E2824D07F2810D0D1
:2006EC00131C5CD00E9B002B59D00F9B13B93888064254D040F2C6400090A5A301932079B7
:20070C000FE0002A4BD00E9B002B48D00F9B13B93888064243D040F2C1400090ACA3019376
:20072C002089314610E01299002A38D0139B002B35D0149B13B93888014230D040F2BC4036
:20074C000090B6A30193207A0290DDF844C010982A46A6A3E04722E015999AB1169B8BB19B
:20076C00179B13B9388801420CD040F2A3400090BAA301932079DDF844C0029010982A465E
:20078C009AA3E0476088082107F0F0FC38B9404603F01AFD5B484FF0000804618DE021791E
:2007AC0004F1080008F09EF887E060780E2840F084800D9C002C00F080800E9C002C7CD012
:2007CC000F9C14B93888064277D040F28640C2A400900023DDF844C001943146029350E08B
:2007EC006088000969D347480469002C65D080784449B4F802B0401C887094F804A01020CC
:20080C0007F00AFF04F10809041C15D00221152208F0A2FAA4F808B084F80AA0C4F80C9001
:20082C0007F00AFFB54A214606F0BCFF0446162C03D106E03C050000042432480069042CD3
:20084C0034D10D9C1599002C37D0169C002C34D0179C14B9388801422FD02A4840F2FB42B8
:20086C0000690092BCA401940079264B02909878DDF860C003900022049214460594234654
:20088C000693109859A32A46E04716E010AD0000E0AC000040050000440500008405000022
:2008AC00FCAC0000F4AC0000DCAC00004088002107F05CFC204603F087FC0C9C002C00F084
:2008CC00A582B8F1000F00F0A1821B9808F03AF89CE2C046E4AC0000F8AC000090080020CD
:2008EC00A948806808F0FCFB80460D9A98F8080008F1090408F10901002800F00181401E1E
:20090C007CD001E0C0070020401E54D0FFE7401E00F07682801E40F07682131C1FD00E9B7C
:20092C00EBB10F9B13B93888064218D0A378002B0CBFB8A0BAA04FF441710022A8A30091F3
:20094C00DDF860C001931146029013460392109804913146059325A306922A46E047B4F83C
:20096C000090102007F058FE041C00F04C820121132208F0F1F9A4F808900020A072024699
:20098C00E26007F059FEAD4A214606F00BFF3AE252656365766965642047415454204D65F8
:2009AC0073736167652E204F70636F64653A2030782530327800208841F21011814240F080
:2009CC00228220796188641D224607F0B1FA1AE24D54552053697A65206368616E67653AED
:2009EC0020256420627974657300C04670726F6A6563745F7A65726F2E6300C0208841F2B3
:200A0C003011814240F0FF81B4F8050000284AD0401E21D0401E48D183A045E0466C6F777D
:200A2C0020636F6E74726F6C2076696F6C617465642E204F70636F6465206F66206F666619
:200A4C00656E64696E6720415454206D73673A2030782530327800C0B3A025E04F757467ED
:200A6C006F696E67205246204649464F2066756C6C2E2052652D7363686564756C652074DB
:200A8C0072616E736D697373696F6E206F66206D73672077697468206F70636F6465203072
:200AAC00782530327800A6A01C902079012840F0AA81002A00F0A7810E9C002C00F0A38178
:200ACC000F9C1CB93888064200F09D811C9940F25F408CA492A277E048434920436F6D6DB3
:200AEC00616E6420436F6D706C657465204576656E7420726563656976656400498D0000FF
:200B0C00238841F210101B1A00F09A80203B40F07A812379002B39D05B1E40F07481002A6E
:200B2C0000F071810E9B002B00F06D810F9B1BB93888064200F0678140F232400090A0A340
:200B4C00019360790290A0790390E07904900022059211460691CCE05265747279696E674A
:200B6C00206D6573736167652077697468206F70636F6465203078253032782E20417474B0
:200B8C00656D707420256400C00700209B480021282205F02FFA9948641D2722214604F091
:200BAC004BFE0D9C002C00F02E810E9C002C00F02A810F9C1CB93888064200F024818F4906
:200BCC0040F22B40B3A4BAA200900194BAA3029303920491002405942346069389E0C0464A
:200BEC00426F6E644D6772205265717565737465642070617373636F64652E205765206171
:200C0C0072652025732070617373636F6465202530366400446973706C6179696E6700C0E4
:200C2C0053656E64696E6700496E6469636174696F6E7320656E61626C6564003B8D0000B8
:200C4C00A178199A601D05F073FC04F1050924790D9B0FF2902B0FF2902A002C79D0641E25
:200C6C0040F0D1801C1C1CD00E9CD4B10F9C14B93888064215D0B04940F2C23085A4009059
:200C8C00A8A3ABA2DDF860C001940024029310980392234604912A46059431460693A84B26
:200CAC00E047A84899F800204069072106F020FD0D9C002C00F0A7800E9C002C00F0A380A7
:200CCC000F9C1CB93888064200F09D8099F8004004B1D34640F2CA308EA3009089A4019425
:200CEC000293CDF80CB0002204921146059114460694DDF860C0109831462A46904BE047B3
:200D0C0081E0C04643434344204368616E6765206D73673A2025732025733A20257300C02A
:200D2C0053747265616D00C04E6F74696669636174696F6E7320656E61626C656400C04630
:200D4C004E6F74692F496E642064697361626C656400E3B10E9CD4B10F9C14B93888064208
:200D6C0015D0754940F2B3304AA400906DA363A2DDF860C001940024029310980392234633
:200D8C0004912A460594314606936D4BE0476D4899F800204069022106F0AAFC0D9C002C17
:200DAC0031D00E9C7CB30F9C14B9388806422AD099F8004004B1D34640F2BB304BA38CE7B6
:200DCC0056616C7565204368616E6765206D73673A20446174612053657276696365205305
:200DEC00747265616D3A20253032783A253032783A253032782E2E2E00C046C090080020FB
:200E0C00087801F0FDFD404607F090FD4D48806808F062F900283FF463AD4A48C06808F064
:200E2C005BF900287FF416AC4648C06808F058F9044620894FF6F07181424FD1237B002BB1
:200E4C004CD1DDF8688000211422404605F0D2F804F10D011322404604F0EEFC14214046B9
:200E6C0002F090FB0D9B002B38D00E9B002B35D00F9B13B93888064230D040F2DE600090B7
:200E8C0004A301932D4B0CA209A1DDF860C01098029218E056616C7565204368616E6765AF
:200EAC00206D73673A2025732025733A20257300537472696E6700C0446174612053657228
:200ECC007669636500C000220391114604931C4B05922A4606913146E047FFE7204607F015
:200EEC0025FD9AE76F6666006F6E00C01B5B33316D4C4544301B5B306D00C0464C45443001
:200F0C0000C046C05475726E696E6720257320257300C0461B5B33326D4C4544311B5B30AE
:200F2C006D00C0464C45442053657276696365004C45443100C046C02808002038080020F0
:200F4C00F8090000C00700202DE9F04F0820ADF19C0DADF830004FF0010BADF832B00CA87E
:200F6C0006F09EFF724C9DF8340020700E9860606B4806686B48DFF8B08107880FF2901940
:200F8C00B246FFB1414608681AEA000F1AD0C94800681AEA000F05D1C748006800881AEA44
:200FAC00000F0FD061484FF4D273C7A20568009300210192C24B0291C0491A8808684B469D
:200FCC003146A84704F144050021284608F080F8A560002104F15005284608F079F804F126
:200FEC005C0004F12401E56004F0A4FD4146D1F80080606100BBCC480168D7B111EA080F32
:20100C0017D0AC480068014204D1AB480068008801420ED045484FF4DD7305680093C5A2DE
:20102C00019200230293A64B1A88A44B18684B46A84708F049F8606902215A4606F058FBC9
:20104C0003A800212422082308F03AF8C248006841F288354FF47A71002203ABB1FBF0F031
:20106C0081B205FB01F0BD49089004F1AC0008F023F80025584659468DF892000DF19202E3
:20108C00ADF8405040F2053001F01AFE40F20630022110AA01F014FE621C4FF44270594645
:2010AC0001F00EFEAE4A40F207301F21154601F007FE002F4FD016EA080F4CD07D48006887
:2010CC00064204D17C4800680088064243D00021202204F18C0004F08DFF7948774B134A94
:2010EC00B0F800B01868D2F800A0269000202A5C401CC0B22B5C2918092B18BF082B01D1A0
:20110C001F2A17DB8018C0B22028F0DB17E0C04670726F6A6563745F7A65726F2E6300C007
:20112C00E0AC000010AD000040050000F4AC0000C0070020CF48491C521E04F07DFBCD4B1E
:20114C0040F20220CCA500905A4631460195269802934B46D0470620A02106F03BFC07204B
:20116C00A02106F037FC0820A02106F033FC0920A02106F02FFC01201E2106F02BFC0021C2
:20118C008DF8951001258DF89350B9488DF894502B460F900FAA8DF8963004214FF48160C4
:2011AC0006F0FEFB4FF480600DF19302294606F0F7FB40F2024025AA294606F0F1FB40F261
:2011CC00034029460DF1950206F0EAFB40F2064029460DF1960206F0E3FB032006F032FD48
:2011EC00042006F02FFDCB48CB4A0D2106F0EAF9CA4AABA0032106F081FB04250820DFF851
:20120C002093ADF8300099F80000ADF8325080000D900CA806F044FE00280CBF0E980020C0
:20122C00C04D686038B107F0E7F9BF4A05F13000082106F0C7F904F12000DFF8F8A2BB4A74
:20124C00286004210AF10C0006F0BCF920784D46082326900422ADF830302978ADF8322054
:20126C0088000D900CA806F01BFE00280CBF0E980020AF490FF2382B89460028C86071D005
:20128C0007F0BAF9AC4A09F14C00062106F09AF9B246002F4AD01AEA080F47D00548006884
:2012AC001AEA000F2FD10448006800881AEA000F3CD007E03C05000044050000FCAC00009B
:2012CC00840500001FE0C046496E697469616C697A696E6720746865207573657220746154
:2012EC00736B2C2068617264776172652C20424C4520737461636B20616E642073657276E2
:20130C00696365732E009148EE236DA206680093062101928E4B02918E491A8808685B4645
:20132C005146B04702E0C046DCAC0000269889F8000018E04572726F7220696E69746961C4
:20134C006C697A696E6720626F617264204C45442070696E7300C046D0AC0000838E00006A
:20136C00C60F0020B246734904F13400886004F13C00C9F80800DFB11AEA080F18D0714960
:20138C0009681AEA010F05D16F49096809881AEA010F0DD06D49FF2752A30E6800976C49A8
:2013AC0001936C4F02900A8838685B465146B0470DF142000021282204F01CFE5F490DF180
:2013CC006A00282204F038FA002001210DF1420206F0AEFD002028210DF16A0201F06EF9D7
:2013EC00012014210DF1420201F068F9A87820BB04F11C0095F80180EE786862182007F07E
:20140C000BF9071C19D00421002207F0CBFB404607F04FF838727E720020B87205F14803C3
:20142C00FB6005F158023A6105F12001796107F003F9434A394606F0B5F90C2007F0ECF8BF
:20144C00071C0AD00121042207F086FC2C34BC6007F0F2F8394606F0E1FE0120102106F0C9
:20146C000BFC0220102106F007FC27B0BDE8F08FF51303004C0800204E616D6520696E20FB
:20148C00616476657274446174612061727261793A201B5B33336D25731B5B306D00C046AD
:2014AC004C6F6F6B696E674275732E636F6D00C0646174615F736572766963652E6300C0BB
:2014CC005265676973746572656420736572766963652C2025642061747472696275746518
:2014EC007300C046526567697374657265642063616C6C6261636B7320746F206170706CC9
:20150C0069636174696F6E2E2053747275637420257000C0C01100205CAC0000BD8E00004C
:20152C00280C0020A013002068AC000028AB000050140020E0150020D0AA000071AA000063
:20154C00C98E00003C05000044050000F4AC000084050000FCAC00002DE9F04F0120ADF1B9
:20156C00240DADF80A000827ADF8087002A806F097FC00263546D84C8DF81C509DF80C00A9
:20158C006070A6700498E0614FF6FF70A082384607F042F85FEA00080CD00121122207F07D
:2015AC00DBFB07F049F807A90123D94A0091414606F016F99DF81C000121207004F1A800FD
:2015CC0006F00CFB04F1CC00022106F007FB04F1F000042106F002FB042031461022E0700C
:2015EC0004F1480004F006FD04F158003146102204F000FD2562267266720720E67204F159
:20160C0048021021A072022006F040F904F158020320102106F03AF9042004F12002014692
:20162C0006F034F919E0A078B4F84050B4F84230B4F84420B4F8461006280ED1ADF80A50F2
:20164C00ADF80C30ADF80E20C948ADF8101007F061FC012002A904F04DFC0A20ADF80A00BE
:20166C00ADF808704FF0FF35039502A806F018FC002840F0D58130460690ADF8087009257D
:20168C00ADF80A5002A806F00BFCDDF810900028CDF8189040F0C481BDF80C00102840F0F0
:2016AC00B38160789DF80E10884240F0AD814D4628884FF6FF71814200F09E812B78A23BED
:2016CC0000F083812E3B40F09F81A878B046002800F05081801E00F02881401E012840F262
:2016EC00FD80801E00F0AD80401E73D0401E60D0083800F05B81801E40F05D8194F83E30C5
:20170C00A888052BADF808004BD001208DF81200974807F0FFFB94F83E00012820D00428FE
:20172C001ED003280DD002280BD00698C188ADF80A100189ADF80C104189ADF80E1080891B
:20174C002BE0B4F84000B4F84250ADF80A00B4F84430ADF80C50B4F84600ADF80E301CE0A7
:20176C00B4F84000E9888842D8BF081CADF80A002989B4F842008842D8BF081CADF80C00F6
:20178C006989B4F844008842D8BF081CADF80E00B4F84610A889814200DC0146ADF8101045
:2017AC0001E08DF81260AB4A02A8122106F0CBFA01E1A94807F0AEFB6878002840F0FB8092
:2017CC00E888E0822889208368896083684807F049FAF0E0B5F804A00A2006F01DFF5FEA73
:2017EC0000080AD00121152207F0B6FAA8F808A006F022FF414606F011FDB8483146062272
:20180C0004F0F8FBE68226836683A8796073584807F080FB904807F07DFB4FF001084FF601
:20182C00FF706379A0824BB9A879082814BF04200520A070404607F021F9BCE00320A07048
:20184C00B9E06878002840D1A449281D02680A60808888800623A3706889A082E889E08292
:20186C00288A2083688A6083E878207394F83E00012818BF022808D11F2005F085FE4FF478
:20188C007A7141433A4805F0E5FF95F803B0B5F80AA0142006F0C0FE5FEA000800F08E80A4
:2018AC000121142207F058FA88F808B02D1DC8F80C50A8F810A0042088F8120006F0BCFE27
:2018CC007F4A414605F06EFF78E0687831286BD12671042023E0C046280C0020687800285D
:2018EC0062D1A878618AA278032813D02079657921B9012814BF6671267105E0054303D0BB
:20190C00724805F0A7FFA278072AE2D1062006E0578D0000062A06D0207910B90320A070DD
:20192C004CE00220FBE70720F9E7687800283BD1EB78A078E17993B9022815D0072813D00E
:20194C00062802D1617901290ED103280CD05F4807F088F940B9012007F090F804E0604A4A
:20196C00404605F0F9F968706878E8B923E0C046F40C00206878B8B9554A0220102106F033
:20198C0047F9544A0320102106F042F95548ED1C29680160AB888380534A01252846A179BF
:2019AC00A57005F0D9F948B1A77007E0A888454A102106F0AFF9B8F1010F25D1606A18B376
:2019CC00016809B3A07888471EE0687913281BD12889012808D1A07B022805D11E4807F0BE
:2019EC0099FA05F065FB0FE0052005F0CDFD0146194805F02FFF07E06888C00B04D3364A5C
:201A0C000420014606F004F9069848B1ADF808700320ADF80A00CDF80C9002A806F040FA9B
:201A2C00208A65792179420830D320F0010055EA010320822AD08DB92C49207A8DF8080059
:201A4C00657A8DF809500A680DF10A031A608988998006E0C38E0000180D002003208DF878
:201A6C000800A07AE57A184A8DF8100006218DF8115002A805F080FC616A30B1A77021B125
:201A8C00086810B1096838468847208A810807D3174920F002002082304604F02BFA208AF1
:201AAC00C108FFF4DAAD20F00400A57B2082681E3FF4B9AD401E7FF4D0AD05F0F9FACCE5FB
:201ACC002D8D0000E78E0000DB8E0000D00C0020700C0020800C0020480C0020600C00201E
:201AEC00AF0C0020540C0020900C00205A0C0020660C00202DE9F84F8046DD480122A0F1AF
:201B0C0030010A60D7490F68002FFCD0D74ED64AC02706F1040B1760DBF80010890804D299
:201B2C003168090C41F0F00100E07221E34AE44D4FF0000982F85412A5F1D407C0F8009017
:201B4C00D6F808A03868C0F3046007F0CDF85246534600EB2270401C162805DA10F10A0F4F
:201B6C00B8BF6FF0090000E01520E649E64F00F01F0040F4F8500880386880083ABFE348A2
:201B8C00C0F8009042F04062E149A5F13C04D00E970E80F0010000F00100086087F0010058
:201BAC0000F0010088602068C0F38367C0F38F215FEA9A4022D243F3072000280BD54242B8
:201BCC004846490805D17F0806BF0127391C4FF6FF71521EF5D1002810DD4FF6FF7249007C
:201BEC0041F001018A4207D27F0047F001070F2F92BF01210F27111C401EF0D141EA07419D
:201C0C00182005F069FF20682768C34CC0F3870140F2FF324B4607F0030041EA002127461B
:201C2C0088B22C210090A7F1400005F089FAA5F110073868C0F30D011C2005F04DFFB549A8
:201C4C0057F8080C014000F07C400143142005F043FF57F80C1C01F47C000904090C01432B
:201C6C00102005F039FF57F8042CDBF80010C2F30350C2F30343490812D231680E0510EBBA
:201C8C00267003D41028A8BF0F2000E04846090413EB217303D4102BA8BF0F2300E04B46D4
:201CAC0043EA001302F47F4002F0FF01B8F1220F40EA034041EA000124BF02F080421143D3
:201CCC000C2005F009FFB8F1220F32BF01202868C0F30070B8F1220F4FEA400040F020008D
:201CEC0084F8090126BF2868C0F3407001208B4EB8F1200F40F0100084F8090138BF49465C
:201D0C0006D33168C80C00F44070C1F384510143282005F0E1FEB8F1200F26BF3068C0F3DC
:201D2C0001504846B8F1220F4FEA400040F0600084F80C0126BF2868C0F3C0604846B8F1CD
:201D4C00220F4FEAC00040F0800084F8010126BF2868C0F345504846B8F1200F4FEA800043
:201D6C0040F47C40A4F89C0138BF6D490AD3306801038A15920501F47C1100F00F001143FD
:201D8C0041EA0031082005F0A7FE2E464FF480002060A6F1D000816D40F20F226FF31F41E8
:201DAC008A4213D901680068C1F30367C0F3034007B17F1E072805D006280EBF0720801C63
:201DCC0000F00F003D4947EA00100870CAF381477F1E02D07F1E28D023E03168880C20D20E
:201DEC004FF4804020604F48D0F802204B0AC1F3033703F0800322F08F02134347EA0302EB
:201E0C00C0F80220D0F801300F0A67F30303C0F80130026801F0E70722F0E70247EA020109
:201E2C0002E04FF0004120460160DBF80000C0F3C0070FB94020A0624FF400703E4F206432
:201E4C0028684FF04008C0F3C14040F0300084F8C800CAF38150A8B3401E0BD0401E28D08F
:201E6C00022127E09402224300600C40AC3F005040100940012006F0ABFC05460420294615
:201E8C0005F07EF8042006F0A3FC8542FAD12648056825F07F4006F063F838461430006856
:201EAC00036807214FF06022280E98474FF4806020600321042005F063F80AE002600840DE
:201ECC008C1300500420012105F05AF8174806F047F8203E30681649164B47F6180500F0E6
:201EEC003F0084F8CB0F3A460D8018681068C168022088471248114EC0F80080012131607E
:201F0C00BDE8F88F6E6208400000094094042A4300002043FCFCFC0040A00C4098130050A5
:201F2C0000803F400A600840A83F0050BD37860070B00C402C200940A00100109404604247
:201F4C0000600C402DE9F04F09AFADF13C0D1C460025DFF8F891DFF8F881DFF8F8A1DFF857
:201F6C00F8B1089038790A923F880B90FF200D9008780991022809D10846494640680E8870
:201F8C00008842F60213834200F0E880099804F0BBFE064649469BA2002E0B880C9699469B
:201FAC0040D0761E1FD0A8480168D3B1A7480068014216D0A6480068014204D140460068C9
:201FCC00008801420DD0A54840F22927A9A604680097A14B01969F4F02951A883868A1A3FE
:201FEC00A0470A200BE150465E46B9F1000F4FF0140A0168079606F1040B3FD0934800682A
:20200C0001423BD092480068014204D1404600680088014232D092484FF4097306680093B7
:20202C009BA31DE050465E46B9F1000F4FF0280A0168079606F1020B20D084480068014284
:20204C001CD083480068014204D1404600680088014213D0824840F21623066800938EA33A
:20206C000192029308980390049405970B987A4B06901A88774B18687AA3B047BA4530DDC3
:20208C003E19B24521DA70480168B9F1000F1AD06E480068014216D06D480068014204D1AB
:2020AC0040460068008801420DD06C484FF40D73066800937AA20192674B0295654D1A88BA
:2020CC00286868A3B0470D252CE009980A99C0682246C01903F0B0FBABF800600C980D9095
:2020EC0020E059480168B9F1000F1AD057480068014216D056480068014204D140460068EB
:20210C00008801420DD0554840F22F23066800936CA20192504B02954E4D1A88286851A355
:20212C00B04707250D98FF280DD00798806850B1066846B1E419A0B200900C9A0A9B089810
:20214C0041F23011B047284659E0C04610AD000044050000E0AC0000501400205046006847
:20216C00002E81462ED03948006819EA000F29D03748006819EA000F05D140460068008827
:20218C0019EA000F1ED00B98FE280CBF0FF258180FF27018099804F0B7FD314940F2FB13A2
:2021AC000E6800935AA20192029008980390CDF8108029490595274B06950A8818684946A7
:2021CC0028A3B04700970320019009990A9A0898234604F015FA06465846083007686EB9DC
:2021EC0067B1786850B1099804F08EFD009402460A9B7C68089841F23011A047F0B20FB0F9
:20220C00BDE8F08F5772697465417474724342203A20257320636F6E6E48616E646C65280F
:20222C00256429206C656E28256429206F666673657428256429206D6574686F64283078B5
:20224C00253032782900C046DCAC0000400500003C050000FCAC000084050000F4AC000065
:20226C00F8AC0000646174615F736572766963652E6300C0417474726962757465207761C7
:20228C0073206E6F7420666F756E642E00C046C053747265616D00C0537472696E6700C0BB
:2022AC00496E76616C69642076616C7565206C656E677468207761732072656365697665FE
:2022CC00642E00C0416E20696E76616C6964206F6666736574207761732072657175657323
:2022EC007465642E00C046C02D20726573746F72696E6720626F6E646564207374617465AA
:20230C0000C046C02D204F5441207772697465005772697465417474724342202843434333
:20232C0044293A20706172616D3A20256420636F6E6E48616E646C653A2025642025730021
:20234C002DE9FE4FB84C0F460646F80B80F04781B80880F0D480B54DDFF8D892DFF8E0B2FE
:20236C00DFF8E882DFF8F4A22C68B80F67D2B0480678002E47D1380947D3AF48012649464B
:20238C00067000240C70204602F0CFFBAB48FDF7ABFEAC492246584606F0B1FDAA4801785F
:2023AC0001291CD141460B78CBB9A94E306880B106F0E4FB2B68A8493668A64D0A68C01A76
:2023CC00000B82182860B2EBC61F28BF0C6007D20A60A4484FF0005106F08CFB2CE0067031
:2023EC00504640F609010180417B01F0F00141F0010141734480017B01F0F00101734460BB
:20240C00974E306018E0390914D2B80BC0F004819D48001D06F07CFD061C08D0706830B1FF
:20242C007468F068B6F91C1098A20CCAA04727F40057F1E00021017027F00807ECE0ECB126
:20244C00042006F0C5F9C8B106F098FB864A29681060814226BF401A401E401A000BF060B0
:20246C00F06800F58D70F060F16840F6C410884203D340F2EE228A4200D9F0600024D6F88A
:20248C0018C02C60BCF1000F10D050460D30007810F00F0F0AD1708C40F60901814205D117
:2024AC007CA20CCA30466FF48071E0476F495846224606F024FD4546287850B10220ADF863
:2024CC000000684605F056FF2C70BDF808006849088049460120674A674B087010781C70C7
:2024EC00401C1070192006F0C5FB756925B16BA20CCA30462146A84727F000578CE004F1D3
:20250C000C0A504606F004FD061C5FD005F011FA7368B2690025B561E3B1F37F42F002024E
:20252C004FF00009904603F007035B1E07D05B1E03D09B1E06D15BA002E05CA000E05DA092
:20254C0090E800037268F068B6F91C104B4694464246E04706F0ACFD8046B4F91200401C4D
:20256C006FF31F306082E0681F30017801F07F010170504606F046FA404606F095FDF06898
:20258C00B0F99410B4F9122091421FD13B49097801291BD090F896409CB904688CB1384949
:2025AC0009680968B1F1FF3F10D0364909687030B4FBF1F106F074FDF068703006F06CFD8E
:2025CC0004E080F89650284604F04EF8504606F09FFC27F0020708B147F002071CE006F0D3
:2025EC0067FD01462046083006F092FC0646B469084606F059FDA0080CD25EB17068B16978
:20260C00A143B16130B17568F068B6F91C1000232246A84727F480471FB11248394606F0CC
:20262C0069FABDE8FE8FC046302500207C2500209F2500209B250020992500204562000074
:20264C00E42400202D8500009D25002098250020782500208425002074250020442500200D
:20266C0000100440E02300208025002019490000A8240020A12500209A250020E2180020E5
:20268C0088250020D0AC00003025002000000000200000000000000000000002000000004E
:2026AC00000000040000000000000010000000000000004000000000000000202DE9F04F45
:2026CC0005467F487F4CADF13C0D0FF2442C0F46DFF8F4A1DFF8F491DFF8F4810088DFF8F1
:2026EC00F4E107902E1C0890E068099245D0761E21D0BD48079F0168002F00F0DD80BB4870
:20270C000068014200F0D880B9480068014205D1504600680088014200F0CE80B5484FF4F1
:20272C009A7771A604680097434601964F4602951A88386876E0089E8346231D04F11002C8
:20274C00704614210B93002E0A9205680C914FF001030D933FD0A548006805423BD0A4488B
:20276C000068054204D1504600680088054232D04FF498736DA200211CE0089EA31C704665
:20278C0004F1240200210B9305680A920D9128230C9306B39548006805421CD0944800684D
:2027AC00054204D1504600680088054213D040F2251360A2904806680093CDF804C00292DF
:2027CC000397049105914346069149461A88086841A32946B0470C98B84226DA8248089E0F
:2027EC000168002E68D081480068014264D080480068014204D150460068008801425BD01A
:20280C007D4840F24D16046800964CA501950297002303930C9A0492464605934D460693EB
:20282C00328828682CA3A04746E00A9809993A4603F002F80D9E0B98002E07803CD0079807
:20284C00294600282BD069480068014227D068480068014204D150460068008801421ED0A0
:20286C00654B40464E4602889BF802701D683068002F19A308BF3FA703D0012F0CBF44A785
:20288C0049A74FF4A27600964CA60196BBF80060029603970027049705970697A84706206D
:2028AC000090564F0A99207804F14C03002201905846029702F022FE0FB0BDE8F08FC04673
:2028CC0010AD00005014002044050000FCAC000084050000E0AC0000646174615F73657262
:2028EC00766963652E6300C0536574506172616D657465723A20506172616D6574657220EC
:20290C00232564206E6F742076616C69642E00C0536574506172616D65746572203A202504
:20292C0073206C656E3A20256400C04653747265616D00C0537472696E6700C04C656E67E7
:20294C007468206F75747369646520626F756E64733A204C656E3A202564204D696E4C6576
:20296C006E3A202564204D61784C656E3A2025642E00C0461B5B33336D4E6F74692F696E95
:20298C00642064697361626C65641B5B306D00C04E6F74696669636174696F6E20656E6161
:2029AC00626C656400C046C0496E6469636174696F6E20656E61626C656400C05472796959
:2029CC006E6720746F2073656E64206E6F74692F696E643A20636F6E6E48616E646C652091
:2029EC0025782C20257300C0DCAC0000400500003C050000F4AC0000F8AC0000152F0000F4
:202A0C002DE9F04FA549A64EA64DA74CDFF89CB2DFF89CA2DFF89C92DFF89C820F88401E64
:202A2C00ADF1340D00F09080401E75D0801E61D0401E4DD0401E2ED0401E17D0401E40F08F
:202A4C00C9803168002F00F0C5802868014200F0C1802068014205D15A461068008801429C
:202A6C0000F0B88040F26D3060A766E03168002F00F0B0802868014200F0AC802068014264
:202A8C0005D15A4610680088014200F0A38040F2613058A751E040F2153004A901F08CFDCD
:202AAC0004A804F0D1F93168002F00F093802A68114200F08F802268114205D15A46126824
:202ACC001288114200F086804FF4577750A676E03168002F7ED0286801427BD020680142AB
:202AEC0004D15A4610680088014273D040F2693051A722E03168002F6CD02868014269D0FA
:202B0C002068014204D15A4610680088014261D040F265304EA710E03168002F5AD02868C7
:202B2C00014257D02068014204D15A461068008801424FD040F252304AA742461468009044
:202B4C000197002602963FE04FF441700AA901F033FD9DF829308DF8113000218DF81410AE
:202B6C009DF82A208DF813109DF828008DF812209DF82D308DF810009DF82C208DF817301A
:202B8C0004A98DF816209DF82B304C4A8DF81530086810604B6853600AA804F055F931689E
:202BAC00C7B12A68114215D02268114204D15A461268128811420DD040F24D372CA6424621
:202BCC00146800970196029053464D4618682A8802A3A0470DB0BDE8F08FC04670726F6A21
:202BEC006563745F7A65726F2E6300C04572726F7200C046436F6E6E656374656420616E8B
:202C0C0064206164766572746973696E6700C046436F6E6E65637465642E205065657220F1
:202C2C00616464726573733A201B5B33326D25731B5B306D00C046C0436F6E6E656374695C
:202C4C006F6E2074696D6564206F757400C046C0446973636F6E6E6563746564202F20498F
:202C6C00646C65004164766572746973696E670047415020697320737461727465642E205A
:202C8C004F757220616464726573733A201B5B33326D25731B5B306D00C046C010AD00001C
:202CAC00E0AC0000400500003C05000044050000FCAC000084050000F4AC00002B11002080
:202CCC00F8B5A0F2013517460E46022D40F214818A4A8B498B4B2D1F0F2D04D9143D4AD07E
:202CEC00AD1E1CD011E0DFE815F0C300BC00F400E400B300AB000701A2009A00100010003B
:202D0C009200880079006F006300282880F2F480022E40F0F180398804F05CFEF8BD012E48
:202D2C0040F0EA8015462879012800F0E58051793878507181B9002800F0DE809078012857
:202D4C0000F0A980042800F0A680062800F0A380052800F0A080F8BD3878002840F0CC8085
:202D6C009078032800F0A280072800F09F80052800F09C80F8BD012E40F0BE803878012860
:202D8C0040F0BA80154605F1F00005F06BFF002840F0B2802C46002004F13E0103F0AAF838
:202DAC00002840F0A98004F1CC0006F0B3F8F8BD022E40F0A18038880A28C0F29D80B0F588
:202DCC00486F00F3998015E0022E40F095803888B0F5FA7F80F290800880F8BD022E40F0BD
:202DEC008B8038880628C0F28780B0F5486F00F383801946891C0D4638E0022E7CD1388817
:202E0C00062879DBB0F5486F76DC1946F3E7012E72D1387806286FDA891F0D460EE0012E8C
:202E2C006AD13878042867DA15460B3506E0012E62D1387808285FDA15460A352870F8BD4B
:202E4C00012E59D13878042856DA1546093506E0012E51D1387804284EDC15460835294624
:202E6C00DBE7022E48D13888154612352946B3E7012E41D11546687901283DD011793878E3
:202E8C00107161B9002837D09078012803D0042818BF052830D1012005F0F0FDF8BD3878BF
:202EAC0050BB9078022818BF052825D105F0B2FEF8BD154605F1870400211F22204603F0DE
:202ECC0099F839463246204602F0B6FC0020EE710EE0154605F1680400211F22204603F06F
:202EEC0089F839463246204602F0A6FC0120AE713146224603F030FFF8BDC046280C002004
:202F0C006C0C0020680C00202DE9F04F804609AF0846ADF1340D0A9397F808B00992B988B9
:202F2C0008903F880B9103F0EFFE06467A498448DFF8EC91DFF8ECA17F4ADFF800C2002491
:202F4C000FF2641E002E058888884988079538D0761E1FD071480168D5B14846006801423E
:202F6C0016D050460068014204D16F480068008801420DD06F484FF4E57744A6056800973E
:202F8C006B4B0196694F02941A8838683BA3A8470A206FE005461046079E0168002E37D01E
:202FAC0048460068014233D050460068014204D15D480068008801422AD040F2C51349A2EC
:202FCC0014E00D461046079E01680EB34846006801421DD050460068014204D1524800683B
:202FEC000088014214D04FF4DD7340A2604606680093CDF804E00292CDF80C800497CDF80C
:20300C0014B04B4B06941A88484B18681BA3B047BD420EDB0B98E91B8142D4BF8AB2021C07
:20302C000A9802800898C1680998C91902F004FC1FE03A48079F0168D7B1484600680142D1
:20304C0016D050460068014204D137480068008801420DD037484FF4E87726A605680097E8
:20306C00334B0196314F02941A88386803A3A847072420460DB0BDE8F08FC0466461746130
:20308C005F736572766963652E6300C041747472696275746520776173206E6F7420666FFE
:2030AC00756E642E00C046C052656164417474724342203A20257320636F6E6E48616E64D2
:2030CC006C653A202564206F66667365743A202564206D6574686F643A2030782530327804
:2030EC0000C046C053747265616D00C0537472696E6700C0416E20696E76616C6964206F56
:20310C00666673657420776173207265717565737465642E00C046C050140020DCAC00002E
:20312C00400500003C05000044050000FCAC000084050000F4AC0000E0AC0000F8AC0000B3
:20314C0010AD00002DE9F04F0128ADF1140D40F0F280DFF81492D9F8DC00012840F0E980DB
:20316C000220C9F8DC0005F093FF0290012004F077F820B101210646C9F8DC10D5E005F051
:20318C0083FF03906E484FF00008C0F80080012005F01EFB012818BFCDF8008004D140460A
:2031AC0003F0E0FC0120009066486E4CC0F800801934D4F8FF0F112005F00CFE00280CBF99
:2031CC0046460126102005F005FE08B146F002060F2005F0FFFD08B146F004060B2005F0D8
:2031EC00F9FD30B1584800685849006B0246088890470A2005F0EEFD0028404618BF012079
:20320C004FF0805B0BF5DC7528B128685049006B0246088890474F4801270760286880697C
:20322C00014646F0200088474B48076005F0CCFD00F001010191400815D2484805F05BFDCE
:20324C008246BAF1040FF8D0BAF1010F06D1DBF8D801406802464148032190474049086869
:20326C0020F003000860404600F080F82868D4F8FF1F806B8047019801280ED0BAF1010F52
:20328C0006D1DBF8D801406802463448394690473349086840F0030008602A4807602868ED
:2032AC0040690146304688470B2005F093FD28B128682649C06A0246088890470A2005F04D
:2032CC0089FD28B128682249C06A024608889047204807600322C9F8DC201F4BC3F8008059
:2032EC002868406B0146304688470128F8D1042003F0B6FF124807601A48D4F8FF1F0168C7
:20330C008909FCD30098012802D1384603F02AFC05F054FD082003F0A3FF06460398C9F86A
:20332C00DC7005F0ADFE03F0BDFA029805F0A4FE02E0042600E00126304605B0BDE8F08F58
:20334C000C40094000022243B8010010AEA90000AAA90000282008608001044300400340F7
:20336C002422084014100940901200202DE9F84F07467F48DFF8EC8135380068800880F002
:20338C00E28004F0E3FF05467D480830D0F800A000244FEA2A725FEA9A5002F101020AD23B
:2033AC00C5F13E0015F10A0F4FEAE000D8BF08208242B8BF021C684ED6F87C01C0F30460A5
:2033CC0005F092FC03463068C0F3044005F08CFC9A188346162A05DA12F10A0FB8BF6FF07D
:2033EC00090200E015225D4B5D4802F01F0141F4F8511980006810F0030F18BF0124C008EB
:20340C0028BF44F002040FB144F00404414691F90700281A052804DA8879A04208BF888864
:20342C0070D0DFF844810F2DA5F10F092ADB09EB0510A0F1F0094FEA2920072888BF072003
:20344C000746062F88BF062758F827C00423464603EB8703F3584FEA940EE708A3EB0C0356
:20346C0003F0FF0624BFC3F307273E444FEA540CA70824BFC3F307473E44670828BF06EB07
:20348C00136605E000264FEA940E4FEA540C304658F820805FEA5E0708F0FF0324BFC8F37C
:2034AC0007273B445FEA5C0724BFC8F307473B44670828BF03EB1863B6B2A9EB0027ABEBC4
:2034CC0002007E43002806F1800603EB1623D8BF012034220AF0FF0742437A43B2FBF3F071
:2034EC004FF6FF72824238BF101C802D80B2888005DA15F1800FB8BF6FF07F0500E07F25EA
:20350C00CD718C71194A12681F280A604FF0000208D340F2FF11814206D24008521C814264
:20352C00FBD301E01F208880124F11490F38000942EAC00247EA0200C1F8FB0F0026C1F8BB
:20354C00FF6FBDE8F88F0D4F0B4E414608203760891D0870BDE8F88F3C1100506E620840CB
:20356C0024220840682500209C130050082009403500094000E7A48030100940FDFDA400E4
:20358C00AC3F00502DE9F04F8946054613220021ADF1140D684602F02DFDB9F1140F00F3D6
:2035AC00F3802B796E1CAF78EC7879498DF8033030788DF801704FF00E0B8DF80240072273
:2035CC008DF8000001F11E0300271224984683F800B001F11F03581C1A70641E00F8017BD9
:2035EC00FBD10C46142020612078012808BF637810D0E760FF20A07084F87A710A236770C8
:20360C0004F27B105B1E00F8017BFBD1E77001203B4620702878012800F0B280002B00F0D5
:20362C00B380082800F0A88094F80390042870D005284FD0092806D0022840F0A5800F2176
:20364C0002208B4660E0681D022104F0C3FF1FFA80F90421304604F0BDFF82460421E81DFE
:20366C0004F0B8FF3E4604F194053A46014605F1E60313F8010F18B305EB4200008D814570
:20368C001ED155F8220082451AD102EB0210401990F83CE090F83DC00CEB8E0C90F83EE056
:2036AC0090F83F000EEB8C0E00EB8E00814207D1761C94F87A011F70F6B2401E84F87A016B
:2036CC00521C0A2AD5DB6671002E08BF08201BD0092049E03046012104F07CFFC1B2894513
:2036EC0011DD0F20052788F80000091988F80170097D112208F1020001EB01110919D0310D
:20370C0002F09AF840E0052088F800B088F801003AE0681D022104F05DFF85B2042130463F
:20372C00E58004F057FF3E4604F19402A06002F1E60111F8013F63B102EB47031B8D9D42CA
:20374C0007D152F82730984203D13319761C1F75F6B27F1C0A2FECDBE670002E04BF042016
:20376C0059463FF46EAF04200F2188F8001088F8010088F8026007E0284601F00FFC03E0D3
:20378C004946284601F0C4FA05B0BDE8F08FC046940F00202DE9F843814605F009FB00219D
:2037AC0000B901216B4E30680028FCD06C4D01242D1DEF6A346009B105F000FBDFF898812E
:2037CC00C7F3072008F1BC01086005F0F1FA002100B9214630680028FCD02F68346009B14C
:2037EC0005F0ECFAC7F38440C8F8C00005F0E0FA0146002001B92046014630680028FCD0BB
:20380C00ED69346009B105F0D9FAC5F38120C8F8D000B9F5C061C8F8B81000F0968098F85A
:20382C00D80068B9C8F8D410D8F8C000C8F8C800D8F8BC70C8F8C470D8F8D060C8F8CC60EB
:20384C00D8F8D410D8F8BC60002954BF02206FF00100454605F1C8031A6801EB41014018AA
:20386C00411000EB917002EBA0021A60D5F8C810C5F8C46000291CDD1E293DDDD5F8CC0054
:20388C0030B93429B4BF15391E21C5F8C81025E02A29BABFD5F8C8000B381E20C5F8C800D5
:2038AC00D5F8C4003F28B4BF401C3F20C5F8C4001FE0D5F8CC00032812D011F10B0FC6BF0F
:2038CC00D5F8C8000B30201CC5F8C800D5F8C4000028CCBF401E0020C5F8C400032009E0FC
:2038EC0011F1150FC6BFD5F8C8001530201CC5F8C8000020C5F8CC00B5F8C400174E3021A6
:20390C004FF47F4208230090304603F019FC009404214FF400321123304603F011FCB5F8D9
:20392C00C80004214FF4F80212230090304603F007FCB5F8CC0020214FF440620A230090C4
:20394C00304603F0FDFBBDE8F883002088F8D800BDE8F88300800C409012002000A00C40C8
:20396C0000A00C402DE9FC416F4C204605F0D0FA15460E46009005F09BFB05F0010780468F
:20398C00B6F1FF3F0DD1606820B9B4F91200401C06B202E06068B0F91C6064490020C91C63
:2039AC000870304604F050FC0326002800F0A4806168814270D0009FDFF848C1B84231D022
:2039CC003FB100990A68904209D0096800290091F7D1832E44D0404605F066FB40E06046DB
:2039EC0004F0AAFE00990868AA0803D202680B4601461A6000220A60009078B10C34014647
:203A0C00C87F40F00400C877684604F0FBFF0146204604F0C9F800980028F0D1404605F0E6
:203A2C0043FB1CE0604604F087FEA8083ABF2068006800202060404605F036FB0C34009963
:203A4C00C87F40F00400C877684604F0DBFF0146204604F0A9F8009808B1A808EFD2832677
:203A6C0029482C4A007890B928480078012846D02748FCF739FB0221104605F03BF82648C6
:203A8C00007801283BD02548FCF72EFB37E01046022105F02FF832E0A90803D32168009186
:203AAC0000262660C27F0121B9401143C17705F0EBFA0646002F14BF19481A4804F05AFC31
:203ACC00404605F0F1FAA80811D3009878B10C340146C87F40F00400C877684604F092FFAB
:203AEC000146204604F060F800980028F0D1304605F0C6FA832602E0404605F0D5FA3046CA
:203B0C00BDE8FC81482400209A250020992500204D230000E02300209B250020FD4D000071
:203B2C00010002040100010430250020A82400202DE9F04FADF1840D209000F0CDFD03F02A
:203B4C00DBFA0024012804D104F02CFF022808BF012459490868C0F38150012805D151F84F
:203B6C000C1C0120090E884004435448007804F0B3FCDFF84C81DFF84CA1C8F8000030B10A
:203B8C005246FF2107467F1E02F8011BFBD120990968002501F0FF02FE2A1BD0DDF880C02C
:203BAC0052462B46012701F0FF06FF2E0BD0B04203D907FA06F6344201D0022079E001F04C
:203BCC00FF01354353545CF8041F5B1C01F0FF06FE2EEAD1092001F04BFA3B49209824220E
:203BEC000823086001A8002105F042FA4FF0010901AA3E488DF81C90494605F035FAD8F8FD
:203C0C0000303BB33A4E00274FF0040BBA4609FA07F0044218D1054204BF07F0FF0141F41E
:203C2C00C04104D027482099C05D51F82010274801F0AEFBF8B24FF0FF3104F0D7FDD8F82B
:203C4C000030C6F800A001E0C6F800B07F1C361D9F42DCD30AA800213022082305F000FABE
:203C6C001B4D1D4A2878002410210AAB12901948009405F0F1F916A828220823214605F0BA
:203C8C00E7F9686816AA16491C9014481D94234605F0DAF9134A52F80D0C494620F4F850B4
:203CAC0040F4005042F80D0C0F4BC2F8FF1F2046196021B0BDE8F08FB43F0050A0250020F3
:203CCC00702500206C24002090250020007FC7679CAC0000AC24002015880000AC2300202D
:203CEC00957100000D30094008000940C8240020302300202DE9F84F9A4693460D460446A9
:203D0C0005F0D6F9DFF85C810AAFB8F91220B8F91010009040F6F870891A0840082880F2F7
:203D2C009280B8F91000401C6FF31F30A8F81000B8F9109004F0C0FC064604F1700004F041
:203D4C00FBFCB56086F81EB0C6F804A0F460A6F81C9097E80C0051A003C800251040F577D7
:203D6C00D8F8002006F11007194087E80300002A5CD14046314603F017FF00285BD0A4F822
:203D8C0094904448F17F0778DFF8DCA041F08001F17784F8965067B151460F784FB1344AF5
:203DAC003449324B0570012015700A781870521C0A70009805F078F9D8F8040000284ED1D7
:203DCC005146087800282DD12B480078012846D005F06EF9054629480078F8B9B06802F025
:203DEC00EBFE284B2C4A26491B681268086038B9284605F059F92448042104F07BFE2EE05F
:203E0C00D0680968214C091AB1FBF3F1204605F047F9204605F040F928461EE01C490120AC
:203E2C000870F9E7192004F025FF18E04046314603F0BAFE50B9B8F9100000F6FF706FF39C
:203E4C001F30A8F810006FF0010905E0A4F89490F07F40F08000F077009805F025F948468A
:203E6C00BDE8F88F302500209B2500209F25002098250020A12500209A2500209925002051
:203E8C0078250020D0AC0000E0230020482400209C2500209E25002088250020F1EFFF9F1F
:203EAC00200000002DE9DF4F6548DFF88CC1DFF874B1DFF874A1DFF87491DFF87481DFF85A
:203ECC0074E1078856480E1C32A313D10168002F5DD058460068014259D0504600680142F9
:203EEC0004D1484600680088014250D040F266572CA62DE0012E17D0022E48D1002A46D192
:203F0C000168002F43D05846006801423FD050460068014204D1484600680088014236D0B5
:203F2C0040F2775723A613E0A2B90168002F2ED05846006801422AD050460068014204D16F
:203F4C00484600680088014221D040F26C5725A6002212E039480168CFB15846006801421C
:203F6C0015D050460068014204D148460068008801420CD04FF4AE6722A6604604680097D4
:203F8C0001967746464602923A883068A0470090BDE8DF8F70726F6A6563745F7A65726FA7
:203FAC002E6300C050616972696E6720737461727465640052652D65737461626C69736820
:203FCC0065642070616972696E672066726F6D2073746F72656420626F6E6420696E666FEE
:203FEC002E00C04650616972696E6720636F6D706C65746564207375636365737366756C7A
:20400C006C792E0050616972696E67206661696C65642E204572726F723A20253032780081
:20402C00E0AC0000400500003C05000044050000FCAC000084050000F4AC0000DCAC0000C0
:20404C0010AD00002DE9FC415E4C574D574EDFF860815A4F94F8E410481E0B2861D8DFE8D7
:20406C0000F07B2C43062343062343067664042907D001220A2945F8212C14BF02200320A6
:20408C0004E02021012045F8211C024684F8E200002045F8390C0827C5F8FF7FC5F8F37F73
:2040AC0045F8392CBDE8FC81052914BF09200620002584F8E400356070E094F8E170012078
:2040CC00383D002FC5F81B0004BF0620002102D00021F160032084F8E400032045F8010C1A
:2040EC0031603068800859D294F8E400012503280DD00021404660220523009103F020F84D
:20410C0094F8E400062814BF0A200720D1E702200090002160220523404603F011F80420F6
:20412C00C7E704F08DFFBDE8FC812249002622480E60012505600E2000F0C6FE022003F038
:20414C003FFF84F8E45084F8E360BDE8FC81002038600C2578601FE019480068006801464C
:20416C00202088472C3D41F61D560F2000214FF4C072072345F8010C4046C5F8036002250B
:20418C00009502F0DDFF404600214FF4C072072303F09AF90120386084F8E45004F178000E
:2041AC0004F07AFFBDE8FC8139400C4038600C4000A00C402C500C4004800C4034600C4057
:2041CC00A0010010901200202DE9F04F5D4C27690346ADF11C0D002F68D05148DFF848A102
:2041EC00DFF84891DFF84881DFF848B1DFF848C1DFF848E106882FA23BBB4A490968002E2C
:20420C004ED05046006801424AD048460068014204D1404600680088014241D070464FF448
:20422C00A2660568009627A3019338790290A078039000260496634605965F4606961E8830
:20424C00386813463246A8472AE03D48016816B35046006801421ED048460068014204D1F4
:20426C00404600680088014215D0704640F21556056800961EA601963879029003930026E4
:20428C000496674605965B46069618683E8813463246A8472769397907F1080004F022FB9A
:2042AC00206904F04FFB00202061A07007B0BDE8F08FC04670726F6A6563745F7A65726F83
:2042CC002E6300C053656E74206D6573736167652077697468206F70636F6465203078257F
:2042EC003032782E20417474656D70742025640047617665207570206D6573736167652055
:20430C0077697468206F70636F6465203078253032782E205374617475733A20256400C0FF
:20432C0010AD0000E0AC0000400500003C05000044050000FCAC000084050000F8AC000084
:20434C00DCAC0000C0070020F8B5414C201D0368B3F1FF3F08BF002302F0CEFE002876D107
:20436C003C4E20683468070F04F0FF04802C28BF002402F0C1FE4FF0FF3578B1401E07D03D
:20438C00401E012802D9801E13D014E08FB112E0381C5CD0801E0ED114340BE03846401EFC
:2043AC0055D0801E53D0001F51D0401E03D1163400E00A3465B2162D49DB274827490025AF
:2043CC0001270560264E0F60264C376020680028FCD1274A161D2449244F306820F00300AC
:2043EC0001433868C0080CD2106810F0030F0AD041F003003060106800F003000328FAD19E
:20440C0001E041F001011B483160006820B11A4800681846FDF76EFB184819490560194F3B
:20442C000A686FF35B4247EA0200086016490868C0F30130012806D10A681448104040F45F
:20444C0000320A60086020680028FCD1F8BDFEE718130050A0100050840460425C600C4088
:20446C00082204430C00684204000020B03F00500040034080012843000120438C210840DE
:20448C00482003400000390104000940FFFFFCFC70B5ADF1380D00F01FF9324908682822A3
:2044AC00082340F00200086001A8002104F0D0FD2D4EB0782E4907902C48002301AA04F0B9
:2044CC00C3FD00213022082301A804F0C9FD002519213078284AADF81C5001AB09902548D3
:2044EC00009504F0B9FD2822082301A8294604F0AFFDF07822490790204801AA2B4604F062
:20450C00A3FD3022082301A8294604F0A9FD01241A2170781C4AADF81C4001AB099019486B
:20452C00009504F099FD194819492A46134604F0C3FD1848FBF7D8FD1849194E0C70164847
:20454C0035704FF6FF728283C577164B1D70164C257016490D70174E3560154A15700EB056
:20456C0070BDC04600200940C2AC0000E0230020D18A0000E42400202D8500001424002075
:20458C005D56000000250020196C0000482400202D800000FD4D00008C2400209825002062
:2045AC009D2500209A250020992500209E2500209F2500207C2500202DE9F04F0C46454993
:2045CC00CA7AADF12C0D84460592487B09900D7900958A7A488B4B8A0E7B91F805A091F8F0
:2045EC0002800492B1F846E008904A7A088B0392CD7807900A7AC88A02920F6A0690CA79AC
:20460C00888A01928A79E146A9F54079B9F11D0F10D8DFE809F05B5553514F4D4B494643DD
:20462C00413F3C3A380F34312E2B2923201E1C0F19181716BCF1280F49DA604602F0A4FF1E
:20464C0021E0099EB246D046CDF814801DE00898079007980690DDF818E005E0383108684B
:20466C0020608888A08032E070460AE0B1F8440009E0B1F8420004E0B1F8400001E091F8D4
:20468C003E00034612E0208021E0059804900498039001E03231E2E7039802900298009030
:2046AC0006E0019A87310DE068310BE01846EAE7009D0BE02C31D2E7276008E0583100E09F
:2046CC0048311022204601F0B7F800E025700BB0BDE8F08F280C00202DE9F041444C94F812
:2046EC00E700ADF1280D00286FD1394F387B01250021242284F8E7507E6884F8E60008239E
:20470C00C4F80C6101A804F0DBFC002604F10C00069601ABADF814602E490796324604F0E8
:20472C00CBFC2D4904F1300001AB324604F0C4FC2A4904F1540001AB324604F0BDFCB86886
:20474C00014628468847DFF89C8025487B7B0078D8F80410C1F381571BB1032F03D184F83D
:20476C00E150032F16D0022F14D0012F26D103201D4C009031464FF040521C23204602F0AD
:20478C00DFFC009531464FF400720923204602F0D7FC13E0022003F02BFC032F0CBF4FF4AB
:2047AC007A7142F21071114800685434B1FBF0F1204604F075FC204604F06EFCD8F8000018
:2047CC00C00802D2304603F013FC0AB0BDE8F0813CAC0000136D0000695C0000855E0000D9
:2047EC00A0250020B03F005000A00C40D0AC0000901200202DE9F0430746880FADF1140D73
:20480C0075D302F0E3FB404D00261C352E60394845F81C0C012000F088F93748FBF764FC99
:20482C00BC68B14640F60A01344A6680537B118090465680107BC2F8049003F0F00300F0F2
:20484C00F000107343F00103537300E01C46636813B118888142F9D1C4F80480607B00F0D3
:20486C00F0006073264804F053FB80680088C91F81421DD0491C81421AD03B8CC3B197F8D5
:20488C002C107E8497F82D00C7F8249001F0F00100F0F00087F82C1040F0010087F82D0045
:2048AC0007F12003C8F80430507B00F0F0005073B868694603F0F0FE684604F0CBF9B86839
:2048CC0001F0EDF828680028FCD02E60012003F07FFF012808D0607B00F0F00040F0010065
:2048EC0060730848FBF700FCB86845F81C0C05B0BDE8F08301010E044D230000442500203C
:20490C0030250020196A0000001004402DE9F04104F060F83F4D3E4EDFF8FC800446A0084F
:20492C0020D330464168E9B1002242608B690A690F6922401A4342F0020205F108038A613B
:20494C001A68BA4301F110071A6097E80C002A680C301B1C9A432A6003F026F94046022197
:20496C0004F0C8F87068A10815D200F1100191E80C00002702EA04013B40002B08BF0029DA
:20498C0009D081691440B0600C4384614FF48041404604F0AFF87068002837D1304604F019
:2049AC00B7FA071C32D01E48F9680068884228D1B86802F001F919490860E8B905F10801AD
:2049CC0038690A68104308602B6807F1100494E80300081C1843286000222A61B86845F8CE
:2049EC000C0C05F1100000680028FAD0304604F009F87760BDE8F081086801F035FEBDE8A2
:204A0C00F08140464FF4805104F074F8BDE8F081302500200C100440E02300207825002054
:204A2C00882500202DE9F0430646ADF11C0D04F003FB03F065FA4FF000090546CDF80C9009
:204A4C0004F0ECF930F0010002D00398A84202D16FF0040066E070684C4658B1B0F1FF3F2B
:204A6C0005D004A903F034FA30B1804659E04FF0FF3000E02046049004F0DAFA04994FF0BB
:204A8C000108471802E00A463BE004936868049904F0CAFA00282DD0684602F00FF8D8B93C
:204AAC009DF8040005A902F0AFFF88B9B368BDF814009DF80610029A984748B1BDF81400F6
:204ACC009DF80670B081029BB773C846336111E0029903A803F076FB0498641CB0F1FF3F8F
:204AEC00D4D00028D2D004F0A3FA3B1A02D004989842CAD2039F03F0CDFE05F1080647B116
:204B0C003A4652F80C1C0029BDD1316842F80C1C376004F007F824B1686804F081FA641EC5
:204B2C00FAD1404607B0BDE8F083704734482DE9F0410E4601683348008806AF9846154621
:204B4C00ADF1200DF8B13048006801421BD02F480068014204D12E4800680088014212D045
:204B6C002E4840F285530468009311A20192029603950023049305930693274B1A88254BC5
:204B8C00186807A3A047CDF80080388832462B460190002001F066FF08B0BDE8F081C0462F
:204BAC0070726F6A6563745F7A65726F2E6300C02843422920436861726163746572697323
:204BCC007469632076616C7565206368616E67653A20737663283078253034782920706135
:204BEC0072616D4944282564292E2053656E64696E67206D736720746F206170702E00C033
:204C0C00E0AC000010AD0000400500003C05000044050000FCAC000084050000F8AC00009B
:204C2C002DE9F043814634480E4601683048008807AF98461546ADF11C0DF8B12F480068E1
:204C4C0001421BD02E480068014204D12D4800680088014212D0274840F292530468009315
:204C6C0011A20192029603950023049305930693254B1A88254B186807A3A047CDF80080EF
:204C8C003888494632462B460190012001F0EAFE07B0BDE8F083C04670726F6A6563745F1A
:204CAC007A65726F2E6300C028434229204368617220636F6E666967206368616E67653A0D
:204CCC0020737663283078253034782920706172616D4944282564292E2053656E64696E1B
:204CEC0067206D736720746F206170702E00C04610AD0000F8AC0000E0AC00004005000010
:204D0C003C0500004405000084050000FCAC00002DE9F04704466778A6780D461022002192
:204D2C00ADF1200D684601F065F967B139460020C21C954207DD0219D278491E00F80D205E
:204D4C0000F10100F4D14FF0000804A8102207F80D80414601F04EF966B1304604AAF91CD0
:204D6C008D4207DD3919C978401E07F1010702F8011BF4D11D4C0DEB06004546474694F89D
:204D8C0002A080F8108004F17106B146203E3046694603F08BFE40B905EB090004A903F069
:204DAC0085FE10B9BA4684F802A07F1C10351036022FECDBBAF1FF0F11D00F21A17701205C
:204DCC006070E077E068010E84F82010070C84F82170060A84F8226084F8230003E00E20BF
:204DEC00A0770127E77708B0BDE8F087940F0020042998B54CD1274804F08AF8264C48B984
:204E0C00264800F11F010978490838BF206803D3406800E0C06820604168214A09781160AA
:204E2C00416812680978914206D0876927B124A20CCA6FF0FF01B847022003F0D9F8112040
:204E4C0000F016F901222168164B087C1A7018B115480078012803D00E2000F009F92168E9
:204E6C00496812488F680FB9CF681FB10021C1610F4F07600F4A40F2FF71116000278761D2
:204E8C000D4941610D48FBF72FF9192004F0C4F898BDC04630250020882500208C24002049
:204EAC00D02108409A2500209D25002000100440510007060000046002000040014800004B
:204ECC0000000000000000022DE9F843044604F0EFF881462D48021992F8ED10491ECFB288
:204EEC00002F82F8ED704BD12B4D05EB84052E78698836F07F0788461AD1F10911D24FF07B
:204F0C008054D4F8B801806901464046884704F5DC742068406B0146404688470228F8D19C
:204F2C0021E000EB8800D0F80011002088471AE04FF08054D4F8B801006A01464046884791
:204F4C00D4F8B801806A014640468847D4F8B801006B01464046884701210D4A0D4811606F
:204F6C0001688908FCD306F03F003F2801D0FFF7ABFF687800F03F003F2801D0FFF7A4FF6F
:204F8C00484604F091F8BDE8F883C04690120020282008602820084080A900002DE9F04162
:204FAC0006460421701CADF1180D03F013FB2F4CE568771C281AB0F1FF3F4FD106F10A0087
:204FCC00042103F007FB8046022106F10E0003F001FB86B200211122684601F00BF86846F2
:204FEC003946112200F028FC94F87A010A28A8BF042034DA04F194030A21002003F1E6025A
:20500C0012F8017F27B1491E00F10100F8D113E00121117003EB40073E8543F8208094F80B
:20502C007A11112200EB0017F8183C30491C84F87A11694600F000FC6D1CE5600F20A0770D
:20504C000827E7772E0E84F820602B0C84F821302A0A84F8222084F8235003E003200E2165
:20506C00A177E07706B0BDE8F081C046940F00202DE9F041064604F01BF82D4D8046A91984
:20508C0091F8ED00421C002881F8ED204AD1294C04EB8604277807F03F003F2801D0FFF776
:2050AC00E7FF607800F03F003F2801D0FFF7E0FF668837F07F001AD1F80911D24FF0805474
:2050CC00D4F8B801406901463046884704F5DC742068406B0146304688470128F8D121E00F
:2050EC0005EB8605D5F80011012088471AE04FF08054D4F8B801C069014630468847D4F848
:20510C00B801406A014630468847D4F8B801C06A0146304688470121074A084811600168BC
:20512C008908FCD3404603F0BFFFBDE8F081C0469012002080A90000282008602820084085
:20514C002DE9F0412C482B4908602F482430FEF7EFFC2E4C0025032004F1180141F80C5F8D
:20516C00401E8D60FAD1241F062004F14C010A46401E22F80C5BFBD10820204F0880204ADE
:20518C008F602049121D22F00303CF1A6762E3612362E66904F12008944618460A4601E014
:2051AC0026F8025BB142FBD8B910E82700EB810121F8045C4FF6FC761F8006EA0C0300F19E
:2051CC00E807D21A676106EA0201EC39A0F8E810284600F0CFFDA061D8F80000606101F0CB
:2051EC009FF802F051F902F0A1FA03F011FF2846BDE8F081CC180020FD720000858600003E
:20520C00A3250020483F0020C0070020001500202DE9F041DFF8B080044698F800001F464A
:20522C0015460E46ADF1380D012804D0FFF730F94046012101704EB166603DB1A56003F0F0
:20524C0037FF224A117819B103F02EFF002038E0491CC9B2117003F027FF01251FB96846CF
:20526C0003F096FC6F46386820607868E060387A2074F8686061386900B1A0610021782233
:20528C0004F1200000F0B6FE05A800212422082303F0EEFE04F138008DF82C50002105AA2D
:2052AC0003F0E2FE05A800212422082303F008FF04F1700006490B94002205AB03F0FCFEC4
:2052CC0020460EB0BDE8F081E3180020A2250020B18E0000F8B503F06BFD03F075FD044690
:2052EC0004F00C000C2845D0E0081ED202F0D8FF234E376805460120014603F03CFA316833
:20530C006943884211D21F4C8220B0FBF7F0291A204603F0C5FE204603F0BEFE0120FDF700
:20532C0011FF204603F008FA25E0200922D21648610939BF016821F00101016841F00101FC
:20534C0002460160D2F898004FF0805440F00300C2F89800D4F8B8018069014620208847DA
:20536C00D4F8B801094C806B2168804701202060206800E030BF03F021FD01F03DF8F8BD28
:20538C00D0AC00009C1200208C2108402C200940F8B50D46EEB2290824BF27494D40274B0A
:2053AC00B400DFF89CC0195900EA05020CEA020200F4E02C85EA0107BCF5E02F00EA07076E
:2053CC0021EA0001C7F3006742EA010201D1510E14D300F4E0210F4310D002F4E027B7F57D
:2053EC00A02707D0B7F5803704BF22F4003242F4A02203E022F4803242F4C0221A51114C12
:20540C00C10D04D3C5F38052A4F1D0018A55000E10D303F04DFE290E03D201220021B2409B
:20542C0002E00122B2401146236893431943216003F03AFEF8BDC046006000A00010084096
:20544C00007F077FD02002402DE9F0410E462A4990461C4606AF8C4672680878BB885178D6
:20546C003F881278002502EB012242F62321521A2AD0521E052A19D9921F0DD0263A35D133
:20548C00072F31D8C7F10700984298BF83B20CEB070000F1080121E0B84225DBC01B9842F4
:2054AC00D8BF83B22380DCF804100BE0F06803F083FB80B2B84217DBC01B9842D8BF83B236
:2054CC002380F168C9190AE0082F0DD8C7F10800984298BF83B20CEB07010F31238040464E
:2054EC001A4600F0A9F903E0072501E025800A252846BDE8F081C0461C1100202DE9F04FBE
:20550C00064609AF92468B46002EADF1140D3888D7F8088002933D7903903FD0BBF1000F26
:20552C003CD0181C3AD0B8F1000F37D01D480178002431E0A0008719305A4FF6FF71814201
:20554C0026D0BB7823B302980399C268934504D0491E00F11000F8D11AE05FEA000917D0D0
:20556C00B878410809D30095CDF804803888012152464B4600F028FBB878800808D30095A6
:20558C00CDF804803888022152464B4600F01CFB04480178641CE4B2A142CBDC05B0BDE8E4
:2055AC00F08FC046280C00202DE9F04F09AF1C468A46ADF1140D97F8049002903F880392F7
:2055CC00084601F019FC00264FF0FF081F49049038B1401E18BF0A2034D1084600F1040B68
:2055EC0002E0084600F1020B0190C7B93D19022D13DA2DB9B9F1180F0FD0B9F1120F0CD0B1
:20560C00DAF80C0003992246C01900F015F91DB1DDF81080ABF8005002E00D2600E007267D
:20562C00B8F1FF0F0DD00198806850B1056845B1E419A0B20090049A039B029841F21011DC
:20564C00A847304605B0BDE8F08FC046E0150020F8B503F02DFD224C0746A06910F4602FC4
:20566C0025D0A069400CC6B2700807D2B00803D2F00828BF022602E0012600E00026751DD6
:20568C0068B201F0EDFAA16906F111020120904081433846A16103F007FD04EB8600876868
:2056AC0047B1606810A20CCA2946B84702E0384603F0FAFCA06918B10A48002103F01AFA93
:2056CC00E07F80080BD367692FB1606808A20CCA6FF00101B847E07F00F0FD00E077F8BD49
:2056EC008C24002014240020000000000000000800000000000000802DE9F04114460F46F8
:20570C0003F0D6FC1FFA80F81F480068007808B903F0A4F8E7B138684FF0FF3518B14028B4
:20572C000AD3810B08D17E681EB1310A04D0310E02D1B9680F2908D93DB10CB12846207062
:20574C000820FFF7C1FB002418E07968BA6803E04FF480700122014602F01AFC0B49012047
:20576C0008600B4908684008FCD30A4800684168022088470CB1002121700446404603F054
:20578C0093FC2046BDE8F0814CAC0000A802504208800240CC010010F0B520480127F842A8
:2057AC0001D001F039FC204D204F214EBD4206D203CD0478A4003459401CA047F6E71D48C2
:2057CC00002800D08047164D164FBD4202D210CDA047FAE7F0BD03251BE0416808300A1CE7
:2057EC002A400BD11A1C2A40AB4305D0046804300C600431043BF9D1131C05D004780130F9
:20580C000C700131013BF9D1021C2A4001D0A84304300368002BE0D17047C046FFFFFFFF50
:20582C00000000000000000088B10000E8B1000048B1000059C50110002A4AD05FEA000CC9
:20584C008B071CD1830722D1102A08D370B4103A78C978C0103AFBD270BC103238D0042A89
:20586C002CD3082A05D30C2A24BF08C908C008C908C008C908C092072AD0920F22E00B7876
:20588C000370491C401C521E22D08B07F7D1C30714D18307D8D0121F12D308C903801B0C9A
:2058AC004380001D121FF8D20AE008C903701B0A43701B0A83701B0AC370001D121FF4D277
:2058CC00121D05D00B780370491C401C521EF9D160467047FEB584460C4608AF207839888B
:2058EC00FF26022833D1606847780078002500EB072042F60217C01B20D04DF2EF67C01B87
:20590C0008D0401E18D1A9B9142B11DC114601261A4609E071B9142B0ADCD9B21046FDF7E3
:20592C0031FE2E4614221049E068FFF785FF11E00D250DE00B250BE00A2509E00091012072
:20594C0021460190604600F05BFE054600E00125FF2E06D00548006818B1016809B13046E9
:20596C0088472846FEBDC046B20F0020A01300202DE9F8432020EFF3118780F31188214CE5
:20598C00A068012103F040FB4FF001094FF0000865692168A4F81C906A1A2168A4F81E802D
:2059AC00461B401A904227D387F3118840462D18361A4846294603F023FBB042F7D9202115
:2059CC00EFF3118781F31188E18B012903D14046294603F015FBB0F1FF3F06D0A169801B78
:2059EC00814238BF081C291801E0A069411903F003FBA4F820902560A4F81C8087F311882B
:205A0C00BDE8F883780100208B4208BF824204D90B1C021C002100207047002B08BF002A33
:205A2C000BD10B1C021C00210020002B08BF002A1CBFC943C04301F026BDF0B51C461546BC
:205A4C000B46024600200021B4FA84F6202E04BFB5FA85F62036B3FA83F7202F04BFB2FAC2
:205A6C0082F72037F61BB6F1200727BF05FA07F400257F42B4403EBF25FA07F73C43B54023
:205A8C00A34208BFAA4201D3521BA341404149416D0845EAC4756408761EF1D5F0BD70472B
:205AAC00B0B50446A768ADF1280D5FBB0C2000F061F9071C1DD0684600212422082303F076
:205ACC00FFFA002306976A466168ADF810301848059303F08DFA386070B90820ADF824007F
:205AEC000C25ADF8265009A802F0DAF9384602F053FB6FF0030018E0E06878602069B860FF
:205B0C00A7600AE002F0C6FE0546386802F014FE2069B860284603F005F83868616803F088
:205B2C00BFFA386803F0B8FA00200AB0B0BDC046818D00002DE9F843DFF87C900F4604462D
:205B4C004FF0FF31484603F06FFADFF870801D4800210AE0FF2A07D00368934202D958F83E
:205B6C0022600EB1002421E0491C1FB117F82120FE2AEFD100202060012660600546A06074
:205B8C000EE0FF290BD0636806FA01F048F8214018430B4960601268204601F0D1FF6D1C12
:205BAC0027B107EB85021178FE29EAD1484603F037FA2046BDE8F883C82400203023002066
:205BCC00007FC767702500202DE9F04380462248001F046807AF1D4691460E46ADF11C0D48
:205BEC004CB106A8009042464FF6FF711B230120A047024600E00022059242B30020009055
:205C0C00BDF818000190FF2402947C680DF1120329464046A047041C14D16889ADF81000E3
:205C2C00700805D302F008FD1B210346009102E01D2000903B7840464A4604A901F012FAD9
:205C4C00041C05D004A81B2102F04CFE00E01524204607B0BDE8F083501800202DE9984358
:205C6C0003F026FA1F4CDFF87880814604F1E000007850B94446A068014602208847074697
:205C8C00102001F0EDFA2FB320E000F0DDFD002820460FD1144909683222B2FBF1F101B96B
:205CAC00012100F13004204603F0FAF9204603F0F3F90FE044460022A16880F8E0200220C2
:205CCC0088470746102001F0CBFA1FB1A068014603208847484603F0E7F9BDE89883C0467E
:205CEC003CAC000090120020D0AC000070B51E4DAC68064602F04AFE4FF47A71001B484374
:205D0C00030C02F023FB2969401A48BF404240F6B831F618B14210D306280EDAE9688C42AB
:205D2C000BD8286848B1114A091B51438A0C02EB1141884288BF011C08E00D49486840089F
:205D4C000ED208687D2100F0FF004143C82905D3B1F57A6F88BF4FF47A6103E0C82101E06C
:205D6C004FF4FA61084670BD1C25002040420F00AC3F0050F8B5001D84B214F0030002D0F8
:205D8C00241A241DA4B202F085FD1A49102C02464F690A61C8BF8F69388800231E46C10B12
:205DAC00CD0319D126B984420ADD3B46012617E01988091889B28C42198011DC1F460846EE
:205DCC009FB1001B80B20428B4BF3C88385344F400443C803F1D08E080F40040002680B2A4
:205DEC003F1838880028DAD10027104602F09AFE3846F8BDFC1400202DE9F04198461646C2
:205E0C000F46044603F040F90546384602F01CFA42463146071C03D1284603F031F924E055
:205E2C00F87F10F0070F19D112487B68984202D07B682366786004F1580080E80600284689
:205E4C0003F01EF904F138004FF0FF3103F0ECF804F1680797E80300BDE8F081284603F05C
:205E6C000FF9F87F10F0070FFBD102200021BDE8F081C046A56E00001CB5042002F0A8FCB8
:205E8C00022818D0032816D016480068C0F38150032814BF41F288324FF47A721248144CB5
:205EAC00016854342046B2FBF1F103F0F9F8204603F0F2F81CBD03200C4C009000214FF085
:205ECC0040521C23204601F03BF9012000214FF4007209230090204601F032F9022002F011
:205EEC006FF81CBDB43F0050D0AC000000A00C40901200202DE9FF410E4605461A4C718895
:205F0C00E08A81420CDCB188814209DBF088218B884205D13089618B884208BF18271FD058
:205F2C00052001F031FB77888046F188B388ADF80270A08AADF806100C4AADF800003789E3
:205F4C00ADF8043011216846ADF8087001F0FBFE071C05D1A57304F1F000414601F07AFC91
:205F6C0038460090BDE8FF81280C0020F98E00002DE9F843884603F09BF81B4D6C7881464F
:205F8C0002F004FDE60006EB4416761906F1B8073860A888A6F8BC00A888401CA880B8F806
:205FAC000E00A6F8BE0008F110004EC808374EC70FC887E80F00AE7800271EB92878A042FD
:205FCC0008BF0127641CE4B2202C1CBF6C70002002D100206870044607B12C70A87048467E
:205FEC0003F062F8BDE8F88308020020002213460A46194671B510F0030F0BD0002A82BF56
:20600C0000F8011BB2F1010210F0030FF6D1002A08BF71BD11F0FF0141EA0121042A18D35B
:20602C0041EA0141082A0FD30E46102A08D30C460D46B2F10F0312F00F0272C0103BFCD8AC
:20604C0012F0080F18BF42C012F0040F18BF40F8041B12F0020F18BF20F8021B12F0010FCE
:20606C0018BF017071BD704738B5054601201A4C68712879B0B902F00DFC2178002904BFC5
:20608C006FF00704051C15D0491EC9B2217039B902F048FD606802F03BF80020687118E00A
:2060AC00054613E002F0F6FB05462078FF2805D16FF00604284602F035FD0BE0401CC0B21F
:2060CC000128207002D1606802F039F8284602F029FD0024204638BD5C18002070B5064633
:2060EC00B079F4680628A4F10C042CDA3079062829DA02F0CFFB154DB27991000C3501EB55
:20610C00C20149194968E1B102F00CFD30792071B0796071307AA071B179880000EBC100C3
:20612C004019F1684068083002F04CF8B179880000EBC10040194068406802F071FF002002
:20614C0070BD02F0EFFC6FF0020070BD3C15002038B519491A4C00204822C1F8F30F94F8A4
:20616C00E200C1F8FF2F20B3012817D0022807D003281ED151F8310C00F024F80B2016E099
:20618C0051F8315C2846FDF705FB40F2FF50A84202D8801CA842F1D2082008E051F8310C97
:2061AC0000F0F4FA054800780028E7D0052084F8E400FDF747FF38BD39400C404AAC0000E2
:2061CC009012002038B51A4CA0F5C060D4F8B810C4F8D4000029B8BF49420028B8BF404279
:2061EC00814220DAB4F8BC00124D30214FF47F4208230090284600F0A3FFB4F8C00004216E
:20620C004FF4F80212230090284600F099FFB4F8D00020214FF440620A230090284600F0BD
:20622C008FFF012000E0002084F8D80038BDC0469012002000A00C4038B50546880F26D3DE
:20624C0001F038FA1248F9F74FFF12480078012803D005F1380002F0E3FE0F4800240460C9
:20626C00022001F0ADFE1120FEF72EFE287C10B90E20FEF729FE09480A49094A0470087860
:20628C00147020B108480C70042102F033FC38BDFD4D0000E31800200000046099250020EF
:2062AC009E2500209C250020E02300202DE9F8438146EFF31188202080F31188174D154C47
:2062CC00134F012605F11C000660A4F114000660F86A016A14208847D9F81000810C14BF91
:2062EC00000C04202060386802682321002090470948066054F8180C20F4C02040F480309E
:20630C0044F8180C2E6088F31188BDE8F883C04684010010182009408002244300002443E3
:20632C00B0B5ADF1400D02F0B3FE044600213C220823684602F058FE1148416806918168F2
:20634C00006804900F480068002205900E480891694602F045FE071C0DD002F09BFA05461A
:20636C00384600F0C1FD30B1284602F0DBFB204602F082FE01E002F0CFFD10B0B0BDC04624
:20638C00B4A8000000150020518C000030B5401E4FF00004ADF12C0D0AD0401E04D0401EBC
:2063AC0020D1FDF74FFE1DE000F0D8FA044619E001A821462422082302F082FE06940D4DB6
:2063CC00ADF8144009490794012201AB05F1780002F072FE064A23462C2105F19C00009301
:2063EC0002F03AFE20460BB030BDC046396700005D61000090120020164880B507683FB33F
:20640C0015498B6803EA5300C00E21D2134A106880081DD2486880081AD21068096810F0C5
:20642C00050F4FEA114101F0F00101F5E0710AD1B9420DD2190F38BF40F00100D90E38BFA5
:20644C0040F0040003E0B94202D920F00500106080BDC04628500940AC3F00500000094036
:20646C0010B502F025FE1149097829B110490C6802F01AFE204610BD02F016FE02F07EFB06
:20648C000FA20CCA02F006FB0A4A126800231B184FEA020408A044EB010490E80600C918D8
:2064AC0042EB04021046001C10BDC0469B2500200430044054250020000000127A000000DB
:2064CC0000093D00000000002DE9904190460F4602F0EEFD0246154803788324391C4046D9
:2064EC000BD0491E02D0491E13D010E00C490978012906D00B49098807E00B490B1D1F689D
:20650C000FB9802406E04968898B018002E0032400E00370104602F0C7FD2046BDE8908153
:20652C0098250020A8240020302500209B250020F0B50F461749144605461122ADF1140D40
:20654C006846FFF779F900210F222046FFF752FD0F263A2017E00F2E03DA761E04F8010BE0
:20656C00F6B2297809111DF8011004F8011B15F8011B01F00F011DF801107F1EB61EFFB2FC
:20658C00F6B204F8011B1FB1042EE4DA06B1207005B0F0BD60AA0000F8B5844640F6FF749C
:2065AC001CF8013B002210E0481B401E10F8015B7F1E01F8015BF9D103E01CF8010B01F890
:2065CC00010B521C5B08082AEADA5808F5D21CF8010B1CF8015B05F00F07FF1CC5F303152F
:2065EC00122F45EA001508D11CF8016B300A24BF1CF8010B60F3DF16BF19AC42D4D1F8BD0C
:20660C00F8B506AF3E8805465EBB022B27D150781478BE8804EB002434EA06071DD1C868C7
:20662C0006682846314602F057F800280CBF0020807884420FD02846314602F04DF848B9ED
:20664C0031464FF6FF7002F047F8002808BF112008D0058084700020F8BD8020F8BD0D200A
:20666C00F8BD0B20F8BDFEE7B0B5074602F020FD114905460878D8B1401EC0B20870B8B96C
:20668C000E48082102F036FA97B10D4C2068703002F052F80C4920680968C068094C3F1A24
:2066AC002046B7FBF1F102F0FBFC204602F0F4FC284602F0F9FCB0BDA1250020E0230020D8
:2066CC008825002048240020D0AC0000D0B5044602F0B2FC00F008FC071C08BF6FF0020427
:2066EC001FD002F0D7F80146A2880F480023243030F80C6F5EB902804760A268826023733A
:20670C00786820610024084602F00CFA09E0964208BF6FF00204F6D05B1C062BE8D302F09A
:20672C00FBFB2046D0BDC046181500201648144A144908B5E4300078801E0A2807D8DFE839
:20674C0000F01814100614100614100609C002F077FC11E010688008FCD250688008FCD2AC
