:20000000004D002051470000D1550000D1550000D1550000D1550000D1550000D1550000F7
:1C002000D1550000D1550000D1550000D1550000D1550000D1550000A9590000DE
:20003C002DE9F04F0128ADF1140D40F0F280DFF81492D9F8DC00012840F0E9800220C9F8F6
:20005C00DC0005F0F1FE0290012004F09BFA20B101210646C9F8DC10D5E005F0D5FE03908C
:20007C006E484FF00008C0F80080012005F0A0FB012818BFCDF8008004D1404603F094FF58
:20009C000120009066486E4CC0F800801934D4F8FF0F112005F034FF00280CBF46460126CD
:2000BC00102005F02DFF08B146F002060F2005F027FF08B146F004060B2005F021FF30B178
:2000DC00584800685849006B0246088890470A2005F016FF0028404618BF01204FF0805B4D
:2000FC000BF5DC7528B128685049006B0246088890474F480127076028688069014646F05B
:20011C00200088474B48076005F0F4FE00F001010191400815D2484805F0B5FE8246BAF195
:20013C00040FF8D0BAF1010F06D1DBF8D801406802464148032190474049086820F003000A
:20015C000860404600F080F82868D4F8FF1F806B8047019801280ED0BAF1010F06D1DBF8FC
:20017C00D801406802463448394690473349086840F0030008602A480760286840690146E8
:20019C00304688470B2005F0BBFE28B128682649C06A0246088890470A2005F0B1FE28B1CD
:2001BC0028682249C06A024608889047204807600322C9F8DC201F4BC3F800802868406BBE
:2001DC000146304688470128F8D1042004F0DAF9124807601A48D4F8FF1F01688909FCD3C3
:2001FC000098012802D1384603F0DEFE05F07BFE082004F0C7F906460398C9F8DC7004F0D0
:20021C00D5FD03F099FD029805F0BCF802E0042600E00126304605B0BDE8F08F0C4009402D
:20023C0000022243B8010010EE610000EA610000282008608001044300400340242208404F
:20025C0014100940B02400202DE9F84F82467A48DFF8D89135380068800880F0D88005F0E0
:20027C0055F8054678480830D0F8008000244FEA2876761C5FEA98500AD2C5F13E0015F1F6
:20029C000A0F4FEAE000D8BF08208642B8BF061C634FD7F87C01C0F3046005F0EDFD834633
:2002BC003868C0F3044005F0E7FD06EB0B020090162A05DA12F10A0FB8BF6FF0090200E028
:2002DC001522584B584F02F01F0141F4F8511980396811F0030F18BF0124C90828BF44F0BC
:2002FC000204BAF1000F18BF44F00404494691F90730EB1A052B04DA8B79A34208BF8888EC
:20031C0064D0DFF82CE10F2DA5F10F0C25DB0CEB0513A3F1F00C4FEA2C27072F88BF0727E6
:20033C003E46062E88BF06265EF82600042303EB86037646F3581B1A03F0FF06E00824BF5D
:20035C00C3F307200644A00824BFC3F307400644600828BF06EB136601E0002637465EF8F5
:20037C0027E0E0080EF0FF0324BFCEF307200344A00824BFCEF307400344600828BF03EB49
:20039C001E630098B6B2ACEB07277E43801A06F1800603EB1623D8BF0120342208F0FF07F0
:2003BC0042437A43B2FBF3F04FF6FF72824238BF101C802D80B2888005DA15F1800FB8BFE0
:2003DC006FF07F0500E07F25CD718C71194A12681F280A604FF0000208D340F2FF118142B0
:2003FC0006D24008521C8142FBD301E01F208880124F11490F38000942EAC00247EA02006E
:20041C00C1F8FB0F0026C1F8FF6FBDE8F88F0D4F0B4E494608203760891D0870BDE8F88F37
:20043C003C1100506E62084024220840F82300209C130050082009403500094000E7A48029
:20045C0030100940FDFDA400AC3F00502DE9F843814605F042FD002100B901216B4E306885
:20047C000028FCD06C4D01242D1DEF6A346009B105F039FDDFF89881C7F3072008F1BC01EB
:20049C00086005F02AFD002100B9214630680028FCD02F68346009B105F025FDC7F3844075
:2004BC00C8F8C00005F019FD0146002001B92046014630680028FCD0ED69346009B105F0A2
:2004DC0012FDC5F38120C8F8D000B9F5C061C8F8B81000F0968098F8D80068B9C8F8D4107E
:2004FC00D8F8C000C8F8C800D8F8BC70C8F8C470D8F8D060C8F8CC60D8F8D410D8F8BC604C
:20051C00002954BF02206FF00100454605F1C8031A6801EB41014018411000EB917002EB83
:20053C00A0021A60D5F8C810C5F8C46000291CDD1E293DDDD5F8CC0030B93429B4BF1539DA
:20055C001E21C5F8C81025E02A29BABFD5F8C8000B381E20C5F8C800D5F8C4003F28B4BFD4
:20057C00401C3F20C5F8C4001FE0D5F8CC00032812D011F10B0FC6BFD5F8C8000B30201CD1
:20059C00C5F8C800D5F8C4000028CCBF401E0020C5F8C400032009E011F1150FC6BFD5F8F3
:2005BC00C8001530201CC5F8C8000020C5F8CC00B5F8C400174E30214FF47F4208230090C2
:2005DC00304603F097FF009404214FF400321123304603F08FFFB5F8C80004214FF4F802D0
:2005FC0012230090304603F085FFB5F8CC0020214FF440620A230090304603F07BFFBDE849
:20061C00F883002088F8D800BDE8F88300800C40B024002000A00C4000A00C402DE9F04FBE
:20063C00ADF1840D209000F071FD03F03FFF0024012804D105F0C4F9022808BF01245949A4
:20065C000868C0F38150012805D151F80C1C0120090E884004435448007804F0A7FEDFF84F
:20067C004C81DFF84CA1C8F8000030B15246FF2107467F1E02F8011BFBD120990968002559
:20069C0001F0FF02FE2A1BD0DDF880C052462B46012701F0FF06FF2E0BD0B04203D907FA26
:2006BC0006F6344201D0022079E001F0FF01354353545CF8041F5B1C01F0FF06FE2EEAD185
:2006DC00092001F0A1FB3B49209824220823086001A8002105F06EFC4FF0010901AA3E4890
:2006FC008DF81C90494604F0B9FCD8F800303BB33A4E00274FF0040BBA4609FA07F004424A
:20071C0018D1054204BF07F0FF0141F4C04104D027482099C05D51F82010274801F0FAFEB3
:20073C00F8B24FF0FF3105F06DF8D8F80030C6F800A001E0C6F800B07F1C361D9F42DCD3FF
:20075C000AA800213022082305F0FEFB1B4D1D4A2878002410210AAB12901948009403F03C
:20077C009FFB16A828220823214605F029FC686816AA16491C9014481D94234603F03EFCD1
:20079C00134A52F80D0C494620F4F85040F4005042F80D0C0F4BC2F8FF1F2046196021B0D9
:2007BC00BDE8F08FB43F00506824002054240020B023002058240020007FC76718660000B8
:2007DC00D02300203D58000034230020594500000D3009400800094030240020682200204B
:2007FC002DE9FC415E4C574D574EDFF860815A4F94F8E410481E0B2861D8DFE800F07B2C86
:20081C0043062343062343067664042907D001220A2945F8212C14BF0220032004E02021A0
:20083C00012045F8211C024684F8E200002045F8390C0827C5F8FF7FC5F8F37F45F8392C7E
:20085C00BDE8FC81052914BF09200620002584F8E400356070E094F8E1700120383D002FFE
:20087C00C5F81B0004BF0620002102D00021F160032084F8E400032045F8010C316030681D
:20089C00800859D294F8E400012503280DD00021404660220523009103F02CFE94F8E4007C
:2008BC00062814BF0A200720D1E702200090002160220523404603F01DFE0420C7E705F03A
:2008DC003FFCBDE8FC812249002622480E60012505600E2001F02EFA022004F0E7FA84F8F1
:2008FC00E45084F8E360BDE8FC81002038600C2578601FE019480068006801462020884780
:20091C002C3D41F61D560F2000214FF4C072072345F8010C4046C5F803600225009503F01A
:20093C00E9FD404600214FF4C072072303F0F0FF0120386084F8E45004F1780005F08EF93B
:20095C00BDE8FC8139400C4038600C4000A00C402C500C4004800C4034600C40A00100109B
:20097C00B024002003462DE9F04F2020ADF12C0D80F3118805F058FA089005F045FA0990FA
:20099C00002005F011FA4D49424D07904C48496A2A68006800F0FF0051F820403C48AB4611
:2009BC0000260788E36017E07268A90001EB05118918C96811B12046884738686D1C5BE07A
:2009DC006968B00000EB06104018816819B120468847DBF80020761CB242F1DC2E482F4E00
:2009FC00DFF8BCA0DFF8BC90DFF8C080016807B3306801421DD050460068014204D14846DF
:200A1C0000680088014214D02948A3680568009307980190B4F912000290E06803900022A9
:200A3C0004920592434606921A881F4B18682346A847002585F31188A16860688847202052
:200A5C0080F311881B4801689FB13068014210D050460068014204D14846006800880142C0
:200A7C0007D015484746104B06683A8818682346B0475F4638685E46A84295DC079805F056
:200A9C0093F9099808990BB000EB0120BDE8F08F2868000020660000646600006C660000CF
:200ABC0068660000706600007C660000266800007866000060660000746600000C28002034
:200ADC0004ED00E04B4B2DE9F04F04469868ADF11C0D03900025A5831D80D8680490DC60A0
:200AFC0018690590A06A1861606A9860206A6062012005F059F90690284680F311883E4835
:200B1C003E4E0788306817E07968E80000EB05104018016911B12046884732686D1C52E038
:200B3C007268E90001EB05118918C96819B120468847304600686D1CA842F1DC3048DFF896
:200B5C00C4B0314EDFF8C4A0DFF8C490DFF8C4800168CFB158460068014215D03068014213
:200B7C0004D150460068008801420DD02A48A36805680093069800220190434602921A8851
:200B9C004B4618682346A847A268E06821699047224801689FB15846006801420FD030683A
:200BBC00014204D1504600680088014207D01C4847464E4605683A8830682346A8470F4F5F
:200BDC003A6800253E46AA429EDC202080F31188069805F0E9F80749059E049C039A012037
:200BFC000F4608803D463E613B46EC6007B09A60BDE8F08F30290020366800003866000083
:200C1C000867000014670000106700001867000024670000346800002067000004670000BF
:200C3C001C6700002DE9F04FADF11C0D04A804F061FDDFF814A1DFF81491DFF81481454EF4
:200C5C00464D474F012818D13E4854460168208898B14846006801420FD04046006801427A
:200C7C0003D130680088014207D005983C68009039482A88049B0068A04704A804F04AFD71
:200C9C00012818D1374854460168208898B14846006801420FD040460068014203D13068FE
:200CBC000088014207D03C6805982B4F00902A88049B3868A04705F0B7F806902A482D4931
:200CDC000468081905F020FADFF8A490DFF88880B346AA4607462AE0B86904A9054604F025
:200CFC00EDF901281FD1184B20481E880168D6B116480068014216D015480068014204D1AC
:200D1C00DBF80000008801420DD00498D9F80060009005980190A86A0290BAF80020D8F86B
:200D3C0000002B46B047384605F0F0F9074611480019B842D0D1069804F024FB07B0BDE86C
:200D5C00F08FC0467C6700003E680000906700008C67000094670000A46700003C680000D5
:200D7C009C670000806700008867000084670000A06700005C2600202DE9F04F0446ADF1AD
:200D9C002C0D1898089004930392DDF85C901698A669079015980291002E06901498276935
:200DBC00059000F0828008980A3EC01C4FEA9008B8FBF6F000F1010AA56908F10A0085428E
:200DDC002EBF45460A3DA8EB050805F0C3F80990606905F10A0607EB8601884203D82046FC
:200DFC0002F024FE2769002F55D060694FEA860B0BEB070188424ED9218C228DC6F3080040
:200E1C008004490502F01F0240EA1140024342F0C042684647F8042B04F015FF0198029B83
:200E3C0047F8040B009A180C0104039B47F8042B43EA0100059A069B47F8040B049947F8E1
:200E5C00042B089A1004000C47F8043B40EA8540AD0047F8041B079B47F8049B2A4647F8DE
:200E7C00040B494647F8043B384601F0ABFD208D7F19F105A4F820B0401C80B200F01F02DD
:200E9C00208542EA114141F080403860E06A2761A944C76202E0606A401C6062099805F042
:200EBC00FAF8BAF1010A87D127610BB0BDE8F08F2DE9F041424C474D8046C8F38140401EA6
:200EDC0002D0401E2AD025E0284620300168880C20D24FF4804020603A48D0F802204B0AD6
:200EFC00C1F3033703F0800322F08F02134347EA0302C0F80220D0F801300E1266F30303F1
:200F1C00C0F80130026801F0E70722F0E70247EA020102E04FF00041204601602A4E06F1BC
:200F3C0008000068C0F3C0070FB94020A0624FF40070206404F020FF40F0300084F8C80093
:200F5C00C8F3815038B3401E03D0401E1ED002211DE0012004F02CFC07460420394603F041
:200F7C00E7F9042004F024FC8742FAD1366826F07F4003F083FF15480068036807214FF02A
:200F9C006022300E98474FF4806020600321042003F0CEF906E00420012103F0C9F90C48BC
:200FBC0003F06CFF284600680B4947F6180700F03F0084F8CB0F094E0F803068BDE8F08118
:200FDC0040A00C400A600840A83F0050B4010010BD3786006C13005070B00C402C200940D1
:200FFC002DE9F04104463F480F46016840480088ADF1480DC8B13F480068014215D03E48E6
:20101C000068014204D13D480068008801420CD0354866890568009600230197384E02935B
:20103C00384B328818682346A847B7F1FF3F09D047B12E490CAB03A83A4604F08FF903A947
:20105C00022001E0002103202F4D0F91EFF311882E688DF840002025361985F311886089AD
:20107C0080BB002F04BF88F31188002036D004F0DBFE074604F0BCFF0E900CA9816101F0FE
:20109C003BFD30460CA904F08FFF9DF840000024022802D10F9802F061FC88F311883846D1
:2010BC0004F070F9EFF3118385F311880F9810B105F024F80F940E98846183F311889DF8E5
:2010DC0040000BE06089401E60810F9818B105F015F800200F9088F31188012012B0BDE8D4
:2010FC00F081C046E4660000FC660000D152000032680000F0660000EC660000F4660000F2
:20111C003068000000670000E06600002DE9F041444C94F8E700ADF1280D00286FD1394F61
:20113C00387B01250021242284F8E7507E6884F8E6000823C4F80C6101A804F01DFF002625
:20115C0004F10C00069601ABADF814602E490796324603F011FE2D4904F1300001AB3246C4
:20117C0003F00AFE2A4904F1540001AB324603F003FEB868014628468847DFF89C80254880
:20119C007B7B0078D8F80410C1F381571BB1032F03D184F8E150032F16D0022F14D0012F79
:2011BC0026D103201D4C009031464FF040521C23204603F09FF9009531464FF4007209239B
:2011DC00204603F097F913E0022003F087FE032F0CBF4FF47A7142F2107111480068543454
:2011FC00B1FBF0F1204604F08BFF204604F036FDD8F80000C00802D2304603F06FFE0AB0D9
:20121C00BDE8F081F4650000FF310000D92C00008D30000068240020B03F005000A00C407A
:20123C00D8660000B02400202DE9FC47994690460E46044604F08EFE8246228C3B492569AC
:20125C00208D3027520500F01F0040EA1240014345F8041B6846278404F0F5FC019845F8D8
:20127C00040B009A310C404645F8042B40EA014045F8040B484628600A982D1D45F8040B75
:20129C000B9845F8040B0C9845F8040B0D9845F8040B0E9845F8040B0F9845F8040B1098D5
:2012BC0045F8040B208D401C81B22148278401F01F022185104328606069A84228BF2561C3
:2012DC002DD2E268A81A010A00F47F4300F0FC0501F47F4141EA106141EA032141EA056104
:2012FC0021F0780141F0A0001060E368608D258D03F11007401CC5F30D0182B22761100420
:20131C001606628540EA8100010E00F47F4041EA164141EA002141EA856058602569E06AD3
:20133C00C562504604F0B7FEBDE8FC8700003050000600402DE9FE4F344E4FF0000BA6F870
:20135C0008B010E0D8F80420E00000EB04108018C26822B1284639469047D8F80010641C3D
:20137C0022E003F04DFA70680028FAD07068B5697469F827B0FA80F1A7EBC10040198442CC
:20139C003ED23569706104F0BFFE074630618BF31188DFF87C801F4B2048D8F80010D3F8BC
:2013BC0000A00488A1465C46A142CBDCB9F1000F1DD01B4800681AEA000F18D0194800689D
:2013DC001AEA000F05D11848006800881AEA000F0DD01148AB6A0468009314490197B86A44
:2013FC00134B02900A88186851462B46A047202080F3118807F1100105F1100004F0ECFCA9
:20141C00308900289BD1BDE8FE8FC046902700204066000040670000586700003A680000A6
:20143C004C6700004867000050670000386800005C6700002DE9F84F00298346009106DD51
:20145C00024600980021401E42F8041BFBD10098DFF8C880DFF8CC900028C8F800B012DD7B
:20147C002F48009C0768002537F8020B38B1D9F80000AE003158002088474BF80600641EC2
:20149C0005F10105F0D1284F41460120D7F80080C880B8F1000F22DD4FF0000A00980127FD
:2014BC00002817DDABF104060446002556F8040FB0F1FF3F04D0D9F80010695888473060CA
:2014DC000021B0F1FF3F08BF01212D1D641E01EA0707EBD137B90AF1010AC245DEDB04A02C
:2014FC0004F046FA0D4900200860BDE8F88FC0467864632E72756E74696D652E5374617253
:20151C007475703A20276D61785061737365732720657863656564656400C0462C2A002026
:20153C00F4670000F8670000F06700002DE9FC47994690460E46044604F00CFD8246228C5F
:20155C0035492569208D2027520500F01F0040EA1240014345F8041B6846278404F073FB32
:20157C00019845F8040B009A310C404645F8042B40EA014045F8040B484628600A982D1DE8
:20159C0045F8040B0B9845F8040B0C9845F8040B208D401C81B22148278401F01F022185FC
:2015BC00104328606069A84228BF25612DD2E268A81A010A00F47F4300F0FC0501F47F41A2
:2015DC0041EA106141EA032141EA056121F0780141F0A0001060E368608D258D03F11007B3
:2015FC00401CC5F30D0182B2276110041606628540EA8100010E00F47F4041EA164141EAC0
:20161C00002141EA856058602569E06AC562504604F041FDBDE8FC87000020500004004022
:20163C002DE9F04115460446A869A060686A98460E4608B9304800686062286A002806BFAB
:20165C002E480768071C04F08BFCEB698BB918B1C1194742491E0F40E7610246E169606ACD
:20167C00434602F0A9F82062206AB0B90120BDE8F081002804BF2362391C0AD04142C0188C
:20169C00401E084020623F1AE8693F18E761E0690140E1614FF0FF306062A6622869E062E6
:2016BC0068692063A86A6063A88DA087A08F012803D11449C868401CC86013480068002861
:2016DC0009DD81000E4800680022434604F0A8FCA063A06B68B12046414600F0FDFB034641
:2016FC00404604F00DF9002814BFD81C0020BDE8F0810220BDE8F0816C6700007067000047
:20171C006467000090270020406600002DE9F0432027ADF15C0D87F311882F4C01E003F06C
:20173C006FF860680028FAD06068F826B0FA80F1A6EBC100A1694018606104F0E5FC2061A0
:20175C0000232381022004F02FFB984688F3118822481F4D06882968B1461E460BE06A6867
:20177C00F00000EB06108018C2681AB12169404690472968761CB142F1DC16480168B9F194
:20179C00000F19D016480068014215D015480068014204D114480068008801420CD01348A4
:2017BC0022694346056800930192906A104E02903288104E3068A84787F3118804F098FA44
:2017DC00216907A8103104F007FB17B0BDE8F0834066000040670000902700203A680000D8
:2017FC004C670000486700005067000058670000386800005C6700002DE9FC479946904684
:20181C000E46044604F0A6FB8246228C32492569208D1427520500F01F0040EA12400143EC
:20183C0045F8041B6846278404F00DFA019845F8040B009A310C404640EA0140274945F882
:20185C00042B803945F8040B48462860208D2784401C82B202F01F0328462285194340F87D
:20187C00041F6169814228BF20612DD2E268801A010A00F47F4300F0FC0701F47F4141EABD
:20189C00106141EA032141EA076121F0780141F0A0001060258D608DE368401C03F11007BD
:2018BC00C5F30D0182B2276110041606628540EA8100010E00F47F4041EA164141EA002138
:2018DC0041EA856058602069E16AC862504604F0E2FBBDE8FC87C0460000145000030040EA
:2018FC002DE9FC47994690460E46044604F032FB8246228C32492569208D1827520500F04D
:20191C001F0040EA1240014345F8041B6846278404F099F9019845F8040B009A310C40464F
:20193C0045F8042B40EA014045F8040B484628600A982D1D45F8040B208D401C81B2214875
:20195C00278401F01F022185104328606069A84228BF25612DD2E268A81A010A00F47F4341
:20197C0000F0FC0501F47F4141EA106141EA032141EA056121F0780141F0A0001060E36813
:20199C00608D258D03F11007401CC5F30D0182B2276110041606628540EA8100010E00F4DE
:2019BC007F4041EA164141EA002141EA856058602569E06AC562504604F06DFBBDE8FC879D
:2019DC0000001850000300407CB50446084601F029FF344E02461821304603F0FDFB03F007
:2019FC0003FF40F2FF32002380B22C210090304602F080FD04F0C8F91C210246304603F0AC
:201A1C00EBFB03F0E3FE02461421304603F0E4FB04F006F802461021304603F0DDFB204619
:201A3C0001F05EFE02460C21304603F0D5FB204603F0DEFF1C4D400040F020002870204662
:201A5C0003F0E2FF40F010002870204603F072FD02462821304603F0BFFB204603F0ECFFFE
:201A7C00400040F06000E870204603F0F1FFC00040F0800005F8080C204603F0F5FF80008B
:201A9C0040F47C40A5F89300204603F0BBFB02460821304603F0A0FB4FF48000A5F2091112
:201ABC0008607CBD00A00C4049A10C402DE9FE4F81460E4629482A49006800EB0108404603
:201ADC0004F022FB4FF0FF37DFF898B0DFF898A001903CE0044604F019FB0190A08A012853
:201AFC0035D1B9F1010F2AD1E068864227D11F481F4A256901681388002D04BF0020A08273
:201B1C0002D0E0684019E060B3B11A480068014212D019480068014204D118480068008872
:201B3C00014209D01648A369056800935B461A88534618682346A847A169E0698847A08A03
:201B5C00012804D1E068801B874288BF071C01988045BFD13846BDE8FE8FC046BC6600008F
:201B7C00A02800202C680000D4660000B46600002E680000C4660000C0660000C866000065
:201B9C00D0660000F8B50F1C054637D104F04CF9EFF311840646202080F31188287D0128B2
:201BBC0011D1284604F092F9286C04F088F920B12749EA68486890434860A86918B1C06871
:201BDC0008B104F09BFA287D022808D1A86930B104F07CF9A869C06808B104F08FFA287D90
:201BFC00032803D0284603F051FA02E0284604F06DF984F31188304603F0C4FB012F25D018
:201C1C00686AB0F1FF3F03D0296AEA6904F02CF9104C2068022F19D0002817DD002F14BF09
:201C3C00FF1E071C002F0BDD002660688019416909B1284688477F1E06F11806F5D1206809
:201C5C0082000548A96B006804F00EF9F8BDC0469027002040660000646700002DE9FC41CC
:201C7C0017460E46044604F075F98046228C2F492569208D520500F01F0040EA124001439E
:201C9C0045F8041B10202084684603F0DCFF019845F8040B009A310C384640EA014045F89A
:201CBC00042B234945F8040B208D401C80B200F01F022085114329606069A84228BF256133
:201CDC002DD2E268A81A010A00F47F4300F0FC0501F47F4141EA106141EA032141EA0561FA
:201CFC0021F0780141F0A0001060E368608D258D03F11007401CC5F30D0182B22761100416
:201D1C001606628540EA8100010E00F47F4041EA164141EA002141EA856058602569E06AC9
:201D3C00C562404604F0B7F9BDE8FC8100001050000200402DE9F843044604F00BF9814618
:201D5C002D48021992F8ED10491ECFB2002F82F8ED704BD12B4D05EB84052E78698836F098
:201D7C007F0788461AD1F10911D24FF08054D4F8B801806901464046884704F5DC7420683D
:201D9C00406B0146404688470228F8D121E000EB8800D0F80011002088471AE04FF08054A4
:201DBC00D4F8B801006A014640468847D4F8B801806A014640468847D4F8B801006B01463A
:201DDC004046884701210D4A0D48116001688908FCD306F03F003F2801D0FFF7ABFF68789D
:201DFC0000F03F003F2801D0FFF7A4FF484604F052F9BDE8F883C046B02400202820086030
:201E1C0028200840C06100002DE9F041064604F0A1F82D4D8046A91991F8ED00421C0028D7
:201E3C0081F8ED204AD1294C04EB8604277807F03F003F2801D0FFF7E7FF607800F03F0007
:201E5C003F2801D0FFF7E0FF668837F07F001AD1F80911D24FF08054D4F8B801406901466E
:201E7C003046884704F5DC742068406B0146304688470128F8D121E005EB8605D5F80011AD
:201E9C00012088471AE04FF08054D4F8B801C069014630468847D4F8B801406A0146304603
:201EBC008847D4F8B801C06A0146304688470121074A0848116001688908FCD3404604F085
:201EDC00EAF8BDE8F081C046B0240020C061000028200860282008402DE9F84389462E4AFB
:201EFC002C4906464B4603F049F93061484603F007FDA8BB294D4FF00108002486F81480D2
:201F1C002868B461274601E07F1C2868B8422ADC2448B168224A006800291AD4B168404678
:201F3C0017468840F060B168B86904F031F8306403F07AFFEFF311840546202080F31188AB
:201F5C00304603F039FE84F31188284603F01AFA06E01146F46040183064314603F0A6FCB7
:201F7C000020BDE8F883B06BFB00696840F8274003EB071040184268002AC5D030464946B4
:201F9C009047484603F0BCFC0028BDD03846BDE8F883C046E5580000E925000040660000CB
:201FBC009027002044670000294A2DE9F04180460126284816600768002FFCD0294C2A4F9E
:201FDC00C020443C206007F1080001682348890804D20168090C41F0F00100E072211E4D4C
:201FFC0085F85412002111638768384601F0FAF840463946FFF7E8FC1C48B038816D40F2B2
:20201C000F226FF31F418A4212D901680068C1F30363C0F3034003B15B1E072805D00628BA
:20203C000EBF0720801C00F00F0043EA001028703846FEF73DFF0E4814380068C16802201C
:20205C00884740202060064F3E60BDE8F081C046101009409402224302600840AC3F00505D
:20207C009404604244600C40A83F00506C130050B4010010FEB50446274801682748008883
:20209C00D0B127480068014216D026480068014204D125480068008801420DD02548A768BC
:2020BC000568002600976069214B01901F4F02961A8838682346A8472020EFF3118380F34B
:2020DC001188A08B20BB0120A08303F09DFE0746A06A214603F068FF1849A0694A681043EC
:2020FC00486083F31188144D2A680026B24203DC87B901F0ADFFFEBD6968F00000EB0610C7
:20211C004018816811B1204688472A68761CEDE783F31188FEBDC0460C6700003668000092
:20213C0014670000106700001867000024670000346800002067000038660000302900204D
:20215C002DE9F04703F070FE82462F482A4C0568601903F0D9FF4FF00009074619E0B869A0
:20217C00216803F08AFFEFF311880646202080F3118803F096FE3169F160C6F8109073697F
:20219C007061C11AB16088F31188384603F0BEFF07466019B842E2D1504603F0F3F8206EAF
:2021BC00EFF311852027401C206687F3118803F078FEA16A6162C4F82890E66AE062276D7E
:2021DC00C4F85090E764636D6065811B2162C11AA16485F3118809480068000B0AD3084866
:2021FC000068000B04D2074800680088000B01D3FEF718FDBDE8F0875C260020906700009D
:20221C008C67000094670000886700002DE9FF4104462E480E4601682D48DDF82880C069D7
:20223C006682174650F82620244800681D4690420DD024480068009000220196204F0292A9
:20225C0039888F23404603F069FB012033E000290BDD1D48006889000022434603F0E0FEFB
:20227C006061002808BF022025D0304602F084FAA76068696060286AB0F1FF3F08BFFF20A6
:20229C0020740026E660288B00280EBF301C0120E0600146A88C10B141F00200E060414697
:2022BC00204600F03FFB0346404603F029FB002814BFD81C301C0090BDE8FF8194660000A2
:2022DC00266800005C66000088660000206600000C2800201EF0040F14BFEFF309816946BB
:2022FC008869EFF3118102B400B5DFF89CE0F047284A116801EA000010605DF804EB1EF0D0
:20231C00080F03D101BC80F31188704704BC1EF0040F14BFEFF309816946A1F1200114BFE1
:20233C0081F309888D464A604FF08070C8611A488861184B1868086040F20110186070479F
:20235C0002B401B4EFF3148100291CBF002282F3148802B402B4DFF834E0F04701BC01BC40
:20237C0000281CBF022181F3148801BCDFF820E0F04704484FF08051016001BC80F31188BA
:20239C0000BF00BF04ED00E0810900007F600000AD6000002C2800205D230000F8B503F0C8
:2023BC009CFD03F0A7FD044604F00C000C2845D0E0081ED202F052FF234E376805460120A7
:2023DC00014603F0D7F931686943884211D21F4C8220B0FBF7F0291A204603F091FE2046B5
:2023FC0003F03CFC0120FDF71BFE204603F042F925E0200922D21648610939BF016821F078
:20241C000101016841F0010102460160D2F898004FF0805440F00300C2F89800D4F8B801DA
:20243C008069014620208847D4F8B801094C806B2168804701202060206800E030BF03F041
:20245C0052FD01F023FAF8BDD8660000BC2400208C2108402C2009407CB504462448016836
:20247C0024480088B0B124480068014212D023480068014204D1224800680088014209D091
:20249C0022486689204B056800961E4E1A8830682346A8472020EFF3118580F311881C4833
:2024BC0000680319001903F00AFDB0B903F0BCFC0646184603F072FD044601202074E06802
:2024DC0008B103F0D7F8A068294600F0DBF885F31188304602F056FF7CBD207A40083ABF49
:2024FC006089401C0120608185F311887CBDC046E866000032680000F0660000EC66000099
:20251C00F46600000067000030680000F8660000E0660000F8B50D46EEB2290824BF27497E
:20253C004D40274BB400DFF89CC0195900EA05020CEA020200F4E02C85EA0107BCF5E02F05
:20255C0000EA070721EA0001C7F3006742EA010201D1510E14D300F4E0210F4310D002F4D6
:20257C00E027B7F5A02707D0B7F5803704BF22F4003242F4A02203E022F4803242F4C022C5
:20259C001A51114CC10D04D3C5F38052A4F1D0018A55000E10D303F0DDFC290E03D20122F7
:2025BC000021B24002E00122B2401146236893431943216003F06FFDF8BDC046006000A046
:2025DC0000100840007F077FD0200240F8B503F00FFD0546234C22482268078800260AE057
:2025FC006168F00000EB06104018016911B1284688472268761CB242F2DC1B480168B7B132
:20261C001A480068014212D019480068014204D1184800680088014209D01948AF6A174E83
:20263C00154B04680097328818682B46A04703F0FBFBEFF311840646202080F31188284623
:20265C0000F05AFA03202875284602F01FFD84F31188284603F02BFD304602F093FEF8BD97
:20267C003A68000040660000386700004C67000048670000506700005C67000038680000DB
:20269C0054670000FEB50446214DE368206C6E680F46214603F088FC33436B600120207521
:2026BC00288187F311881B481B4D07882A6800260AE06968F00000EB06104018816811B181
:2026DC00204688472A68761CB242F2DC13480168D7B113480068014216D012480068014286
:2026FC0004D111480068008801420DD01148A76A056800260097A0680D4B01900B4F029609
:20271C001A8838682346A847202080F31188FEBD902700203A680000406600003C6700003A
:20273C004C67000048670000506700005C67000038680000586700002448B0B5046800F015
:20275C00C9FD2020EFF3118380F3118803F04AFC1F4A116803F091FC00699768874238BF12
:20277C00381CB7F1807F0DD8002F04BF0021081C12D06425790805FB0010B0FBF7F0C0F1E7
:20279C00640008E0381A6425C109380A05FB0101FD09B1FBF5F0002150679160116783F39A
:2027BC001188FFF7CDFC0B480068000B0AD30A480068000B04D2094800680088000B01D347
:2027DC0001F0E8FA04B1A047B0BDC046A86700005C260020906700008C6700009467000065
:2027FC00264838B550380468B4F1FF3F08BF002403F06AFA2248174900251038056001208C
:20281C0008601549086001F0CBFC1448006820B1134800682046FFF7C7FB12481249056026
:20283C00124C0A686FF35B4244EA0200086010490868C0F30130012806D10A680D48104051
:20285C0040F400320A6008600B4908680028FCD138BDC0465C600C4008220443800128430B
:20287C00000120438C210840482003400000390104000940FFFFFCFC0C0068426C13005036
:20289C0094046042F0B520480127F84201D001F075FD204D204F214EBD4206D203CD0478D1
:2028BC00A4003459401CA047F6E71D48002800D08047164D164FBD4202D210CDA047FAE747
:2028DC00F0BD03251BE0416808300A1C2A400BD11A1C2A40AB4305D0046804300C6004311B
:2028FC00043BF9D1131C05D0047801300C700131013BF9D1021C2A4001D0A843043003686B
:20291C00002BE0D17047C046FFFFFFFF0000000000000000506A0000606A0000386A0000E0
:20293C00FD4200002DE9F041234C06462068002588462F4601E06D1C2068A84225DCB6F9BE
:20295C001200F168034689080BD3317C202908D31B48406A194940F82360184603F0E4F810
:20297C0006E0B16803F0E0F8B6F9120040427082317C184602F062FFF068400802D318460B
:20299C0001F01CFFF7603D4612E07069AB00616840F8257003EB051040184268002ACAD060
:2029BC00304641469047404602F0AAFF0028C2D02846BDE8F081C04620660000F122000029
:2029DC000C280020002A4AD05FEA000C8B071CD1830722D1102A08D370B4103A78C978C0F6
:2029FC00103AFBD270BC103238D0042A2CD3082A05D30C2A24BF08C908C008C908C008C9DB
:202A1C0008C092072AD0920F22E00B780370491C401C521E22D08B07F7D1C30714D18307F0
:202A3C00D8D0121F12D308C903801B0C4380001D121FF8D20AE008C903701B0A43701B0A3B
:202A5C0083701B0AC370001D121FF4D2121D05D00B780370491C401C521EF9D160467047A9
:202A7C002DE9F8432020EFF3118780F31188214CA068012103F03CFB4FF001094FF00008D2
:202A9C0065692168A4F81C906A1A2168A4F81E80461B401A904227D387F3118840462D18CF
:202ABC00361A48462946FFF701F8B042F7D92021EFF3118781F31188E18B012903D1404644
:202ADC002946FEF7F3FFB0F1FF3F06D0A169801B814238BF081C291801E0A069411902F0D5
:202AFC00C9FEA4F820902560A4F81C8087F31188BDE8F883A02800202DE9F84304461B48D1
:202B1C001C4D0168D4F84090E7681B48D5F804800088B0B119480068014212D01848006889
:202B3C00014204D1174800680088014209D01048A36A06680093144B1A88144B1868234647
:202B5C00B047204603F0C2F9484603F0B8F910B128EA070068602869844204BF0020686177
:202B7C0001272F8102202075BDE8F8833467000054670000902700203A6800004C67000008
:202B9C004867000050670000386800005C6700008B4208BF824204D90B1C021C0021002095
:202BBC007047002B08BF002A0BD10B1C021C00210020002B08BF002A1CBFC943C04301F0CD
:202BDC008CB8F0B51C4615460B46024600200021B4FA84F6202E04BFB5FA85F62036B3FAF3
:202BFC0083F7202F04BFB2FA82F72037F61BB6F1200727BF05FA07F400257F42B4403EBF1B
:202C1C0025FA07F73C43B540A34208BFAA4201D3521BA341404149416D0845EAC4756408F6
:202C3C00761EF1D5F0BD70472DE9F843DFF87C900F4604464FF0FF314846FEF7D1F9DFF854
:202C5C0070801D4800210AE0FF2A07D00368934202D958F822600EB1002421E0491C1FB1F2
:202C7C0017F82120FE2AEFD100202060012660600546A0600EE0FF290BD0636806FA01F081
:202C9C0048F8214018430B4960601268204601F0F1FF6D1C27B107EB85021178FE29EAD102
:202CBC004846FFF7D9FB2046BDE8F8833024002068220020007FC767542400202DE99843C6
:202CDC0003F048F91F4CDFF87880814604F1E000007850B94446A068014602208847074636
:202CFC00102001F04FFC2FB320E000F0F7FF002820460FD1144909683222B2FBF1F101B9AB
:202D1C00012100F13004204603F0FAF9204602F0A5FF0FE044460022A16880F8E0200220CA
:202D3C0088470746102001F02DFC1FB1A068014603208847484603F0AEF9BDE89883C04612
:202D5C00F4650000B0240020D866000038B50D4604461F491D480A680068510917D31D49F1
:202D7C000968430902D20B885B0910D312090ED3000902D20888000909D3E06A38B91648E5
:202D9C000088002140F22F120B4601F067FCE16AA0688861B4F906000D6200224A6004F137
:202DBC0024038B62C86103F0BFF94862E0684861E0680825C860E0680D7230220A600861EB
:202DDC00E068C862E06A00F0A9FB38BDB0670000B4670000B86700004468000000B5ADF142
:202DFC003C0D1A48FDF71AFC1A481B49FFF71CFF174908601648006810B90CA002F0B8FD81
:202E1C00684602F036FF4FF4807008900220069012480790134912486A46002301F042F998
:202E3C0002F0CAFF00200FB000BDC0464572726F7220696E697469616C697A696E67206262
:202E5C006F6172642070696E730A00C0106600007C230020EC230020982900202020002067
:202E7C00E4220020055C0000F8B503F020F90646B1601069F0605069306190691F46B0F187
:202E9C00FF3F08BF05200025012470617069B58304FA00F0B061D069114B706271693062EE
:202EBC00586903F075F8B0620F480068002809DD81000C4800682A463B4600F07DFCF0620D
:202EDC00F06A58B13046394601F0BAF90446384602F016FD002814BFA41C2C1C2046F8BDEF
:202EFC00302900202C67000038660000B0B503F0F5F8002808BF002030D01948194C076883
:202F1C002268002509E06168E80000EB0510095811B12846884722686D1CAA42F3DC002FEF
:202F3C000BDD3C4600250020294602F009FF0021FEF7D2FF6D1C641EF5D10B48006858B1E1
:202F5C000A4D07460024286B50F824000021FEF7C3FF641C7F1EF6D14FF0FF30B0BDC046F1
:202F7C0060670000406600007467000090270020B0B51E48164AC1691648C2F8081D076815
:202F9C001548D2F8083D98420ED06FB1134B1B6800240F2C2CBF1D1C0568001D641C0D60F6
:202FBC007F1E01F10401F4D10D48D2F80C7D0D4D0168202427F47F4000EB01204019C2F8F4
:202FDC000C0D094B82F8224D1868C2F8140DB0BD00E000E080660000000000009466000017
:202FFC00986600000000FA058C6600000C280020F8B50E4605461446A969EA691F4620469C
:20301C00FFF7E0FC64602FB1EA6920463946082301F048FBE468D6B9E8686969AA68079BD6
:20303C0002F0FEFF071C08BF002020D002F0F2FF69683960696849687960696849680F60F2
:20305C0069684F6002F008FF07F1080605E06A6930460021083A00F08BF82868B0F1FF3F62
:20307C0018BF3060286908B1616831503046F8BD1CB5042002F09CFB022818D0032816D06D
:20309C0016480068C0F38150032814BF41F288324FF47A721248144C016854342046B2FBF2
:2030BC00F1F103F02DF8204602F0D8FD1CBD03200C4C009000214FF040521C23204601F061
:2030DC0019FA012000214FF4007209230090204601F010FA022001F0E9FE1CBDB43F005097
:2030FC00D866000000A00C40B0240020F8B51A4E32680546084601282DD0002A18DD0028E1
:20311C0014BFC01E101C00280CDD044600277068C019016909B128468847641E07F114078D
:20313C00F5D132680E4869690068920002F09CFEB5F91200002854BF041C4442204601F06D
:20315C001BFB08490968204602F0EEFC0348406A002140F82410F8BD206600000C28002028
:20317C008866000094660000002213460A46194671B510F0030F0BD0002A82BF00F8011B8F
:20319C00B2F1010210F0030FF6D1002A08BF71BD11F0FF0141EA0121042A18D341EA0141A1
:2031BC00082A0FD30E46102A08D30C460D46B2F10F0312F00F0272C0103BFCD812F0080F9F
:2031DC0018BF42C012F0040F18BF40F8041B12F0020F18BF20F8021B12F0010F18BF01703E
:2031FC0071BD70470246184808B50068C0F3046002F042FE00EB2270401C162805DA10F1C1
:20321C000A0FB8BF6FF0090000E015200F49104B00F01F0040F4F85008801868800803D2E2
:20323C000C490020086001E042F040620A49D00E930E80F0010000F00100086083F00100D0
:20325C0000F00100886008BDB81200506E6208400000094094042A4300002043B0B519480B
:20327C00194C07682268002509E06168E80000EB0510095811B12846884722686D1CAA42B6
:20329C00F3DC002F0BDD3C4600250020294602F04DFD002100F0D4FF6D1C641EF5D10B48B2
:2032BC00006858B10A4C07460025A06950F82500002100F0C5FF6D1C7F1EF6D14FF0FF3013
:2032DC00B0BDC0462867000038660000306700003029002070B52020EFF3118680F3118838
:2032FC0002F0DFFD034602F023FE174AC8B1401E10D0401E1BD1556828681C1A02F078FE3B
:20331C00116802F0BAFE18B101690919016155682B600CE05169906A5361C018401A9062F7
:20333C0005E0D16B106DD363C018401A1065D06EB2F88050D366191A15B9906840189060C4
:20335C0086F3118870BDC0465C26002038B519491A4C00204822C1F8F30F94F8E200C1F849
:20337C00FF2F20B3012817D0022807D003281ED151F8310C00F024F80B2016E051F8315C7C
:20339C002846FDF763F840F2FF50A84202D8801CA842F1D2082008E051F8310C00F03EFC06
:2033BC00054800780028E7D0052084F8E400FDF717FA38BD39400C4002660000B0240020AD
:2033DC0038B51A4CA0F5C060D4F8B810C4F8D4000029B8BF49420028B8BF4042814220DA9C
:2033FC00B4F8BC00124D30214FF47F4208230090284601F07FF8B4F8C00004214FF4F80236
:20341C0012230090284601F075F8B4F8D00020214FF440620A230090284601F06BF80120BD
:20343C0000E0002084F8D80038BDC046B024002000A00C402DE9F8438146EFF3118820206E
:20345C0080F31188174D154C134F012605F11C000660A4F114000660F86A016A142088479F
:20347C00D9F81000810C14BF000C04202060386802682321002090470948066054F8180CD3
:20349C0020F4C02040F4803044F8180C2E6088F31188BDE8F883C0468401001018200940FA
:2034BC008002244300002443F8B50B4601464C69601E024218BF221C1846631E10EA0307EC
:2034DC001CBF2044C01BCF6801F10C0C7FB1531E796803EA070613EA070518BF561B84190B
:2034FC008C4206D9BC46DCF80070002FF0D10020F8BD091ABA198D1B3EB98E4204BF386830
:20351C00674608D03968674602E07E6025B1396810180160456038601046F8BD98B504461D
:20353C0002F078FD84461848826845F25551914203D08160002101604160216830291DD19D
:20355C00076837B90F490F68046007B90C6008E00F4679680029FBD1BC4202D07C600021B1
:20357C0061600A4B4268E7691968521C4260491C19601FB9406840F40040E061604602F0E3
:20359C006BFC98BDD4290020B4290020D82900201A4898B5D0F8781203680F0F03F0FF0399
:2035BC00802B28BF002300F081FF4FF0FF3478B1401E07D0401E012802D9801E19D01AE017
:2035DC00BFB118E0381C12D0801E14D1143311E03846401E0BD0801E07D0001F03D0401EFA
:2035FC0009D1163306E0152405E0142403E00A2401E00A335CB2204698BDC046A010005052
:20361C00B0B5202080F31188174C164822680768002509E06168A80000EB0510095811B181
:20363C002846884722686D1CAA42F3DC0F48416982694FF0FF34002F21F0070104600A440B
:20365C00A2F1080202610ADD00250020294602F045FB0021FFF766F96D1C7F1EF5D12046B9
:20367C00B0BDC04684660000206600000C28002038B58C460546EFF31181202080F311882D
:20369C00144CA26FE06F824298BF002307D9626B4301A3EB80039B18E26F501CE06781F3E3
:2036BC00118843B90C4800681C210022634602F0B7FC031C0CD021682846002202F0E1FC0D
:2036DC0006480088012803D12846194600F014FD38BDC0465C26002064670000406800001D
:2036FC0038B504461848174DC03002686B68C2F30351C2F303405B0813D22B681D0511EB8C
:20371C00257103D41029A8BF0F2100E000211B0410EB237303D4102BA8BF0F2300E00023F1
:20373C00184640EA011002F47F4102F0FF03222C41EA004143EA010024BF02F08042104358
:20375C0038BDC046AC3F0050B812005030B5401E4FF00004ADF12C0D0AD0401E04D0401E36
:20377C0020D1FDF73DF81DE000F06EFB044619E001A821462422082302F0FEFB06940D4D1A
:20379C00ADF8144009490794012201AB05F1780001F0F2FA064A23462C2105F19C000093E2
:2037BC0000F07EFB20460BB030BDC046793B000069330000B02400202DE9FF4198460746AB
:2037DC000C461346404602F09BF8054613B902F02DFC0346002F12BF381C0F4800681A4629
:2037FC002146434602F033FC061C10D11DB9404602F086F858B90A48006800900197074D86
:20381C000294298800223423404602F087F830460090BDE8FF81C046E867000048680000A5
:20383C00CC6700000146184880B5983000688A0CC0F38367C0F38F2022D241F3072100291F
:20385C000BD54A420021400805D17F0806BF0127381C4FF6FF70521EF5D1002910DD4FF694
:20387C00FF72400040F00100824207D2780040F001070F2F92BF01200F27101C491EF0D1C3
:20389C0040EA074080BDC046B8120050164880B507683FB315498B6803EA5300C00E21D2F8
:2038BC00134A106880081DD2486880081AD21068096810F0050F4FEA114101F0F00101F51C
:2038DC00E0710AD1B9420DD2190F38BF40F00100D90E38BF40F0040003E0B94202D920F09B
:2038FC000500106080BDC04628500940AC3F005000000940F8B5844640F6FF741CF8013B3F
:20391C00002210E0481B401E10F8015B7F1E01F8015BF9D103E01CF8010B01F8010B521C22
:20393C005B08082AEADA5808F5D21CF8010B1CF8015B05F00F07FF1CC5F30315122F45EAF5
:20395C00001508D11CF8016B300A24BF1CF8010B60F3DF16BF19AC42D4D1F8BDB0B5184C6F
:20397C000546208C002701281BD1A08BC8B9A068012102F0BDFB2168421A23686169C91A5B
:20399C0091420ED30127A968AA68AF820918E9606169091A914211D9E968104601F06AFFC6
:2039BC00B0BD5FB901F056FEA78BA968012F0844E8604FF00100A88208BFE083B0BDC04613
:2039DC00A0280020F8B570BB174C606848B3002080F31188202080F3118860686769266946
:2039FC00F825B0FA80F0A5EBC003DB1905E06769B0FA80F0A5EBC003DB199E4211D21846F6
:203A1C0002F0CCFA0746184602F059FA18B1B9696068884360603846FDF754F860680028F6
:203A3C00E5D100202080F8BD3029002038B5C168026901F1100393422AD20C68521A130A72
:203A5C0002F47F4503F47F43E41043EA126343EA052302F0FC0543EA056264F3C7020A60DB
:203A7C00038D448DC3F30D05220442EA85022406120E03F47F5542EA144201F1100442EA5F
:203A9C008522046142EA83624A60C16A0069C86238BD2DE9F84308AF3C880E1C99469046E5
:203ABC00054627D0A4B902F0B5FA56F8081C56F8042C116056F8041C56F8082C5160002187
:203ADC0046F8041C46F8081C02F0C6F9A6F10807B8F1000F08D0B9F1FF3F03D03046494663
:203AFC00C04701E03046C04724B9E8686A69394602F0BAF9BDE8F8833EB5684602F01EFA56
:203B1C0001984FF47A71B0FBF1F011490C68EFF311854443202080F3118802F0C2F90E4919
:203B3C00CA6E821AC866886880188860086F401C0867486E904288BF4A6685F31188886835
:203B5C00844204D80348008808B1FEF7F5FD3EBDAC670000426800005C2600201648144A1E
:203B7C00144908B5E4300078801E0A2807D8DFE800F01814100614100614100609C002F0CC
:203B9C00DFFA11E010688008FCD250688008FCD20AE008688008FCD306E008688008FCD206
:203BBC0002E010688008FCD3FCF71AFE08BDC04634600C4038600C40B02400200E4810B58F
:203BDC0001680E480088A8B10D480068014211D00C480068014204D10B48006800880142EE
:203BFC0008D00C480A4B04680B481A88036807480068A04710BDC046B86600002E68000037
:203C1C00C4660000C0660000C8660000D46600002C680000CC660000A0280020134910B501
:203C3C000A684BF2F5214843040AC2F38140012806D101F06BFB00F0ABFE604304EB90542E
:203C5C000C4901F1E500007830B90948006820F07F402418640802E0002081F8E5000648DD
:203C7C000460210C41600123836010BDB43F005010200940B02400203C600C4098B50B46EC
:203C9C00014618464B695C1E12EA04071CBF1A44D21B01F10C04C968234601E00B461968B9
:203CBC0009B18842FAD801604260186041B18218914205D10A68476802604A68B91841603B
:203CDC009C4209D059685918884205D101685F68196041687818586098BD704708B50120BB
:203CFC0001F066FD01281DD00F4834210122002300F00EFE002808BF002014D00B480068A2
:203D1C0001F018FB01F050FE0A4A93681168D060C01A074BA1EB91014343180C884228BFA7
:203D3C00011C1160012008BD00A00C408000001040420F0068230020B0B5144D28680004E1
:203D5C00070C21D001F0E2FA114991F90720824205DD10F1800FB8BF6FF07F00C8718C8893
:203D7C00BC4210D80A68D5F8D40F801A801C1F2888BF1F203F1B4008C7404FF6FF70E719BF
:203D9C00B84238BF071C8F80B0BDC04634100940F82300200E4810B501680E480088B0B1E6
:203DBC0010480068014212D00F480068014204D10E4800680088014209D002F01FF9034676
:203DDC00074804680548028803480068A04710BD786700003E680000A46700003C6800009A
:203DFC0098670000906700008C6700009467000070B504461148006815460E4680472B46AC
:203E1C003246B3F5807F88BF4FF480730C4D201268702C701E0AAB702946EE70F32000F0D8
:203E3C002FFE0021284600F03FFF06486E782C780068804704EB062420B270BDCC29002048
:203E5C004C240020D029002038B5134D95F8E100002410B91148007860B102F07BF895F821
:203E7C00E310002906BF012185F8E310012402F012F90CB1002038BD022001F02FF80E2057
:203E9C00FDF7C2FF01F0A4FA01280EBF0120002085F8E20038BDC046B024002002660000D5
:203EBC002DE9F041124C0F4690463021ADF1380D0646149D009102AA01462046019500F075
:203EDC0015FC3946424602AB30460095FEF79EF90746284601F014FD38B101212046054AED
:203EFC0000913B463146FFF7D4FD0EB0BDE8F08114640000093100002DE9FE43134C0646CE
:203F1C002068984617460D4602F0EEF8814629463A463046FFF7C8FA07462068494602F05D
:203F3C00E5F85FB90848006800900196054C029521880022DD23404601F0F0FC3846BDE858
:203F5C00FE83C0462A680000A4660000A86600002DE9F041134E071C0C461BD02020EFF3EA
:203F7C00118880F3118801F09CFF324605465368116818682E1A384602F07FF818B101691B
:203F9C008919016153681D60D068046088F31188BDE8F08101F085FF71680860F068046091
:203FBC00BDE8F0815C260020012838B51ED1012001F0FEFB01281BD001F00EFD0D4D0E485D
:203FDC000122322305F1E00100680A70B3FBF0F404B914463035284601F04CFB284621460B
:203FFC0002F08EF8284601F039FE01E000F028FE002038BDB0240020D8660000F0B5124C56
:20401C000F461D4628211346ADF1340D0646009102AA01460195204600F068FB394602AA01
:20403C0030462B46FEF720FF0746284601F068FC38B101212046054A00913B463146FFF71A
:20405C0028FD0DB0F0BDC046F46400000D42000070B5134C21692020EFF3118580F3118836
:20407C006068B0FA80F2F820A0EBC20062698018814204D30020208085F3118870BD01F0EF
:20409C00D3FE0646054801F084FB0020208085F31188304601F076F970BDC046AD42000061
:2040BC0030290020F0B5124C0F461D463C211346ADF1440D0646009102AA0146019520463F
:2040DC0000F014FB394602AA30462B46FDF7A8FA0746284601F014FC38B101212046054AA1
:2040FC0000913B463146FFF7D4FC11B0F0BDC04614650000A11B0000F8B50D46064601F06F
:20411C0093FE104C21680746304601F0B6FF10B1384601F037F90020E8602861A86001F05A
:20413C00C0FE68612168AE612A46304601F0A9FF054800681146001901F036FF384601F00B
:20415C0021F9F8BD5C26002088670000F8B501F001FF124C0746E06D401C0128E06518D19A
:20417C0001F09FFE0546A06B68B9E0686168006809686E1A60B1216801F07FFF40B1016948
:20419C008919016104E0A06A61694019401AA062E563384601F07FFFF8BDC0465C26002000
:2041BC000F4908680028FCD1104A131D0D49186820F0030001430C480068C0080CD2106895
:2041DC0010F0030F0AD041F003001860106800F003000328FAD101E041F001011960704786
:2041FC000C00684204000020B03F005000400340F8B5114D2A680646084601281AD0002A93
:20421C0018DD002814BF801E101C00280CDD044600276868C019416909B130468847641E72
:20423C0007F11807F5D12A680448F16A0068920001F01AFEF8BDC046386600002C6700005D
:20425C002DE9F041114C06462068002588462F4601E06D1C2068A842D8BF3D1C12DDF06A4D
:20427C00EB00616840F8257003EB051040184268002AEED0304641469047404601F040FB2E
:20429C000028E6D02846BDE8F081C04638660000F8B5124C60682669F825B0FA80F0A5EBD3
:2042BC00C00360691B18184601F078FE0746184601F005FE18B1B969606888436060384603
:2042DC00FCF700FC606838B16769B0FA80F0A5EBC003DB199E42E6D3F8BDC0463029002024
:2042FC00124938B58888D0B90D4D0120002488800AE0686850F824008047641C0CE06868F1
:20431C0050F824008047641C2868A042F7DC054800688047044D00242868A042E9DC38BD6C
:20433C0048660000EC670000506600002C2A00207CB5114D04460E46600807D3B0B2002142
:20435C00009001220B46284600F0D4F8A00807D3B0B20090002102220123284600F0CAF816
:20437C00E00807D3B0B2009000210C220223284600F0C0F87CBDC04600A00C40F8B50646BF
:20439C000F4D104F7388002417E0A20002EBC402921951689068D26852B9AF420BD00A78EC
:2043BC0055F822200346491C08461946904701E0FEF708FB7388641CA4B2A342E5DCF8BD1B
:2043DC00386A0000446A000040F8043D40F8042D40F8041D019940F8041D009940F8041D51
:2043FC000B4940F8041D81EA0101A1F1010140F8041D40F8041D40F8041D40F8041D40F857
:20441C00041D40F8041D40F8041D40F8041D7047E55D000038B50F4C2168024601F02DFE26
:20443C0005460D480088012802D1104600F098FB616BA94206D8A26F5001A0EB8200401807
:20445C00A84205D80548006829461C2201F00CFD38BDC0465C26002040680000646700000D
:20447C001048F8B50768002F18DD0F48048800260020314601F0E0FC0546286B2146E8608E
:20449C002846FEF763FCE9680022284600F0FCF9284600F0BFFC761C7F1EE9D14FF0FF3008
:2044BC00F8BDC046BC67000044680000104A1068C0F30F314BF69A10884207D111680B2060
:2044DC00B0EB117F14BF0020042070472430884208BF01200BD04BF64130884208BF032080
:2044FC0005D0213888420CBF02204FF0FF30704718130050B0B500EB4100102B04AF00F5A7
:20451C00007403D3103B00F50174120C3D889D4045EA024501F0E1FC002700B90127064A24
:20453C00394610680028FCD025600120106009B101F0D9FCB0BDC04600800C402DE9F8434E
:20455C0001F044FD0D4D2F688046A7B1DFF830900024012606FA04F018EA000F07D059F8EF
:20457C00240020B1036813B1214698472F68641CE4B2BC42EED3BDE8F883C046542400208B
:20459C006822002070B5104C0646204601F05AFD0025B0B9204601F093FD0446A0680642CB
:2045BC000AD0E068226900210346304698470546012D08BF012005D0204601F083FD041C46
:2045DC00ECD1284670BDC046B024002000B5EFF3038212F0FF0F0DD06A46A2F1200282F38A
:2045FC0009886FF0020E10604FF08071D1610849916170475DF804EB694681F3098880F368
:20461C0008884FF00200EFF3148180F31488704711460000F8B5054628690C46206000209E
:20463C006060A0600C480068064601F05DFDEF68014667B16068A2687B68C01860607B6865
:20465C00934284BF1A1CA2603F68002FF4D1304601F04CFDF8BDC046A8660000FEB50546DC
:20467C001446002B0CA00A4614BF0AA6061C2BB10A490F8817B1180C01F0CEFA08490968CB
:20469C0000912346019629460290002001F046F9FEBDC0463A2000C000C046C04E680000C5
:2046BC00C86700002DE9F8430446D1F80C900868D9F800601D461746A7EB05084246801B8C
:2046DC00824288BF021C2046FEF77CF9646008EB04002760B542E06004468CBF321C2A1C23
:2046FC004946FEF76FF92560BDE8F883F8B50E4605461446A969EA691F462046FEF762F9E7
:20471C0064602FB1EA69204639460823FFF7CAFF6A69E46830460021083AFEF729FD286814
:20473C00B0F1FF3F18BF3060286908B1616831503046F8BD0C4885460C4885446F46072040
:20475C008743BD460A486F4607600A48002803D07946491D8E460047FEF794F801F09CF96E
:20477C0001F04EFAFEE7C046004D00200003000044270020FD2700000F4A10280BD20F2835
:20479C0018BF002015D11069116900F0020021F0020111610DE01038012100F01F03C00884
:2047BC00994020F003001218D2F80001C2F88011084000BF7047C04600E000E00F4A10289C
:2047DC000BD20F2818BF002015D11069116900F0020041F0020111610DE01038012100F0FA
:2047FC001F03C008994020F003001218D2F80001C2F80011084000BF7047C04600E000E083
:20481C0008B50E480E49006881420ED058B9002080F31188009002E00098401C009000983E
:20483C000028F9D006E0804704E0002080F3118800F030FF202080F3118808BD68670000AF
:20485C00B156000038B52020EFF3118580F311880C4CA06B401C0128A06310D101F021FBAB
:20487C0002466068E1680068131A086830B1216801F003FC10B10169C9180161626185F3BB
:20489C00118838BD5C260020F8B5A02500230D600D4C4B602588B0F90630140612124FF6B7
:2048BC00FF7002EB14479EB22C062A1240EA07401D0602EB1442C860331203EB154362F388
:2048DC001F438B60F8BDC0464468000070B501F0A1FB06460B480C4C05682089012806D149
:2048FC000A496268206809688018891AA84720686168A847002060602081304601F0ACFA8E
:20491C0070BDC04600680000C0290020FC670000F8B51E4614460D18102E02D3103EAD1CBA
:20493C00240C01F0DAFA002700B9012707483B460768002FFCD02D88012101600BB101F03F
:20495C00D2FA2C403441A0B2F8BDC04600800C40B0B50F4601460D4883694B6044698C602F
:20497C00257800222046BE2D18BF01224FB1BE2D07D110F8015BBE2DFBD0001B1B1A5B1C6D
:20499C0000E000230B601046B0BDC0460C2800200D4938B5D1F8EC3209681B3800FB00F493
:2049BC0009060A1643F3072100FB01F519066043091661434243891201EBE50101EBA24018
:2049DC0000EB234038BDC046A410005084460B4880B5174602688A42604604D9084A52F86A
:2049FC002120904201D0022080BD002307B10123044A0020E03A535480BDC046542400204F
:204A1C0068220020E0200240B0B52020EFF3118580F311880A4CE06D401EE0650DD101F050
:204A3C0040FAA76B216DE26B002F0144A1EB0201216506BF61680860606185F31188B0BD75
:204A5C005C260020F8B50C480C4D0468281901F05BFB06460BE0B069296801F00EFB074622
:204A7C0001F01FFA7861304601F050FB06462819B042F0D1F8BDC046886700005C260020F9
:204A9C00D0B51E4603460B48082706600446037111F8013B7F1E637104F10104F8D136B1C2
:204ABC0012F8011B761E417300F10100F8D100BFD0BDC046001F00202DE9F0410F4604463A
:204ADC0001F008FB04F1280292E8600033462A46FEF75EF880460B4642462846314600F025
:204AFC00F3FF17B1303484E803004046BDE8F0810A4698B50B4913690968994238BF191C8C
:204B1C0041615369836092694F1E1F4003D0CC1B1B19121B8360B2FBF1F25143016101F0FC
:204B3C00C7F998BDB066000010B51C460B4601468A6060698B610861A069C861002088820B
:204B5C000548064A0068801800F0B0FE208A10B1084601F083F810BDBC660000A028002002
:204B7C0038B5044601F060F90A4B19680546204601F083FA40B101F0A9F919682046002216
:204B9C0001F07FFA012400E00024284600F0FAFB204638BD5C26002098B504460B480768BD
:204BBC0087B101F037FA08494A68531C4B600B68D4544A68974203D100224A6001270F81E4
:204BDC0001F04AF998BDC046C0290020FC67000010B5044601F01EFA09490A4B4A681B68CA
:204BFC009342D8BF002406DD0B6843F822404B6801245A1C4A6001F02FF9204610BDC046CC
:204C1C003C2A00201068000070B5044604F1280090E80C000D460021284600F055FF04F14F
:204C3C00300292E860002D1846EB0106290C3004014300F083F9383484E8600070BDFEE76C
:204C5C0010B503200021FFF773FB012000F0B0FD18B10648006800F06DFB00F0A5FE044C53
:204C7C00083C606000F052FB206110BD80000010702300200A4B10B51B6802F0FF04A342CF
:204C9C0006D9084C02F0FF0354F82330984201D0022010BD08461146FDF73CFC002010BDDA
:204CBC00542400206822002084460B48E0B50D460827014606680A797F1E01F101010CF895
:204CDC00012BF8D13DB136B1017B761E00F1010005F8011BF8D1E0BD001F002008B501F080
:204CFC00ABF9012801D0FFF7AAFF0848FFF770FF00F080FB00F0C6FB01F0B7F901F0DAF925
:204D1C00FFF7A0FE01F006FA08BDC046294F0000094910B500200A4C08600120C861143428
:204D3C002060216844F8280C04480068016A14208847206810BDC04600002443B001001039
:204D5C00182009400B4838B50468002C10DD00250020294600F0D6FF416882685218521E0B
:204D7C00491E8A43826001F0A3F86D1C641EEFD138BDC046AC66000070B50D460446242196
:204D9C00ADF1300D0091002001900748164602AA2146FFF7ABFC2946324602AB2046FFF78F
:204DBC00C3FE0CB070BDC0469464000008B5A0B92020EFF3118280F311880849486820B97E
:204DDC000020088082F3118803E082F31188FFF73FF901F029F800F0D5FA08BD30290020D3
:204DFC0038B52020EFF3118580F31188084CA06B401EA06308D101F054F8A16A6269091819
:204E1C00891AA1626368186085F3118838BDC0465C26002080B5012200218280094B41854A
:204E3C001F880185C268018402F11003036107B10221836823F00303A3EB8103D2182C3ACF
:204E5C00426180BD4668000008B503460846084909689A8142B10749096828B100F040FAC0
:204E7C0008B90548006800E00846986008BDC04620680000186800001C68000009490204CB
:204E9C0080B5120C41F8082CC0F3074041F8040C0120086004480768002FFCD0002008602C
:204EBC0080BDC04644600C4084088C4310B5044601F050F8084BE21892F8E810491EC9B24F
:204EDC0082F8E81021B99A680121A1408A439A6001F0E1F810BDC046B024002038B50446D6
:204EFC0001F038F8084A02F108031D680121A14012192943196092F8E810491C82F8E81034
:204F1C0001F0C9F838BDC046B024002010B500F07BFF00F089FF032000F046FF0648103047
:204F3C00006830B1034C204600F0F0FF204600F0F3FF10BD432C0000CC28002010B50C46C9
:204F5C0000F032FD211AB1F1004F08D8011B091DC90F05D1001DA04288BF041C00E0041DB3
:204F7C000148046010BDC0461820094010B51821ADF1200D0B9A009101460748019202AA40
:204F9C00FEF736F8041C04D002A900F0B2FF204600E0002008B010BD3464000010B5182111
:204FBC00ADF1200D0B9A009101460748019202AAFEF71EF8041C04D002A900F04DFC2046B6
:204FDC0000E0002008B010BD5464000010B5044601F00EF8616888420BD0074800684FF00E
:204FFC00FF310019FBF7FCFF01F002F86060002010BD012010BDC046A066000010B52421C3
:20501C00ADF1300D0F9A009101460748019202AAFDF7EEFF041C04D002A9FFF769FD204648
:20503C0000E000200CB010BD746400002DE9F041094C0746206815460E4601F055F88046CF
:20505C0031462A463846FEF719FE2068414601F04DF8BDE8F081C046A866000030B50D461C
:20507C00242304460021ADF12C0D074800931346019102AA2146FFF739FB294602AA204600
:20509C0000F024FA0BB030BDD464000010B5808F012810D12020EFF3118480F31188064916
:2050BC00C868401EC86004D184F31188002000F073FE84F3118810BD902700200A460A4961
:2050DC0008B5096800F0D9FF60B12021EFF3118381F31188C16811608068506083F31188A8
:2050FC00012008BD002008BD5C26002010B52821ADF1300D0F9A009101460748019202AA2F
:20511C00FDF776FF041C04D002A900F0EBFB204600E000200CB010BD3465000010B50446FE
:20513C000848006860B134B101E0FFF735FD14F8010B0028F9D10448008808B1FFF7C6FB4E
:20515C0010BDC046FC6700004A68000070B5064600F060FF084C6568002D09DD206800EBE4
:20517C00850050F8041C304688476D1E002DF5DC304600F0EFFB70BD3C2A00203EB50B4611
:20519C00046AC16921B1BE25491E04F8015BFBD1C16A0091016B0191C469016A09190C1F7C
:2051BC00816A2046FFF710F93EBD00B50021ADF1140D6846FFF7CCFB029803A981420390EC
:2051DC0008D9BE2203A9039802700398401C81420390F8D805B000BDB0B515460C1800F0D6
:2051FC007CFE002700B90127054A394610680028FCD025600120106009B100F074FEB0BD38
:20521C0000800C40202838BF07480CD307480C30016808038215920500F47C1001F00F018B
:20523C00104340EA0130704700803F408C13005008B50848006802210122FFF7C7FB06483E
:20525C0000F023FF0348006802210022FFF7BEFB08BDC0467C230020001BB70038B52020F0
:20527C00EFF3118580F31188064CA068002100F03FFF6169081AA169814238BF002085F39D
:20529C00118838BDA028002010B5182304460022ADF1200D064800930B460192214602AA6D
:2052BC00FFF724FA02A9204600F0FEFE08B010BDB4640000034610B52020EFF3118480F3EC
:2052DC001188187C022808D1184600F0FFFD0020187498682146FDF7D5F984F3118810BD86
:2052FC0007490A68824209D80649B1F900108918814203D90449098801B900207047C0466D
:20531C00146800004C6800004E6800000748816841F31002064991F900100068A0F5407077
:20533C0041430811121A803210127047285009400C13005070B5054600F0CFFD002400B9C4
:20535C000124054E30680028FCD0A847012030600CB100F0C8FD70BD00800C4010B50C460B
:20537C0001468A60002008618882054A0348CB6100688C61801800F099FA10BDBC66000028
:20539C00A028002010B570B9202080F31188064C208920B100F040FD08B1FBF7CBFF002041
:2053BC00208080F3118810BD90270020074810B50468FFF77BF804F07F04012804D100F033
:2053DC00FFFA022808BF641C204610BD4413005006490868002818BF012005D1044B402009
:2053FC00012218600020CA617047C04604800C402C500C40074808B51030006828B103487E
:20541C0000F084FD024800F087FD08BD71550000FD5A0000CC280020074810B5103000688F
:20543C0030B1044C204600F071FD204600F074FD10BDC046C3590000CC280020064808B586
:20545C00006830B10548406818B1818809B100F04FF84FF0FF3008BD58660000DC29002019
:20547C00074908B5283090E80C000020FDF790FB002908BFB0F1FF3F88BF4FF0FF3008BD3F
:20549C00907E00000648006840B10648406828B1818819B1017B09B9FDF7CCBF7047C0461F
:2054BC0058660000DC29002038B505460024064A0448009429684FF0FF33FEF7EAFA2C60FA
:2054DC0038BDC04654640000055E000010B50446107E207205480068618100210019FFF7A4
:2054FC00D3FE002020600120606010BDE066000038B50446EFF31185202080F31188FFF73A
:20551C0007FC2169204600F0E7FD85F31188002038BD38B50C46054601E0241A2D1844B19F
:20553C00012029462246FEF763FC002801DD8442F3D238BD202838BF002008D304480C30BB
:20555C000068C10C01F44071C0F38450084370478C13005010B5064C206900F0B7FD014651
:20557C00A06800B9E160A068401CA06010BDC046CC280020054808B541680548012208385F
:20559C00026048698969884708BDC046DC2900200C200940054808B5008818B100F0F2FC7D
:2055BC00034908604FF0FF3008BDC04624680000442A00201EF0040F14BFEFF309806846BB
:2055DC0085462DE9F00F68467146DFF804F0C046F1550000054A08B5526801231380044A88
:2055FC001268002AFDD0904708BDC0460C2800209066000038B50024054600940448296865
:20561C004FF0FF332246FEF744FA2C6038BDC0463464000038B50024054600940448296876
:20563C004FF0FF332246FEF734FA2C6038BDC0467464000010B500F05FFA38B1044CA068A4
:20565C0000F058FDA0614FF0FF3010BD002010BDA028002010B52020EFF3118480F3118850
:20567C0003488068002100F043FD84F3118810BDA0280020002181820449C06849698142B7
:20569C0003D10348006800F0E9BA7047A0280020DC66000038B5064D002404E0686850F893
:2056BC0024008047641C2868A042F7DC38BDC04630660000014608B50120054A009003483E
:2056DC004FF0FF33FEF7E5F908BDC046D4640000155E000010B548B9054C208920B100F073
:2056FC009BFB08B1FBF726FE0020208010BDC046902700202021EFF3118381F31188044AAD
:20571C00D16C0160916C416083F31188012070475C2600202021EFF3118381F31188044997
:20573C004A6A0260096A416083F31188012070475C26002038B500240546009404482968CD
:20575C004FF0FF332246FEF7A4F92C6038BDC04634650000054808B5026822B104480068A7
:20577C000021FDF705FD4FF0FF3008BDFC670000C029002002294FF0000204D0012808BF27
:20579C004FF47A7203E0012808BF40F2EE221046704710B5EFF31484002C1CBF002181F3C1
:2057BC0014888047002C1CBF022181F3148810BD042807BF4FF0C0421D234FF080521C23A0
:2057DC0001483421FFF7A4B800A00C400548BC3001680348084001F07C4108437047C046E6
:2057FC00FCFCFC00B81200500549983108680968C0F3870001F0030140EA01207047C04650
:20581C00B8120050002948BF0021044A02EB8000026861F3050202607047C046001008400A
:20583C000349044809680160034800F0B9B9C046E0200240E020026034230020102803D207
:20585C00042803D3024A00E0024A11547047C04614ED00E0F0E300E010B504460448006839
:20587C00012100220019FFF7F9FB0020606010BDA066000070B5054C0546A0680E46294686
:20589C0000F03AFC2561666170BDC046A0280020014608B501200090034800224FF0FF33CB
:2058BC00FEF7F7F808BDC046B46400002022EFF3118382F31188086042684A604268116068
:2058DC00416083F31188704710B5054C208908B1FBF730FD0020208080F3118810BDC0460F
:2058FC009027002010B50446C869216BA0600022E1602046FEF7C8FF2046FFF78BFA10BDB6
:20591C00054A12780021012A03D110B1C06800B1012108467047C046506800003EB5054CAF
:20593C00069D24680095079D0195089D0295A0473EBDC046D067000070B51D46049B0E4677
:20595C00FDF73AFF041C03D029463246FDF710FC204670BD0448008820B10448006808B17F
:20597C00FEF7B4BF7047C0464A680000FC67000010B5044600F04EFB2046FFF7CFFB024819
:20599C000068804710BDC046086800001EF0040F14BFEFF30981694601F1200114BF81F310
:2059BC0009888D467047704704480168436802688A42FAD1080440EA1340704708200940E7
:2059DC00044884380068C0F302400428C8BF4FF0FF3070471813005008B503200121FEF7FC
:2059FC00A7FCFFF7E1FF0149086008BD70230020222804D303480068C0F300707047012019
:205A1C007047C0468C130050222804D303480068C0F34070704701207047C0468C13005003
:205A3C000448B830006800F47C010004000C08437047C046B8120050202805D303480C3064
:205A5C000068C0F301507047002070478C130050222804D303480068C0F3C06070470020C3
:205A7C007047C0468C130050222804D303480068C0F34550704700207047C0468C130050BF
:205A9C00044908B591F8E60018B1D1F80C0100B1804708BDB02400200449B1F1FF3F07BFAE
:205ABC000020011C0868091DFDF798B9FFFFFFFF012814BF002140F2FF71024A002011601A
:205ADC007047C0460000046030B502FB01F403FB00444FF00005E2FB00542146284630BD39
:205AFC0004498868401E886003D10869C96800F0EFBA7047CC28002004480168012019B18D
:205B1C008969002958BF00207047C0462C2A002004480168012019B14969002958BF002032
:205B3C007047C0462C2A0020044AD26902EB80000268914218BF01607047C0460C2800209A
:205B5C0010B50C460021206032200A46A0802046FFF77AF9204610BD10B50C4600212060F5
:205B7C0033200A46A0802046FFF76EF9204610BD31B90021034B416019680818FCF76CBC9A
:205B9C007047C046A066000010B50C460021206034200A46A0802046FFF756F9204610BDCC
:205BBC002022EFF3118382F31188426A1143416283F31188FCF75EBA10B52021EFF31184C9
:205BDC0081F311882146FCF75DFD84F3118810BD10B50C460021206036200A46A080204627
:205BFC00FFF732F9204610BD0EB501910090FFF71FFB024800F049FAF9E7C04600366E0138
:205C1C0010B50446FFF7A2FA024801682046884710BDC0460C6800000146C80BC00318BFE4
:205C3C00002002D101480068401870471468000010B50446FFF7F0FB032000F0B5F8204603
:205C5C00FFF7DEFF10BD10B5044600F043FA0A04000C090C21601043606010BD10B52021B6
:205C7C00EFF3118481F31188FDF778FE84F3118810BD08B50090009828B1009800213C2268
:205C9C00082300F0A9F908BD38B5044600F062F90021A588A18000F0FEF9284638BD38B53E
:205CBC00044600F057F90121A588A18000F0F3F9284638BD034A1168506813688B42FAD1FE
:205CDC007047C0460820094008B5FEF7EFFB18B9FDF75EFC162800DAFEE708BD00B90348F9
:205CFC00CA0002EB011108187047C0466829002010B5034C2069FEF769FC0020206010BDCD
:205D1C000C28002000B90348CA0002EB011108187047C0468029002008B5FDF74FFF024857
:205D3C000068FCF7A7F908BDAC28002000B903480A0102EB411108187047C04670280020B0
:205D5C0000B903480A0102EB811108187047C046F426002008B5FFF7DBFE002814BF4FF0BC
:205D7C00FF30002008BD00B50A21ADF12C0D6846FBF760FB0BB000BD02480068C0F3C14063
:205D9C007047C0468C1300500248C4300068C0F30D007047B8120050024908B5096A8847BA
:205DBC0008BDC046CC280020024A0146107D11757047C046CC280020024808B5C06980477A
:205DDC0008BDC046CC2800200498804700980199029ADDF80CE010472DE9F04FC0F800D0A2
:205DFC00D1F800D0BDE8F08F014602480068401800F08EB9A06600000146024800684018EB
:205E1C0000F080B9E06600000249012208880A807047C0463029002002490988002001B983
:205E3C0001207047302900200249012208880A807047C0469027002000B90248342202FB83
:205E5C0001007047C0250020C168026900201031914208BF0120704701460248006800F019
:205E7C0069B9C0460468000008B90248006800F0F3B8C046E867000001461628A8BFA0F192
:205E9C00200108467047006801092CBF042000F003007047D0F80320C31D08461946FCF72A
:205EBC0091BD08B500F016F9000C0904084308BD816800220A6002694A60C16070470146EA
:205EDC000A680020914208BF012070470168426811604168006841607047EFF3108072B61B
:205EFC00704700207047EFF3108062B670470020704770470148083000687047B024002095
:205F1C000149ED31085C7047B02400200149091F08607047D0290020014908607047C046D5
:205F3C00D0290020D0F8032008460021FDF720B90148007D7047C046CC2800204FF480317A
:205F5C00416000210160704701B90149FEF7AABB906200002021EFF3118081F31188704783
:205F7C00014800687047C0469C6600002021EFF3118081F31188704701B90149FEF792BBD7
:205F9C00CC630000014880687047C046A0280020002814BF00EBC1000020704701460868AB
:205FBC0002680A6051607047426808604A6011604160704701B90149FEF774BBF063000089
:205FDC0001B90149FEF76EBBE8620000014880687047C0463029002001B90149FEF762BBBC
:205FFC00546200000148C06A0068704790270020014800697047C046902700200148406F28
:20601C007047C0465C260020014908607047C0465C2600200148006800F08AB804680000A5
:20603C0008B500930023FFF787FC08BD014800687047C046602A00200148C0887047C0462D
:20605C002C2A00200168002001B90120704710B50468A468A04710BD08B50368DB68984758
:20607C0008BD00F0FF00FDF7ADBC002080F31188704708B5FFF70EFBFCE7806B50F821001D
:20609C007047806B40F821207047401EFDD17047000AFFF71FBB80F31188704781F3118885
:2060BC007047012000F01EB84060006070474060006070470020FEF779BE4FF0FF30704747
:2060DC00006870470068704700207047FEF77EBFFFF74EBDFFF7EEBD0161704701207047CA
:2060FC000020704701207047FEF770BFFFF740BDFEF7E2BCFFF7B4B9FEF786BDFFF7E6BEF6
:20611C0081607047FFF7C4BB0068704700687047FFF7D0BAFBF7FABA002070470020704744
:20613C00C0887047C06970470120704701207047FFF71CBFFFF7B2BF704770477047FEE772
:04615C00FEE7FEE775
:20616000C0670000B0610000BB5C0000A55C0000791C000015180000FD180000491500009A
:206180004512000057610000396100004961000035610000655E0000416100003D61000013
:2061A0004561000059610000314E0000950D00000951000051570000ED5B000036000000DE
:2061C0008F3F00008F3F01008F3F02008F3F0300903F00018F3F0101903F0002903F00033E
:2061E0008F3F01048F3F00058F1208048F3F00048F3F0006513F00007F3F01003F3F0400D5
:206200003F3F02003F3F01007F3F02007B756E6B6E6F776E2D696E7374616E63652D6E61B6
:206220006D657D007B656D7074792D696E7374616E63652D6E616D657D00C0467B737461CF
:206240007469632D696E7374616E63652D6E616D657D00C03C000000000000000000000035
:20626000886200000000000000000000010000000000000000000000000000000000000033
:2062800001000000000000000800000000000000300000000000000000000000B8620000AB
:2062A000040000000000000001000000FFFFFFFFFF000000010000000800000000000000D5
:2062C000DC670000D8620000153F000049500000BF600000314600001950000031560000CE
:2062E000A55B000034000000280000000000000000000000086300000000000000000000D7
:20630000FFFFFFFF00000000080000000000000028000000000000000000000030630000BE
:20632000010101000000000000020000780500000800000000000000D760000071570000D4
:206340005156000079320000092F00001D36000059540000B1550000715D00007D4400001E
:20636000D867000074630000FD600000895F0000B9600000894F0000115600005D5B0000B2
:2063800032000000D86700009863000001610000E94F00008D5B0000B94F0000C5540000EE
:2063A000755B000033000000240000000000000000000000C463000000000000000000008F
:2063C000000000000800000000000000240000000000000000000000E86300000000000046
:2063E000000000000000000008000000000000002400000000000000000000000C64000001
:20640000000000000100000000000000080000000000000000000000E42900200400000042
:20642000000000000000000020000000906200003000000060630000EC290020040000001E
:2064400000000000000000000C000000546500001800000084630000F42900200400000037
:206460000000000000000000240000006C65000018000000C0620000FC29002004000000A4
:20648000000000000000000020000000A863000024000000FFFFFFFF042A0020040000005F
:2064A000000000000000000028000000CC63000024000000FFFFFFFF0C2A0020040000000B
:2064C0000000000000000000100000008465000018000000FFFFFFFF142A0020040000004D
:2064E00000000000000000001C000000F063000024000000FFFFFFFF1C2A002004000000A3
:20650000000000000000000038000000E862000028000000FFFFFFFFA829002004000000E0
:20652000000000004C00000058000000546200003C00000060610000242A00200400000092
:2065400000000000000000003C00000010630000280000001800000000000000000000004C
:206560006465000008000000000000001800000000000000000000007C6500000800000049
:206580000000000018000000000000000000000094650000080000000000000000000000E2
:2065A000000000000000000061480000FD4D000000000000256000008D36000000000000A0
:2065C0006D3F00000000000031440000000000000000000069410000254A00000000000081
:2065E000010001000000000000000000000001000000010000000000B9230000693700001B
:2066000001010100614D00008D2F0000C751000002088080FE000000FF00000000000000EE
:2066200001000000CC6500009D5A0000153B00000200000028660000010000009C6500004F
:2066400001000000B4650000030000000466000000000000000000000100000000000E00A4
:206660000002210000032000900300009003000000000000151800004512000028260020BC
:206680003200000001000000000000000002000000000000D1550000000000000800000097
:2066A0000800000000002600D4270020010000000800000000030E0000030D002400000043
:2066C00090070000900700000000000015180000FD180000282600200A000000F02800209A
:2066E0000C0000000003120000031100900300009003000000000000FD18000049150000CC
:20670000282600200002140000031300000315009003000090030000000000001518000074
:2067200049150000282600200100000000000000000000000002190000021C000002180039
:2067400000031600340000009000000090030000B0290020FD1800004915000028260020EF
:20676000010000000000000000000000000000000002000000000000000842000008430081
:2067800000084400000845009000000090080000900800000000000015180000FD1800005E
:2067A00049150000C025002000000000F4010000900000009000000000000000030000005E
:2067C000C4670000D467000000000100000003005B610000E0670000E4670000E4670000B6
:2067E000E46700000000000080290020835D000020000000E0650000386300008000000025
:206800002F550000502A00205D6100005F6100000200000051680000246200003C620000FD
:206820000C6200000100240001003400170001001C0001001D0001001E00010037000100E6
:1268400001000100360001000900010001000000010001
:2068580000C500000FC90101007500850ECF01CD5AFF0000C53F0000E560A610936061032D
:2068780071039004119F10807F230020001500200333AD02033F13002403301903350327B5
:20689800000010067F1103310106B01AC0CB5C2A00735800741BF17426B3002000311CBF60
:2068B800024C2902779C88027000311F3F0AFF0000147F0622BDEC8407700031F4003417D3
:2068D8003913E6116000251D0BB38F163427356410B019AF09B6077AC5A72A93355D1DD7ED
:2068F80068400DB00175027D02F51FA920691011787A30355415B4C42700200031EDCC0054
:20691800348463253D0100E8780230003101BF02042800200031540E321AF0481B304C1A48
