:20000000483F0020F179000001CA011001CA011001CA011001CA011001CA011001CA0110A7
:1C00200001CA011001CA011001CA011001CA011001CA011001CA01103FCA011082
:20003C001FB58DF80C002448016824480088E0B123480068014218D022480068014204D1FD
:20005C0021480068008801420FD0224840F2D643046800930CA201929DF80C001C4B02907A
:20007C001A881A4B186804A3A047032003A9012207F0F4FC00901FBD70726F6A6563745FB4
:20009C007A65726F2E6300C02843422920474150205374617465206368616E67653A20253F
:2000BC00642C2053656E64696E67206D736720746F206170702E00C0ACB20000DCB2000007
:2000DC00400500003C05000044050000C8B2000084050000C0B20000014908607047C04651
:0400FC00602300205D
:200100003C000000000000000000000034010000000000000000000001000000000000006D
:1C01200000000000000000000000000001000000000000000800000000000000BA
:20013C00340000000000000000000000680100000000000000000000010000000000000005
:14015C00010000000000000000000000080000000000000086
:2001700030000000000000000000000098010000040000000000000001000000FFFFFFFFA5
:10019000FF00000001000000080000000000000057
:2001A0002C0000000000000000000000C4010000040000000000000001000000FFFFFFFF4D
:0C01C000FFFFFFFF08000000000000002F
:2001CC0034050000E401000099A1011095A70110A5C2011009B2011045B80110000000000B
:0801EC00000000002E000000DD
:2001F400280000000000000000000000140200000000000000000000FFFFFFFF00000000B1
:080214000800000000000000DA
:20021C00300500003002000069C201106DC101101FC2011095BA011000000000000000008E
:04023C002C00000092
:20024000300500005402000075C20110A9B601109DBF011049B601100000000000000000DE
:040260002D0000006D
:200264002400000000000000000000008002000000000000000000000000000008000000CC
:040284000000000076
:20028800240000000000000000000000A40200000000000000000000000000000800000084
:0402A8000000000052
:2002AC00240000000000000000000000C8020000000000000100000000000000080000003B
:0402CC00000000002E
:2002D00000000000D016002004000000000000000000000020000000700100003000000043
:2002F0001C020000D81600200400000000000000000000000C000000300400001800000066
:2003100040020000E0160020040000000000000000000000240000004804000018000000E9
:2003300000000000E816002004000000000000000000000010000000A00100002C000000AE
:20035000CC010000F0160020040000000000000000000000200000006402000024000000EC
:20037000FFFFFFFFF816002004000000000000000000000028000000880200002400000069
:20039000FFFFFFFF00170020040000000000000000000000580000003C010000340000004D
:2003B000FFFFFFFF0817002004000000000000000000000010000000600400001800000062
:2003D000FFFFFFFF101700200400000000000000000000001C000000AC02000024000000D8
:2003F000FFFFFFFF1817002004000000000000000000000038000000F40100002800000049
:20041000FFFFFFFF2017002004000000000000000000000054000000000100003C000000E4
:1804300018000000000000000000000040040000080000000000000050
:1804480018000000000000000000000058040000080000000000000020
:18046000180000000000000000000000700400000800000000000000F0
:080478000200000080B2000048
:0404800009F023B8A4
:040484000100000073
:0404880000008C0FD5
:04048C000000BC0FA1
:040490003200000036
:040494000100000063
:0404980068160020C2
:04049C00000200005A
:0404A0000000000058
:0404A40001CA011078
:0404A8000000000050
:0404AC00000000004C
:0404B0000800000040
:0404B40000007612BC
:0404B80050150020BB
:0404BC00010000003B
:0404C0008016002082
:0404C400080000002C
:0404C8000000000030
:0404CC00000000002C
:0404D0000000000028
:0404D4000000000024
:0404D8000000000020
:0404DC00010000001B
:0404E000B81500202B
:0404E400060000000E
:0404E800010000000F
:0404EC00B814002020
:0404F0000000000008
:0404F4000000000004
:0404F80000020000FE
:0404FC0000000000FC
:02050000704742
:020502002800CF
:020504000100F4
:020506002400CF
:020508002C00C5
:02050A002D00C2
:02050C002E00BF
:02050E000100EA
:0105100001E9
:080514000300000054B20000D6
:08051C000000000000000000D7
:040524000000930D33
:040528000000AD0D15
:04052C0087C401106F
:04053000380500008A
:040534003805000086
:0405380000000000BF
:04053C0090610000CA
:0405400090610000C6
:0405440000000000B3
:0405480080160020F9
:04054C00AF9100006B
:040550002000000087
:04055400C4B100002E
:0405580024B10000CA
:04055C000DC30110BA
:04056000E59400001E
:04056400E794000018
:0405680099C801101D
:04056C009BC8011017
:040570000000000087
:040574009896000055
:04057800D4AF0000FC
:04057C00ECAF0000E0
:04058000BCAF00000C
:020584000280F3
:020586000380F0
:02058800C0179A
:02058A0001006E
:01058C00016D
:040590000000000067
:040594000000000063
:04059800000000005F
:04059C00000000005B
:0405A000D3940000F0
:0405A400857F00004F
:0405A800118C0000B2
:0405AC003583000093
:0405B000978400002C
:0405B40009870000B3
:0405B800596A00007C
:0405BC002393000085
:0405C000A97000001E
:0405C40011C8011049
:0405C80021C8011035
:0405CC000800000023
:0405D0002400000003
:0405D400180000000B
:0405D80028000000F7
:0405DC0020000000FB
:0405E0003C000000DB
:0405E4000C00000007
:0405E80034000000DB
:2005EC002DE9F04FADF17C0D00F016FD9148944904889148096806689048924A006806EA6A
:20060C0000070E9706EA01070F971768A74A1588A74A12681192A74A12681292A64A0D94C9
:20062C001268139202EA00040A401592A34A14941268169202EA00040A40A2491794A0483F
:20064C0018920068199056391A9194A110910820ADF820000A24ADF822404FF0FF33099394
:20066C0008A807F05BFF0028F1D100200C900824ADF820400923ADF8223008A807F04EFF7F
:20068C00DDF828C0CDF86CC00028CDF830C040F02A81BDF824004FF00108102840F01B81C3
:2006AC00A8489DF826100078884240F01481644620884FF6FF71814200F091802378913B3A
:2006CC0070D01F3B40F0078160780D9A162840D020797E2824D07F2810D0131C5CD00E9B31
:2006EC00002B59D00F9B13B93888064254D040F2624000909CA3019320790FE0002A4BD0F4
:20070C000E9B002B48D00F9B13B93888064243D040F25D4000908DA301932089314610E01D
:20072C001399002A38D0149B002B35D0159B13B93888014230D04FF48B600090BFA30193BD
:20074C00207A0290DDF848C0109B11982A46E04722E016999AB1179B8BB1189B13B9388870
:20076C0001420CD040F23F40A1A30090DDF848C001932079109B029011982A46E04760885A
:20078C00082108F019F838B9404604F015FB6D484FF00008C4609EE0217904F1080008F073
:2007AC009DFB98E060780E2840F095800D9C002C00F091800E9C002C00F08D800F9C1CB9A1
:2007CC003888064200F0878040F22240C5A400900022DDF848C001943146029258E06088C2
:2007EC00000978D35748C468002C74D080785549B4F802B0401C887094F804A0102008F0BE
:20080C0023FA04F10809041C1ED00221152208F07BFDA4F808B084F80AA0C4F80C9008F007
:20082C0023FAC44A214607F033FB0446162C0CD10FE0C046DCB20000ACB200004005000066
:20084C003C0500004405000004243E48C068042C3AD10D9C1699002C3DD0179C002C3AD077
:20086C00189C14B93888014235D0364840F29742C0680092C9A401940079324B0290987806
:20088C0003900022049214460594DDF864C00692109B11982A46E0471DE0C04670726F6AD4
:2008AC006563745F7A65726F2E6300C084050000C8B20000C0B20000A8B20000B0B200004F
:2008CC00C4B200005E0800204088002107F074FF204604F071FA0C9C2CB1B8F1000F02D0E9
:2008EC001B9808F01FFB1748806808F0CBFE00287FF4ADAE1348806808F0C0FE834602461F
:20090C000D999BF808000BF10904002800F0C681401E00F01181401E00F0F980401E00F02D
:20092C000383401E00F0A880401E40F000830B1C45D00E9B002B42D00F9B43BB38880642CC
:20094C003DD001E0C007002021E0C0464D54552053697A65206368616E67653A2025642075
:20096C00627974657300C04652656365766965642047415454204D6573736167652E204F45
:20098C0070636F64653A2030782530327800A378002B0CBFBBA0BEA040F2AA2100220091C5
:2009AC00ABA30193DDF864C0029011460392109B0491119805922A4606913146E047B4F801
:2009CC000080102008F040F9041C00F0B0820121132208F099FCA4F808800020A072024666
:2009EC00E26008F041F9AC4A214607F051FA9EE24F7574676F696E67205246204649464F10
:200A0C002066756C6C2E2052652D7363686564756C65207472616E736D697373696F6E200E
:200A2C006F66206D73672077697468206F70636F64652030782530327800C046466C6F7793
:200A4C0020636F6E74726F6C2076696F6C617465642E204F70636F6465206F66206F6666F9
:200A6C00656E64696E6720415454206D73673A2030782530327800C0002902F1090423D0A8
:200A8C000E9B0BB30F9B13B9388806421CD020780D2814BF97A09AA06378002B0CBF9BA15B
:200AAC009FA14FF44972BCA30092DDF864C0019300220290109B039111980492114605914F
:200ACC00314606922A46E04723780D3B1CD05B1E40F02D8201200146641C224602F024F8DF
:200AEC0025E2C04648434920436F6D6D616E6420436F6D706C657465204576656E7420721D
:200B0C00656365697665640001210020E4E7238841F210101B1A06D0103B40F00882207940
:200B2C006188641DD9E720796188621D03F00AFAFDE1C046F992000023880FF2642E0FF2D9
:200B4C00742CA2A2B3F5895340D0103B40F0EF81B4F8050048B1401E04D0401E08BFCDF860
:200B6C0070E003E0CDF870C000E01C922079012840F0DD81002900F0DA810E9C002C00F029
:200B8C00D6810F9C1CB93888064200F0D0811C9940F2FB3077A47EA2E9E0C0465265747270
:200BAC0079696E67206D6573736167652077697468206F70636F6465203078253032782E02
:200BCC0020417474656D707420256400B4F8050048B1401E04D0401E08BFCDF874E003E064
:200BEC00CDF874C000E01D9224799CB1641E40F09E81002900F09B810E9C002C00F0978193
:200C0C000F9C1CB93888064200F0918140F29E30A8A20FE0002900F08A810E9C002C00F01B
:200C2C0086810F9C1CB93888064200F0808140F293309AA24FA49BA31D9900900194029356
:200C4C000392049100240594224606921DE1C046426F6E644D677220526571756573746586
:200C6C00642070617373636F64652E205765206172652025732070617373636F64652025C1
:200C8C0030366400446973706C6179696E6700C053656E64696E6700EB920000238841F287
:200CAC0010101B1A00F09B80203B40F040812379002B3ED05B1E40F03A81002900F0378172
:200CCC000E9B002B00F033810F9B1BB93888064200F02D8140F2CE300090B8A301936079E4
:200CEC000290A0790390E07904900022059211460691CAE0427574746F6E203100C046C0D9
:200D0C00427574746F6E203000C046C01B5B33336D72656C65617365641B5B306D00C0468E
:200D2C001B5B33326D707265737365641B5B306D00C085480021282205F02CFD8248641DF5
:200D4C002722214605F0E0F90D9C002C00F0EF800E9C002C00F0EB800F9C1CB9388806421C
:200D6C0000F0E580784940F2C7308BA491A2A2A363E7C04643434344204368616E6765209E
:200D8C006D73673A2025732025733A20257300C053747265616D00C0257320257300C04622
:200DAC00496E6469636174696F6E7320656E61626C6564004E6F74696669636174696F6EE0
:200DCC007320656E61626C656400C0464E6F74692F496E642064697361626C656400A1784E
:200DEC001A9A601D05F074FF04F1050924790D9B0FF2142A0FF21428002C5FD0641E40F07D
:200E0C0096801C1C1CD00E9CD4B10F9C14B93888064215D07E4940F25F305FA4009059A3E1
:200E2C005BA20194DDF864C00293002411980392109B049122460594314606922A46E0473D
:200E4C00744899F800200069072106F0A9FF0D9C002C6CD00E9C002C69D00F9C14B9388892
:200E6C00064264D099F8004004B1C24640F2673040A300903BA401940293CDF80CA0002284
:200E8C0004921146059114460694DDF864C0109B119831462A46E04749E0C0464255545406
:200EAC004F4E3000427574746F6E205365727669636500C0425554544F4E3100E3B10E9CE1
:200ECC00D4B10F9C14B93888064215D050494FF4547031A400902BA320A20194DDF864C0F9
:200EEC000293002411980392109B049122460594314606922A46E047464899F80020006960
:200F0C00062106F04DFF0D9C8CB10E9C7CB10F9C14B9388806420AD099F8004004B1C246B7
:200F2C004FF4567009A3A4E7507A02F017F90820ADF82000CDF824B00524ADF8224008A833
:200F4C0007F0ECFACFE4C0465E0800201B5B33316D4C4544301B5B306D00C0464C454430FF
:200F6C0000C046C05475726E696E6720257320257300C0461B5B33326D4C4544311B5B304E
:200F8C006D00C0464C45442053657276696365004C45443100C046C056616C756520436878
:200FAC00616E6765206D73673A2025732025733A20257300537472696E6700C056616C75B8
:200FCC0065204368616E6765206D73673A20446174612053657276696365205374726561EF
:200FEC006D3A20253032783A253032783A253032782E2E2E00C046C0446174612053657299
:20100C007669636500C046C06F6666006F6E00C008080020C00700202DE9F04F0820ADF14D
:20102C007C0DADF80C000126ADF80E6003A807F075FACA489DF81010017005994160584907
:20104C000C685849DFF860810F88A2460FF2001B1D97381C1FD0404600681AEA000F1AD03A
:20106C00B94800681AEA000F05D1B848006800881AEA000F0FD0B84805684FF4BC7738A372
:20108C0000220097B3490193B14F02920A8838685B462146A847B14D00213C35284608F048
:2010AC00E9FAB1464FF0000AAC488DF86E900DF16E02ADF81CA03146856040F2053002F006
:2010CC00ADF940F20630022107AA02F0A7F9A34A4FF442703146521C02F0A0F99F4A40F223
:2010EC00073011211546583202F098F940461D9FD0F800805835002F69D014EA080F66D049
:20110C0091480068044204D190480068008804425DD0924F5146202207F17E0005F03AFBD2
:20112C008B4E8C488C4B078830681E681E9050462A5C401CC0B22B5C2918092B18BF082BD4
:20114C0001D11F2A32DB8018C0B22028F0DB32E070726F6A6563745F7A65726F2E6300C0C5
:20116C00496E697469616C697A696E67207468652075736572207461736B2C20686172647A
:20118C00776172652C20424C4520737461636B20616E642073657276696365732E00C04634
:2011AC00ACB20000DCB2000040050000B548491C521E04F0A9FFB34B4FF4E470B3A5009007
:2011CC003A46214601951E9802935B46B0470620A02106F03DFF0720A02106F039FF08204C
:2011EC00A02106F035FF0920A02106F031FF48461E2106F02DFFCDF818A04F468DF86F9063
:20120C0050468DF8709004218DF8710006AA8DF872704FF4816006F001FF4FF480604946A9
:20122C000DF16F0206F0FAFE40F2024049461CAA06F0F4FE40F2034049460DF1710206F029
:20124C00EDFE40F2064049460DF1720206F0E6FE032007F035F8042007F032F8A248A34AE1
:20126C00132106F007FDA249032006F0F3FDA14DA14A052105F10C0006F0FCFC1D98A246B4
:20128C000FF24029E0B11AEA080F19D02E4800681AEA000F05D12D48006800881AEA000F04
:2012AC000ED02D480568DA2705260097294BCDF80490274902961A8808687EA32146A84741
:2012CC002648077807F0A4FA8C4E0028F0602ED007F0AAFC07F09CFA306140B307F0A4FCEB
:2012EC00C74A06F11400072106F0C4FC1D98E8B11AEA080F1AD0144800681AEA000F05D1E8
:20130C001248006800881AEA000F0FD01248056840F20113072200930E49CDF804900C4BB5
:20132C0002920A8818682146B6A3A84737700B48C94D082304220778ADF80C302978ADF845
:20134C000E2088000CE0C0463C05000044050000C8B2000084050000C0B20000C0070020F3
:20136C00049003A807F0DAF800280CBF05980020BA498B46C86040B307F056FCB84A0BF173
:20138C004C00062106F076FC1D98E0B11AEA080F19D0B74800681AEA000F05D1B548006867
:2013AC0000881AEA000F0ED0B3480468EE2306220093B249CDF80490B14B02920A8818687F
:2013CC00514695A3A0478BF800701D9FA74849490FF2542924308860DFB11AEA080F18D0CE
:2013EC00A34909681AEA010F05D1A249096809881AEA010F0DD0A049E9270C6800979F4BCE
:20140C00CDF804909E4902901A88086829A35146A0471D9F95482C30B060E7B11AEA080FDA
:20142C0019D0934909681AEA010F05D19149096809881AEA010F0ED08F494FF489770C6823
:20144C0000978F4BCDF804908C4E02901868328851466CA3A0471D9F8448002F00F13400A7
:20146C00CBF808005AD01AEA080F57D0804909681AEA010F44D17F49096809881AEA010FE8
:20148C004CD001E03E0800203AE0C0464E616D6520696E20616476657274446174612061A4
:2014AC00727261793A201B5B33336D25731B5B306D00C0466C65645F736572766963652E5B
:2014CC006300C0465265676973746572656420736572766963652C2025642061747472695F
:2014EC00627574657300C046081000203CB20000639400000C140020CCB000008813002023
:20150C005D49FF270C6800975D4BCDF804905B4E02901868328851463FA3A0470DF11E00F6
:20152C000021282205F036F94E490DF14600282204F0EAFD002001210DF11E0202F002FDBF
:20154C0001200DF11E02014602F0FCFC002001210DF11E0201F0E8FA01200DF11E02014656
:20156C0001F0E2FA002028210DF1460201F03AF9012014210DF11E0201F034F9A87818BB3A
:20158C003A486E78EC7818306862182007F05CFB071C19D00421002207F0DCFD304607F04B
:2015AC00C4FA38727C720020B87205F14806FE6005F158033B6105F120027A6107F054FBB7
:2015CC00294A394606F064FC0C2007F03DFB041C0BD00121042207F097FE24481C30A060D5
:2015EC0007F042FB214607F055F90120102106F081FE0220102106F07DFE1FB0BDE8F08F81
:20160C00F8B00000627574746F6E5F736572766963652E6300C046C0646174615F73657290
:20162C00766963652E6300C0526567697374657265642063616C6C6261636B7320746F20B5
:20164C006170706C69636174696F6E2E2053747275637420257000C0F80B00204812002005
:20166C0074B0000015B000006F940000C00700203C05000044050000C0B200008405000006
:20168C00C8B200002DE9F04F0120ADF1240DADF80A000827ADF8087002A806F03FFF002680
:2016AC003546D84C8DF81C509DF80C006070A6700498E0614FF6FF70A082384607F0C4FA21
:2016CC005FEA00080CD00121122207F01DFE07F0CBFA07A90123D94A0091414606F0F6FBB7
:2016EC009DF81C000121207004F1A80006F09AFD04F1CC00022106F095FD04F1F0000421DB
:20170C0006F090FD042031461022E07004F1480005F040F804F158003146102205F03AF896
:20172C002562267266720720E67204F148021021A072022006F090FD04F15802032010215D
:20174C0006F08AFD042004F12002014606F084FD19E0A078B4F84050B4F84230B4F844208C
:20176C00B4F8461006280ED1ADF80A50ADF80C30ADF80E20C948ADF8101007F09EFE012011
:20178C0002A904F087FF0A20ADF80A00ADF808704FF0FF35039502A806F0C0FE002840F061
:2017AC00D58130460690ADF808700925ADF80A5002A806F0B3FEDDF810900028CDF8189016
:2017CC0040F0C481BDF80C00102840F0B38160789DF80E10884240F0AD814D4628884FF6F0
:2017EC00FF71814200F09E812B78A23B00F083812E3B40F09F81A878B046002800F050816F
:20180C00801E00F02881401E012840F2FD80801E00F0AD80401E73D0401E60D0083800F035
:20182C005B81801E40F05D8194F83E30A888052BADF808004BD001208DF81200974807F064
:20184C003CFE94F83E00012820D004281ED003280DD002280BD00698C188ADF80A10018908
:20186C00ADF80C104189ADF80E1080892BE0B4F84000B4F84250ADF80A00B4F84430ADF85C
:20188C000C50B4F84600ADF80E301CE0B4F84000E9888842D8BF081CADF80A002989B4F820
:2018AC0042008842D8BF081CADF80C006989B4F844008842D8BF081CADF80E00B4F8461088
:2018CC00A889814200DC0146ADF8101001E08DF81260AB4A02A8122106F073FD01E1A9483D
:2018EC0007F0EBFD6878002840F0FB80E888E0822889208368896083684807F08BFCF0E052
:20190C00B5F804A00A2007F09FF95FEA00080AD00121152207F0F8FCA8F808A007F0A4F966
:20192C00414606F0B7FFB8483146062204F032FFE68226836683A8796073584807F0BDFD65
:20194C00904807F0BAFD4FF001084FF6FF706379A0824BB9A879082814BF04200520A0707A
:20196C00404607F06FFBBCE00320A070B9E06878002840D1A449281D02680A6080888880DD
:20198C000623A3706889A082E889E082288A2083688A6083E878207394F83E00012818BF32
:2019AC00022808D11F2006F047F94FF47A7141433A4806F0C5FA95F803B0B5F80AA01420EF
:2019CC0007F042F95FEA000800F08E800121142207F09AFC88F808B02D1DC8F80C50A8F857
:2019EC0010A0042088F8120007F03EF97F4A414606F04EFA78E0687831286BD12671042031
:201A0C0023E0C046F80B00206878002862D1A878618AA278032813D02079657921B90128A6
:201A2C0014BF6671267105E0054303D0724806F087FAA278072AE2D1062006E00793000084
:201A4C00062A06D0207910B90320A0704CE00220FBE70720F9E7687800283BD1EB78A07819
:201A6C00E17993B9022815D0072813D0062802D1617901290ED103280CD05F4807F0CAFB45
:201A8C0040B9012007F0DEFA04E0604A404605F003FD68706878E8B923E0C046C40C0020F6
:201AAC006878B8B9554A0220102106F0EFFB544A0320102106F0EAFB5548ED1C2968016092
:201ACC00AB888380534A01252846A179A57005F0E3FC48B1A77007E0A888454A102106F0B3
:201AEC0057FCB8F1010F25D1606A18B3016809B3A07888471EE0687913281BD12889012857
:201B0C0008D1A07B022805D11E4807F0D6FC05F06FFE0FE0052006F08FF80146194806F005
:201B2C000FFA07E06888C00B04D3364A0420014606F0ACFB069848B1ADF808700320ADF813
:201B4C000A00CDF80C9002A806F0E8FC208A65792179420830D320F0010055EA0103208225
:201B6C002AD08DB92C49207A8DF80800657A8DF809500A680DF10A031A608988998006E0B9
:201B8C0069940000E80C002003208DF80800A07AE57A184A8DF8100006218DF8115002A851
:201BAC0005F042FF616A30B1A77021B1086810B1096838468847208A810807D3174920F0E2
:201BCC0002002082304604F065FD208AC108FFF4DAAD20F00400A57B2082681E3FF4B9ADA7
:201BEC00401E7FF4D0AD05F003FECCE5DD9200008D94000081940000A00C0020400C002007
:201C0C00500C0020180C0020300C00207F0C0020240C0020600C00202A0C0020360C00205D
:201C2C002DE9F84F8046DD480122A0F130010A60D7490F68002FFCD0D74ED64AC02706F14C
:201C4C00040B1760DBF80010890804D23168090C41F0F00100E07221E34AE44D4FF00009BF
:201C6C0082F85412A5F1D407C0F80090D6F808A03868C0F3046007F00FFB5246534600EB75
:201C8C002270401C162805DA10F10A0FB8BF6FF0090000E01520E649E64F00F01F0040F478
:201CAC00F8500880386880083ABFE348C0F8009042F04062E149A5F13C04D00E970E80F0ED
:201CCC00010000F00100086087F0010000F0010088602068C0F38367C0F38F215FEA9A40A2
:201CEC0022D243F3072000280BD542424846490805D17F0806BF0127391C4FF6FF71521E58
:201D0C00F5D1002810DD4FF6FF72490041F001018A4207D27F0047F001070F2F92BF012196
:201D2C000F27111C401EF0D141EA0741182006F011FA20682768C34CC0F3870140F2FF32A5
:201D4C004B4607F0030041EA0021274688B22C210090A7F1400005F093FDA5F11007386872
:201D6C00C0F30D011C2006F0F5F9B54957F8080C014000F07C400143142006F0EBF957F887
:201D8C000C1C01F47C000904090C0143102006F0E1F957F8042CDBF80010C2F30350C2F319
:201DAC000343490812D231680E0510EB267003D41028A8BF0F2000E04846090413EB2173AD
:201DCC0003D4102BA8BF0F2300E04B4643EA001302F47F4002F0FF01B8F1220F40EA0340AD
:201DEC0041EA000124BF02F0804211430C2006F0B1F9B8F1220F32BF01202868C0F3007055
:201E0C00B8F1220F4FEA400040F0200084F8090126BF2868C0F3407001208B4EB8F1200FE3
:201E2C0040F0100084F8090138BF494606D33168C80C00F44070C1F384510143282006F055
:201E4C0089F9B8F1200F26BF3068C0F301504846B8F1220F4FEA400040F0600084F80C01A1
:201E6C0026BF2868C0F3C0604846B8F1220F4FEAC00040F0800084F8010126BF2868C0F357
:201E8C0045504846B8F1200F4FEA800040F47C40A4F89C0138BF6D490AD3306801038A1594
:201EAC00920501F47C1100F00F00114341EA0031082006F04FF92E464FF480002060A6F19A
:201ECC00D000816D40F20F226FF31F418A4213D901680068C1F30367C0F3034007B17F1E21
:201EEC00072805D006280EBF0720801C00F00F003D4947EA00100870CAF381477F1E02D0E2
:201F0C007F1E28D023E03168880C20D24FF4804020604F48D0F802204B0AC1F3033703F0C4
:201F2C00800322F08F02134347EA0302C0F80220D0F801300F0A67F30303C0F80130026844
:201F4C0001F0E70722F0E70247EA020102E04FF0004120460160DBF80000C0F3C0070FB929
:201F6C004020A0624FF400703E4F206428684FF04008C0F3C14040F0300084F8C800CAF303
:201F8C008150A8B3401E0BD0401E28D0022127E09402224300600C40AC3F005040100940D5
:201FAC00012006F02DFF05460420294605F088FB042006F025FF8542FAD12648056825F0BC
:201FCC007F4006F0F3FA384614300068036807214FF06022280E98474FF4806020600321F9
:201FEC00042005F06DFB0AE0026008408C1300500420012105F064FB174806F0D7FA203EB3
:20200C0030681649164B47F6180500F03F0084F8CB0F3A460D8018681068C168022088475E
:20202C001248114EC0F8008001213160BDE8F88F6E6208400000094094042A4300002043FB
:20204C00FCFCFC0040A00C409813005000803F400A600840A83F0050BD37860070B00C408B
:20206C002C200940A00100109404604200600C402DE9F04F09AFADF13C0D1C460025DFF8D6
:20208C00F891DFF8F881DFF8F8A1DFF8F8B1089038790A923F880B90FF200D90087809914E
:2020AC00022809D10846494640680E88008842F60213834200F0E880099805F0C5F9064663
:2020CC004946ACA2002E0B880C96994640D0761E1FD096480168D3B195480068014216D009
:2020EC0094480068014204D140460068008801420DD0934840F2292797A6046800978F4B6B
:20210C0001968D4F02951A8838688FA3A0470A2009E150465E46B9F1000F4FF0140A016881
:20212C00079606F1040B3FD08148006801423BD080480068014204D1404600680088014261
:20214C0032D080484FF40973066800939AA31DE050465E46B9F1000F4FF0280A0168079645
:20216C0006F1020B20D07248006801421CD071480068014204D1404600680088014213D039
:20218C00704840F21623066800938DA30192029308980390049405970B98684B06901A88C2
:2021AC00654B186868A3B047BA4530DD3E19B24521DA5E480168B9F1000F1AD05C480068CE
:2021CC00014216D05B480068014204D140460068008801420DD05A484FF40D7306680093AB
:2021EC0079A20192554B0295534D1A88286856A3B0470D252CE009980A99C0682246C01941
:20220C0003F082FFABF800600C980D9020E047480168B9F1000F1AD045480068014216D041
:20222C0044480068014204D140460068008801420DD0434840F22F23066800936BA2019240
:20224C003E4B02953C4D1A8828683FA3B04707250D98FF280DD00798806850B1066846B1FC
:20226C00E419A0B200900C9A0A9B089841F23011B047284657E0C046DCB20000440500009B
:20228C00ACB200004812002050460068002E81462ED02748006819EA000F29D025480068B2
:2022AC0019EA000F05D140460068008819EA000F1ED00B98FE280CBF0FF254180FF26C182E
:2022CC00099805F0C1F81F4940F2FB130E68009359A20192029008980390CDF810801749EA
:2022EC000595154B06950A881868494616A3B047089809990A9A0097234604F051FD064678
:20230C005846083007686EB967B1786850B1099805F09AF8009402460A9B7C68089841F2EC
:20232C003011A047F0B20FB0BDE8F08FA8B20000400500003C050000C8B200008405000001
:20234C00C0B20000C4B20000646174615F736572766963652E6300C04174747269627574FF
:20236C006520776173206E6F7420666F756E642E00C046C057726974654174747243422095
:20238C003A20257320636F6E6E48616E646C6528256429206C656E28256429206F66667344
:2023AC00657428256429206D6574686F64283078253032782900C04653747265616D00C093
:2023CC00537472696E6700C0496E76616C69642076616C7565206C656E67746820776173A9
:2023EC002072656365697665642E00C0416E20696E76616C6964206F666673657420776127
:20240C0073207265717565737465642E00C046C02D20726573746F72696E6720626F6E646A
:20242C00656420737461746500C046C02D204F544120777269746500577269746541747410
:20244C00724342202843434344293A20706172616D3A20256420636F6E6E48616E646C6593
:20246C003A202564202573002DE9FE4FB84C0F460646F80B80F04781B80880F0D480B54DEC
:20248C00DFF8D892DFF8E0B2DFF8E882DFF8F4A22C68B80F67D2B0480678002E47D1380947
:2024AC0047D3AF4801264946067000240C70204603F033F9AB48FDF717FEAC4922465846B7
:2024CC0006F0F0FFAA48017801291CD141460B78CBB9A94E306880B106F028FE2B68A8499B
:2024EC003668A64D0A68C01A000B82182860B2EBC61F28BF0C6007D20A60A4484FF0005132
:20250C0006F0D0FD2CE00670504640F609010180417B01F0F00141F0010141734480017B4E
:20252C0001F0F00101734460974E306018E0390914D2B80BC0F004819D48001D06F0BBFF56
:20254C00061C08D0706830B17468F068B6F91C1098A20CCAA04727F40057F1E000210170E1
:20256C0027F00807ECE0ECB1042006F049FCC8B106F0DCFD864A29681060814226BF401A46
:20258C00401E401A000BF060F06800F58D70F060F16840F6C410884203D340F2EE228A4271
:2025AC0000D9F0600024D6F818C02C60BCF1000F10D050460D30007810F00F0F0AD1708CB4
:2025CC0040F60901814205D17CA20CCA30466FF48071E0476F495846224606F063FF454690
:2025EC00287850B10220ADF80000684606F0FEF92C70BDF808006849088049460120674AD9
:20260C00674B087010781C70401C1070192006F009FE756925B16BA20CCA30462146A847FB
:20262C0027F000578CE004F10C0A504606F043FF061C5FD005F0BCFC7368B2690025B561AC
:20264C00E3B1F37F42F002024FF00009904603F007035B1E07D05B1E03D09B1E06D15BA0F0
:20266C0002E05CA000E05DA090E800037268F068B6F91C104B4694464246E04706F0F6FF06
:20268C008046B4F91200401C6FF31F306082E0681F30017801F07F010170504606F096FCAA
:2026AC00404606F0DFFFF068B0F99410B4F9122091421FD13B49097801291BD090F89640F5
:2026CC009CB904688CB1384909680968B1F1FF3F10D0364909687030B4FBF1F106F0BEFFF9
:2026EC00F068703006F0B6FF04E080F89650284604F088FB504606F0DEFE27F0020708B1C3
:20270C0047F002071CE006F0B1FF01462046083006F0D1FE0646B469084606F0A3FFA0082A
:20272C000CD25EB17068B169A143B16130B17568F068B6F91C1000232246A84727F480476B
:20274C001FB11248394606F0ADFCBDE8FE8FC04604230020502300206F2300206B230020B3
:20276C0069230020E5690000B8220020818B00006D230020682300204C23002058230020C8
:20278C004823002018230020001004400C2200205423002009550000B42200207123002006
:2027AC006A230020441700205C2300209CB200000423002000000000200000000000000091
:2027CC00000000020000000000000004000000000000001000000000000000400000000097
:2027EC00000000202DE9F04F05467F487F4CADF13C0D0FF2442C0F46DFF8F4A1DFF8F49106
:20280C00DFF8F4810088DFF8F4E107902E1C0890E068099245D0761E21D0BD48079F016822
:20282C00002F00F0DD80BB480068014200F0D880B9480068014205D15046006800880142CF
:20284C0000F0CE80B5484FF49A7771A604680097434601964F4602951A88386876E0089E39
:20286C008346231D04F11002704614210B93002E0A9205680C914FF001030D933FD0A54800
:20288C00006805423BD0A4480068054204D1504600680088054232D04FF498736DA20021B5
:2028AC001CE0089EA31C704604F1240200210B9305680A920D9128230C9306B3954800688C
:2028CC0005421CD094480068054204D1504600680088054213D040F2251360A290480668F7
:2028EC000093CDF804C002920397049105914346069149461A88086841A32946B0470C98A8
:20290C00B84226DA8248089E0168002E68D081480068014264D080480068014204D15046EC
:20292C000068008801425BD07D4840F24D16046800964CA501950297002303930C9A0492BC
:20294C00464605934D460693328828682CA3A04746E00A9809993A4603F0D6FB0D9E0B981F
:20296C00002E07803CD00798294600282BD069480068014227D068480068014204D1504640
:20298C000068008801421ED0654B40464E4602889BF802701D683068002F19A308BF3FA7FC
:2029AC0003D0012F0CBF44A749A74FF4A27600964CA60196BBF800600296039700270497E1
:2029CC0005970697A84706200090564F0A99207804F14C03002201905846029703F04AFAC8
:2029EC000FB0BDE8F08FC046DCB200004812002044050000C8B2000084050000ACB2000030
:202A0C00646174615F736572766963652E6300C0536574506172616D657465723A20506197
:202A2C0072616D6574657220232564206E6F742076616C69642E00C0536574506172616D22
:202A4C0065746572203A202573206C656E3A20256400C04653747265616D00C05374726992
:202A6C006E6700C04C656E677468206F75747369646520626F756E64733A204C656E3A20B8
:202A8C002564204D696E4C656E3A202564204D61784C656E3A2025642E00C0461B5B333303
:202AAC006D4E6F74692F696E642064697361626C65641B5B306D00C04E6F74696669636141
:202ACC0074696F6E20656E61626C656400C046C0496E6469636174696F6E20656E61626C5B
:202AEC00656400C0547279696E6720746F2073656E64206E6F74692F696E643A20636F6E19
:202B0C006E48616E646C652025782C20257300C0A8B20000400500003C050000C0B200003C
:202B2C00C4B20000B13800002DE9F04F0546BE4CBC48DFF800B3DFF800A3DFF80093DFF837
:202B4C000083DFF804E30F46ADF1340D0FF2FC1C2E1C0892E1680288206907923CD0761E62
:202B6C0020D0B2480168171C00F0CF80B0480068014200F0CA8058460068014205D15046F2
:202B8C0000680088014200F0C080AE484FF4A57764A604680097434601964F4602951A8876
:202BAC003868B0E00B90A61D7046A31C002A0A96056809933AD09E480068054236D05846F0
:202BCC000068054204D150460068008805422DD04FF4A37364A217E0261D7046631C0B9131
:202BEC000A96056809930AB39148006805421DD058460068054204D15046006800880542FF
:202C0C0014D040F23B135AA2904806680093CDF804C002920397002104910591434606914C
:202C2C0049461A8808683AA32946B047022F46DA002F44D0099808993A4603F065FA079E57
:202C4C000A982946002E07802BD079480068014227D058460068014204D1504600680088A0
:202C6C0001421ED040460B9E0288784B4846B7781D680068002F26A308BF3FA703D0012F49
:202C8C000CBF44A749A74FF4AD7600964CA601960B9E368802960397002704970597069769
:202CAC00A8470720009020780190694F02970B98099904F11403002203F0DCF825E05C4D00
:202CCC005A4C07982A682168061C1ED011421CD058460068014204D1504600680088014252
:202CEC0013D05A4840F26316046800963FA5019502970123039300220493464605924D465A
:202D0C0006923288286802A3A0470DB0BDE8F08F627574746F6E5F736572766963652E63DB
:202D2C0000C046C0536574506172616D657465723A20506172616D6574657220232564200D
:202D4C006E6F742076616C69642E00C0536574506172616D65746572203A202573206C6528
:202D6C006E3A20256400C046425554544F4E3100425554544F4E30001B5B33336D4E6F745D
:202D8C00692F696E642064697361626C65641B5B306D00C04E6F74696669636174696F6E42
:202DAC0020656E61626C656400C046C0496E6469636174696F6E20656E61626C656400C0A9
:202DCC00547279696E6720746F2073656E64206E6F74692F696E643A20636F6E6E48616E3A
:202DEC00646C652025782C20257300C04C656E677468206F75747369646520626F756E647A
:202E0C00733A204C656E3A202564204D696E4C656E3A202564204D61784C656E3A20256449
:202E2C002E00C046DCB2000088130020A8B20000400500003C05000044050000C8B2000066
:202E4C0084050000C0B20000ACB20000C4B20000713600002DE9F04F09AFADF13C0D089064
:202E6C000B9397F804B00A923F880991084604F063FBAF49DFF8C0A2DFF8C092DFF8C08255
:202E8C00B54B0E8800240546FF2082A2002D0D90AF49B0480C953BD06D1E1FD0A5480168A8
:202EAC00D6B150460068014216D048460068014204D140460068008801420DD0A34840F297
:202ECC00ED176DA6056800979F4B01969D4F02941A88386864A3A8470A20C1E0051D002E75
:202EEC00079009680E953AD050460068014236D048460068014204D1404600680088014203
:202F0C002DD018464FF4F4730568009372A317E0851C079009680E950EB350460068014246
:202F2C001DD048460068014204D1404600680088014214D018464FF4ED730568009368A3E1
:202F4C0001920293089803900B9A049205977E4BCDF818B01A887B4B186843A3A847002FF1
:202F6C004CD10B9860A23D18022D28DACDB9BBF1180F18BFBBF1120F13D150466D49006868
:202F8C000968002E38D0014236D048460068014204D140460068008801422DD040F2012618
:202FAC001FE009980A990B9AC068C01903F0ACF8002D42D00C980D900E9E35803DE05D48E2
:202FCC000168CEB150460068014215D048460068014204D140460068008801420CD04FF4F1
:202FEC00FC765A4805680096574B0192554E02941A8830681CA3A8470D241EE04D4801682B
:20300C00D6B150460068014216D048460068014204D140460068008801420DD04B4840F28D
:20302C00F3163AA305680096474E0193454B0294328818680CA3A84707240D98FF280ED09F
:20304C000798806858B106684EB10B980C9A0A9BC01980B20090089841F21011B04720468D
:20306C000FB0BDE8F08FC0466C65645F736572766963652E6300C0464174747269627574F0
:20308C006520776173206E6F7420666F756E642E00C046C057726974654174747243422068
:2030AC003A20257320636F6E6E48616E646C6528256429206C656E28256429206F66667317
:2030CC00657428256429206D6574686F64283078253032782900C0464C45443100C046C0C6
:2030EC004C45443000C046C0496E76616C69642076616C7565206C656E67746820776173E8
:20310C002072656365697665642E00C0416E20696E76616C6964206F6666736574207761F9
:20312C0073207265717565737465642E00C046C0DCB20000A8B20000400500003C050000BC
:20314C0044050000C8B2000084050000C0B20000ACB200000C140020C4B200002DE9F04F3C
:20316C00A549A64EA64DA74CDFF89CB2DFF89CA2DFF89C92DFF89C820F88401EADF1340D73
:20318C0000F09080401E75D0801E61D0401E4DD0401E2ED0401E17D0401E40F0C980316825
:2031AC00002F00F0C5802868014200F0C1802068014205D15A4610680088014200F0B880EF
:2031CC0040F20B3060A766E03168002F00F0B0802868014200F0AC802068014205D15A4611
:2031EC0010680088014200F0A38040F2FF2058A751E040F2153004A901F0D6FF04A804F062
:20320C00C3F93168002F00F093802A68114200F08F802268114205D15A461268128811427D
:20322C0000F0868040F2FA2750A676E03168002F7ED0286801427BD02068014204D15A4679
:20324C0010680088014273D040F2073051A722E03168002F6CD02868014269D0206801429E
:20326C0004D15A4610680088014261D040F203304EA710E03168002F5AD02868014257D023
:20328C002068014204D15A461068008801424FD04FF43C704AA7424614680090019700264E
:2032AC0002963FE04FF441700AA901F07DFF9DF829308DF8113000218DF814109DF82A20DA
:2032CC008DF813109DF828008DF812209DF82D308DF810009DF82C208DF8173004A98DF860
:2032EC0016209DF82B304C4A8DF81530086810604B6853600AA804F047F93168C7B12A686D
:20330C00114215D02268114204D15A461268128811420DD040F2EB272CA642461468009722
:20332C000196029053464D4618682A8802A3A0470DB0BDE8F08FC04670726F6A6563745F31
:20334C007A65726F2E6300C04572726F7200C046436F6E6E656374656420616E6420616475
:20336C00766572746973696E6700C046436F6E6E65637465642E2050656572206164647238
:20338C006573733A201B5B33326D25731B5B306D00C046C0436F6E6E656374696F6E20741F
:2033AC00696D6564206F757400C046C0446973636F6E6E6563746564202F2049646C650064
:2033CC004164766572746973696E670047415020697320737461727465642E204F757220D2
:2033EC00616464726573733A201B5B33326D25731B5B306D00C046C0DCB20000ACB20000DC
:20340C00400500003C05000044050000C8B2000084050000C0B20000730F0020F8B5A0F27B
:20342C00013517460E46022D40F214818A4A8B498B4B2D1F0F2D04D9143D4AD0AD1E1CD09E
:20344C0011E0DFE815F0C300BC00F400E400B300AB000701A2009A00100010009200880070
:20346C0079006F006300282880F2F480022E40F0F180398804F0ECFDF8BD012E40F0EA80D2
:20348C0015462879012800F0E58051793878507181B9002800F0DE809078012800F0A98071
:2034AC00042800F0A680062800F0A380052800F0A080F8BD3878002840F0CC809078032804
:2034CC0000F0A280072800F09F80052800F09C80F8BD012E40F0BE803878012840F0BA80C2
:2034EC00154605F1F00005F095FE002840F0B2802C46002004F13E0103F0CCF8002840F098
:20350C00A98004F1CC0005F0D8FFF8BD022E40F0A18038880A28C0F29D80B0F5486F00F3A3
:20352C00998015E0022E40F095803888B0F5FA7F80F290800880F8BD022E40F08B80388834
:20354C000628C0F28780B0F5486F00F383801946891C0D4638E0022E7CD13888062879DBF8
:20356C00B0F5486F76DC1946F3E7012E72D1387806286FDA891F0D460EE0012E6AD13878BC
:20358C00042867DA15460B3506E0012E62D1387808285FDA15460A352870F8BD012E59D176
:2035AC003878042856DA1546093506E0012E51D1387804284EDC154608352946DBE7022E24
:2035CC0048D13888154612352946B3E7012E41D11546687901283DD011793878107161B9D3
:2035EC00002837D09078012803D0042818BF052830D1012005F026FDF8BD387850BB9078AA
:20360C00022818BF052825D105F0DCFDF8BD154605F1870400211F22204603F0BBF839462E
:20362C003246204602F070FD0020EE710EE0154605F1680400211F22204603F0ABF839463A
:20364C003246204602F060FD0120AE713146224603F022FFF8BDC046F80B00203C0C0020B8
:20366C00380C00202DE9F04F804609AF0846ADF1340D0A9397F808B00992B98808903F88BB
:20368C000B9103F0B9FE06467C497B48DFF8F491DFF8F4A1814ADFF808C200240FF2681E25
:2036AC00002E0588C8888988079538D0761E1FD073480168D5B148460068014216D050465C
:2036CC000068014204D171480068008801420DD071484FF4EA7745A6056800976D4B0196FA
:2036EC006B4F02941A8838683BA3A8470A206FE005461046079E0168002E37D0484600680C
:20370C00014233D050460068014204D15F480068008801422AD040F2CF134AA214E00D4626
:20372C001046079E01680EB34846006801421DD050460068014204D154480068008801424D
:20374C0014D04FF4E27341A2604606680093CDF804E00292CDF80C800497CDF814B04D4B0D
:20376C0006941A884A4B18681BA3B047BD420EDB0B98E91B8142D4BF8AB2021C0A980280D4
:20378C000898C1680998C91902F0BEFC1FE03C48079F0168D7B148460068014216D0504656
:2037AC000068014204D139480068008801420DD039484FF4ED7727A605680097354B0196DC
:2037CC00334F02941A88386803A3A847072420460DB0BDE8F08FC046627574746F6E5F7308
:2037EC006572766963652E6300C046C041747472696275746520776173206E6F7420666F63
:20380C00756E642E00C046C052656164417474724342203A20257320636F6E6E48616E646A
:20382C006C653A202564206F66667365743A202564206D6574686F643A203078253032789C
:20384C0000C046C0425554544F4E3100425554544F4E3000416E20696E76616C6964206F38
:20386C00666673657420776173207265717565737465642E00C046C0DCB20000881300208A
:20388C00A8B20000400500003C05000044050000C8B2000084050000C0B20000ACB2000020
:2038AC00C4B200002DE9F04F804609AF0846ADF1340D0A9397F808B00992B98808903F8867
:2038CC000B9103F0C1FD06467A498448DFF8EC91DFF8ECA17F4ADFF800C200240FF2641EF3
:2038EC00002E058888884988079538D0761E1FD071480168D5B148460068014216D050469C
:20390C000068014204D16F480068008801420DD06F484FF4E57744A6056800976B4B0196C3
:20392C00694F02941A8838683BA3A8470A206FE005461046079E0168002E37D048460068CB
:20394C00014233D050460068014204D15D480068008801422AD040F2C51349A214E00D46F1
:20396C001046079E01680EB34846006801421DD050460068014204D152480068008801420D
:20398C0014D04FF4DD7340A2604606680093CDF804E00292CDF80C800497CDF814B04B4BD3
:2039AC0006941A88484B18681BA3B047BD420EDB0B98E91B8142D4BF8AB2021C0A98028094
:2039CC000898C1680998C91902F09EFB1FE03A48079F0168D7B148460068014216D0504637
:2039EC000068014204D137480068008801420DD037484FF4E87726A605680097334B0196A6
:203A0C00314F02941A88386803A3A847072420460DB0BDE8F08FC046646174615F736572F2
:203A2C00766963652E6300C041747472696275746520776173206E6F7420666F756E642E88
:203A4C0000C046C052656164417474724342203A20257320636F6E6E48616E646C653A2072
:203A6C002564206F66667365743A202564206D6574686F643A2030782530327800C046C0BF
:203A8C0053747265616D00C0537472696E6700C0416E20696E76616C6964206F66667365CE
:203AAC007420776173207265717565737465642E00C046C048120020A8B20000400500001C
:203ACC003C05000044050000C8B2000084050000C0B20000ACB20000C4B20000DCB2000079
:203AEC002DE9F04F804609AF0846ADF1340D0A9397F808B00992B98808903F880B9103F00C
:203B0C001BFD06467B497A48DFF8F091DFF8F0A1804ADFF804C200240FF2641E002E058826
:203B2C0088884988079538D0761E1FD072480168D5B148460068014216D050460068014268
:203B4C0004D170480068008801420DD0704840F2A11744A6056800976C4B01966A4F02948F
:203B6C001A8838683BA3A8470A206FE005461046079E0168002E37D048460068014233D091
:203B8C0050460068014204D15E480068008801422AD04FF4CE7349A214E00D461046079E7F
:203BAC0001680EB34846006801421DD050460068014204D1534800680088014214D040F2AF
:203BCC00911340A2604606680093CDF804E00292CDF80C800497CDF814B04C4B06941A8827
:203BEC00494B18681BA3B047BD420EDB0B98E91B8142D4BF8AB2021C0A9802800898C168C4
:203C0C000998C91902F080FA1FE03B48079F0168D7B148460068014216D050460068014230
:203C2C0004D138480068008801420DD0384840F2A71726A605680097344B0196324F0294A6
:203C4C001A88386803A3A847072420460DB0BDE8F08FC0466C65645F736572766963652E56
:203C6C006300C04641747472696275746520776173206E6F7420666F756E642E00C046C00F
:203C8C0052656164417474724342203A20257320636F6E6E48616E646C653A202564206FDE
:203CAC0066667365743A202564206D6574686F643A2030782530327800C046C04C4544318F
:203CCC0000C046C04C45443000C046C0416E20696E76616C6964206F6666736574207761F2
:203CEC0073207265717565737465642E00C046C0DCB200000C140020A8B2000040050000F2
:203D0C003C05000044050000C8B2000084050000C0B20000ACB20000C4B200002DE9F04F6F
:203D2C000128ADF1140D40F0F280DFF81492D9F8DC00012840F0E9800220C9F8DC0005F04D
:203D4C0085FC0290012003F007FE20B101210646C9F8DC10D5E005F075FC03906E484FF09C
:203D6C000008C0F80080012005F04AF8012818BFCDF8008004D1404603F06CFA01200090F5
:203D8C0066486E4CC0F800801934D4F8FF0F112005F0F8FA00280CBF46460126102005F06D
:203DAC00F1FA08B146F002060F2005F0EBFA08B146F004060B2005F0E5FA30B1584800682B
:203DCC005849006B0246088890470A2005F0DAFA0028404618BF01204FF0805B0BF5DC7518
:203DEC0028B128685049006B0246088890474F480127076028688069014646F02000884790
:203E0C004B48076005F0B8FA00F001010191400815D2484805F047FA8246BAF1040FF8D02E
:203E2C00BAF1010F06D1DBF8D801406802464148032190474049086820F0030008604046CA
:203E4C0000F08EF92868D4F8FF1F806B8047019801280ED0BAF1010F06D1DBF8D80140682D
:203E6C0002463448394690473349086840F0030008602A48076028684069014630468847F7
:203E8C000B2005F07FFA28B128682649C06A0246088890470A2005F075FA28B1286822496A
:203EAC00C06A024608889047204807600322C9F8DC201F4BC3F800802868406B01463046CF
:203ECC0088470128F8D1042003F046FD124807601A48D4F8FF1F01688909FCD30098012823
:203EEC0002D1384603F0B6F905F040FA082003F033FD06460398C9F8DC7005F09FFB03F0D3
:203F0C009FF8029805F096FB02E0042600E00126304605B0BDE8F08F0C4009400002224380
:203F2C00B801001052AF00004EAF00002820086080010443004003402422084014100940B8
:203F4C00381100202DE9F04F05460F467948DFF8F0B1DFF8F0A1DFF8F091DFF8F0817D49F0
:203F6C00ADF1240D0FF2681C2E1C089202887B48079238D0761E1FD06F480168171C00F049
:203F8C0087806E480068014200F0828058460068014204D1504600680088014278D06C48D8
:203FAC004FF48C7740A604680097434601964F4602951A88386862E00968041D002AA4F1A5
:203FCC00030635D05D480068014231D058460068014204D1504600680088014228D04FF454
:203FEC008A7342A213E00968841C064602B35348006801421CD058460068014204D15046E9
:20400C0000680088014213D04FF4867339A2524805680093CDF804C002920397002304935C
:20402C000593069343461A884B4618681AA3A847022F00DA37BB414D3F4C07982A6821688B
:20404C00061C25D0114223D058460068014204D150460068008801421AD03F484FF4927654
:20406C000468009625A5019502970123039300220493464605924D4606923288286806A385
:20408C00A04705E0089930463A4602F03DF8278009B0BDE8F08FC0466C65645F73657276AC
:2040AC006963652E6300C046536574506172616D657465723A20506172616D657465722044
:2040CC00232564206E6F742076616C69642E00C0536574506172616D65746572203A20252D
:2040EC0073206C656E3A20256400C0464C45443100C046C04C45443000C046C04C656E67DC
:20410C007468206F75747369646520626F756E64733A204C656E3A202564204D696E4C659E
:20412C006E3A202564204D61784C656E3A2025642E00C046DCB20000A8B200004005000079
:20414C003C05000044050000C8B2000084050000C0B20000ACB20000C4B200000C14002040
:20416C002DE9F84F07467F48DFF8EC8135380068800880F0E28004F025FC05467D480830F2
:20418C00D0F800A000244FEA2A725FEA9A5002F101020AD2C5F13E0015F10A0F4FEAE00081
:2041AC00D8BF08208242B8BF021C684ED6F87C01C0F3046005F070F803463068C0F304408E
:2041CC0005F06AF89A188346162A05DA12F10A0FB8BF6FF0090200E015225D4B5D4802F08F
:2041EC001F0141F4F8511980006810F0030F18BF0124C00828BF44F002040FB144F0040421
:20420C00414691F90700281A052804DA8879A04208BF888870D0DFF844810F2DA5F10F09AD
:20422C002ADB09EB0510A0F1F0094FEA2920072888BF07200746062F88BF062758F827C08E
:20424C000423464603EB8703F3584FEA940EE708A3EB0C0303F0FF0624BFC3F307273E4434
:20426C004FEA540CA70824BFC3F307473E44670828BF06EB136605E000264FEA940E4FEAA2
:20428C00540C304658F820805FEA5E0708F0FF0324BFC8F307273B445FEA5C0724BFC8F30F
:2042AC0007473B44670828BF03EB1863B6B2A9EB0027ABEB02007E43002806F1800603EB57
:2042CC001623D8BF012034220AF0FF0742437A43B2FBF3F04FF6FF72824238BF101C802D6F
:2042EC0080B2888005DA15F1800FB8BF6FF07F0500E07F25CD718C71194A12681F280A605D
:20430C004FF0000208D340F2FF11814206D24008521C8142FBD301E01F208880124F11496E
:20432C000F38000942EAC00247EA0200C1F8FB0F0026C1F8FF6FBDE8F88F0D4F0B4E414688
:20434C0008203760891D0870BDE8F88F3C1100506E620840242208403C2300209C13005087
:20436C00082009403500094000E7A48030100940FDFDA400AC3F00502DE9F04F0D46824665
:20438C00DFF89881684CDFF8A491287809AF9B46ADF1240D0228079207D140466B680688D7
:2043AC00188842F60211814224D0284603F024F85B48474601683888D0B15A4800680142AB
:2043CC0016D02068014204D148460068008801420ED05948046840F2132733A6002500979E
:2043EC00544B0196524F02951A88386829A3A0470A204CE051480068002E80462BD0494877
:20440C00006818EA000F26D0206818EA000F05D148460068008818EA000F1CD03879FE2860
:20442C000CBF28A62EA6284602F0E6FF444940F201230C6800932DA201920290CDF80CA06F
:20444C00002104963B4B0591394E06911A883068414610A3A04738880090079A5B462946FF
:20446C00504602F09DFC06463648076876B96FB1786858B1284602F0BFFFCDF800B07C6827
:20448C00079B02464FF489515046A047304609B0BDE8F08F627574746F6E5F736572766915
:2044AC0063652E6300C046C041747472696275746520776173206E6F7420666F756E642ED7
:2044CC0000C046C02D20726573746F72696E6720626F6E64656420737461746500C046C04D
:2044EC002D204F5441207772697465005772697465417474724342202843434344293A2031
:20450C00706172616D3A20256420636F6E6E48616E646C653A20256420257300DCB2000058
:20452C00A8B20000400500003C05000044050000C8B2000084050000C0B20000ACB2000073
:20454C00C4B20000901300202DE9F843814604F007FF002100B901216B4E30680028FCD0C3
:20456C006C4D01242D1DEF6A346009B104F0FEFEDFF89881C7F3072008F1BC01086004F08D
:20458C00EFFE002100B9214630680028FCD02F68346009B104F0EAFEC7F38440C8F8C00096
:2045AC0004F0DEFE0146002001B92046014630680028FCD0ED69346009B104F0D7FEC5F3A0
:2045CC008120C8F8D000B9F5C061C8F8B81000F0968098F8D80068B9C8F8D410D8F8C00084
:2045EC00C8F8C800D8F8BC70C8F8C470D8F8D060C8F8CC60D8F8D410D8F8BC60002954BF6F
:20460C0002206FF00100454605F1C8031A6801EB41014018411000EB917002EBA0021A6072
:20462C00D5F8C810C5F8C46000291CDD1E293DDDD5F8CC0030B93429B4BF15391E21C5F8C9
:20464C00C81025E02A29BABFD5F8C8000B381E20C5F8C800D5F8C4003F28B4BF401C3F20E4
:20466C00C5F8C4001FE0D5F8CC00032812D011F10B0FC6BFD5F8C8000B30201CC5F8C800D6
:20468C00D5F8C4000028CCBF401E0020C5F8C400032009E011F1150FC6BFD5F8C80015303A
:2046AC00201CC5F8C8000020C5F8CC00B5F8C400174E30214FF47F4208230090304603F035
:2046CC00DFF8009404214FF400321123304603F0D7F8B5F8C80004214FF4F80212230090C1
:2046EC00304603F0CDF8B5F8CC0020214FF440620A230090304603F0C3F8BDE8F8830020C0
:20470C0088F8D800BDE8F88300800C403811002000A00C4000A00C402DE9FC416F4C204694
:20472C0004F0C9FE15460E46009004F09FFF05F001078046B6F1FF3F0DD1606820B9B4F90D
:20474C001200401C06B202E06068B0F91C6064490020C91C0870304604F0B2F803260028C9
:20476C0000F0A4806168814270D0009FDFF848C1B84231D03FB100990A68904209D00968BC
:20478C0000290091F7D1832E44D0404604F06AFF40E0604604F0E8FA00990868AA0803D2B7
:2047AC0002680B4601461A6000220A60009078B10C340146C87F40F00400C877684604F049
:2047CC0005FC0146204603F013FD00980028F0D1404604F047FF1CE0604604F0C5FAA808D6
:2047EC003ABF2068006800202060404604F03AFF0C340099C87F40F00400C877684604F03C
:20480C00E5FB0146204603F0F3FC009808B1A808EFD2832629482C4A007890B92848007822
:20482C00012846D02748FBF75FFC0221104604F039FC2648007801283BD02548FBF754FC06
:20484C0037E01046022104F02DFC32E0A90803D32168009100262660C27F0121B940114390
:20486C00C17704F0EFFE0646002F14BF19481A4804F0BCF8404604F0F5FEA80811D30098C1
:20488C0078B10C340146C87F40F00400C877684604F09CFB0146204603F0AAFC0098002863
:2048AC00F0D1304604F0CAFE832602E0404604F0D9FE3046BDE8FC81742200206A23002022
:2048CC0069230020752400000C2200206B2300200D590000010002040100010404230020D1
:2048EC00B42200202DE9F84F9A4693460D46044604F0BCFEDFF85C810AAFB8F91220B8F954
:20490C001010009040F6F870891A0840082880F29280B8F91000401C6FF31F30A8F8100020
:20492C00B8F9109004F0E0F9064604F1700004F01BFAB56086F81EB0C6F804A0F460A6F8DE
:20494C001C9097E80C0051A003C800251040F577D8F8002006F11007194087E80300002A84
:20496C005CD14046314603F043FC00285BD0A4F894904448F17F0778DFF8DCA041F080013C
:20498C00F17784F8965067B151460F784FB1344A3449324B0570012015700A781870521C00
:2049AC000A70009804F05EFED8F8040000284ED15146087800282DD12B480078012846D007
:2049CC0004F054FE054629480078F8B9B06802F06BFC284B2C4A26491B681268086038B981
:2049EC00284604F03FFE2448042104F05BFB2EE0D0680968214C091AB1FBF3F1204604F000
:204A0C002DFE204604F026FE28461EE01C4901200870F9E7192004F005FC18E04046314674
:204A2C0003F0E6FB50B9B8F9100000F6FF706FF31F30A8F810006FF0010905E0A4F89490F8
:204A4C00F07F40F08000F077009804F00BFE4846BDE8F88F042300206B2300206F230020CE
:204A6C0068230020712300206A230020692300204C2300209CB200000C2200207422002091
:204A8C006C2300206E2300205C230020F1EFFF9F200000002DE9DF4F6548DFF88CC1DFF881
:204AAC0074B1DFF874A1DFF87491DFF87481DFF874E1078856480E1C32A313D10168002F5D
:204ACC005DD058460068014259D050460068014204D1484600680088014250D040F20257A9
:204AEC002CA62DE0012E17D0022E48D1002A46D10168002F43D05846006801423FD0504692
:204B0C000068014204D1484600680088014236D040F2135723A613E0A2B90168002F2ED0F9
:204B2C005846006801422AD050460068014204D1484600680088014221D04FF4A16725A648
:204B4C00002212E039480168CFB158460068014215D050460068014204D148460068008809
:204B6C0001420CD040F20C5722A660460468009701967746464602923A883068A0470090BF
:204B8C00BDE8DF8F70726F6A6563745F7A65726F2E6300C050616972696E672073746172EB
:204BAC007465640052652D65737461626C69736865642070616972696E672066726F6D2042
:204BCC0073746F72656420626F6E6420696E666F2E00C04650616972696E6720636F6D70DC
:204BEC006C65746564207375636365737366756C6C792E0050616972696E67206661696CA2
:204C0C0065642E204572726F723A202530327800ACB20000400500003C05000044050000E1
:204C2C00C8B2000084050000C0B20000A8B20000DCB200002DE9FC415E4C574D574EDFF8EE
:204C4C0060815A4F94F8E410481E0B2861D8DFE800F07B2C430623430623430676640429E6
:204C6C0007D001220A2945F8212C14BF0220032004E02021012045F8211C024684F8E200F3
:204C8C00002045F8390C0827C5F8FF7FC5F8F37F45F8392CBDE8FC81052914BF09200620B9
:204CAC00002584F8E400356070E094F8E1700120383D002FC5F81B0004BF0620002102D028
:204CCC000021F160032084F8E400032045F8010C31603068800859D294F8E40001250328C9
:204CEC000DD00021404660220523009102F0C8FD94F8E400062814BF0A200720D1E7022096
:204D0C000090002160220523404602F0B9FD0420C7E704F08BFCBDE8FC8122490026224894
:204D2C000E60012505600E2000F056FE022003F06DFC84F8E45084F8E360BDE8FC810020CD
:204D4C0038600C2578601FE01948006800680146202088472C3D41F61D560F2000214FF47A
:204D6C00C072072345F8010C4046C5F803600225009502F085FD404600214FF4C072072365
:204D8C0002F0FAFE0120386084F8E45004F1780004F060FCBDE8FC8139400C4038600C402C
:204DAC0000A00C402C500C4004800C4034600C40A0010010381100202DE9F04F5D4CE7681C
:204DCC000346ADF11C0D002F68D05148DFF848A1DFF84891DFF84881DFF848B1DFF848C1F7
:204DEC00DFF848E106882FA23BBB4A490968002E4ED05046006801424AD04846006801426E
:204E0C0004D1404600680088014241D0704640F2AC460568009627A3019338790290A07851
:204E2C00039000260496634605965F4606961E88386813463246A8472AE03D48016816B3C7
:204E4C005046006801421ED048460068014204D1404600680088014215D0704640F2B1468C
:204E6C00056800961EA6019638790290039300260496674605965B46069618683E8813460B
:204E8C003246A847E768397907F1080004F026F8E06804F047F80020E060A07007B0BDE845
:204EAC00F08FC04670726F6A6563745F7A65726F2E6300C053656E74206D6573736167655B
:204ECC002077697468206F70636F6465203078253032782E20417474656D707420256400B3
:204EEC0047617665207570206D6573736167652077697468206F70636F6465203078253086
:204F0C0032782E205374617475733A20256400C0DCB20000ACB20000400500003C050000F4
:204F2C0044050000C8B2000084050000C4B20000A8B20000C0070020F8B5414C201D036880
:204F4C00B3F1FF3F08BF002302F076FC002876D13C4E20683468070F04F0FF04802C28BF58
:204F6C00002402F069FC4FF0FF3578B1401E07D0401E012802D9801E13D014E08FB112E0D0
:204F8C00381C5CD0801E0ED114340BE03846401E55D0801E53D0001F51D0401E03D1163457
:204FAC0000E00A3465B2162D49DB27482749002501270560264E0F60264C3760206800281C
:204FCC00FCD1274A161D2449244F306820F0030001433868C0080CD2106810F0030F0AD0DB
:204FEC0041F003003060106800F003000328FAD101E041F001011B483160006820B11A48DD
:20500C0000681846FCF70CFE184819490560194F0A686FF35B4247EA020008601649086857
:20502C00C0F30130012806D10A681448104040F400320A60086020680028FCD1F8BDFEE713
:20504C0018130050A0100050840460425C600C40082204430C00684204000020B03F00500D
:20506C000040034080012843000120438C210840482003400000390104000940FFFFFCFC34
:20508C0070B5ADF1380D00F01FF9324908682822082340F00200086001A8002104F0C2FA80
:2050AC002D4EB0782E4907902C48002301AA04F0B5FA00213022082301A804F0ABFA002549
:2050CC0019213078284AADF81C5001AB09902548009504F09BFA2822082301A8294604F00E
:2050EC00A1FAF07822490790204801AA2B4604F095FA3022082301A8294604F08BFA012465
:20510C001A2170781C4AADF81C4001AB09901948009504F07BFA194819492A46134604F0D5
:20512C0071FA1848FAF7E0FF1849194E0C70164835704FF6FF728283C577164B1D70164C3A
:20514C00257016490D70174E3560154A15700EB070BDC046002009408EB200000C2200200C
:20516C0081900000B8220020818B0000402200202D5F0000D42200200973000074220020B6
:20518C00798600000D59000098220020682300206D2300206A230020692300206E2300205F
:2051AC006F230020502300202DE9F04F0C464549CA7AADF12C0D84460592487B09900D790B
:2051CC0000958A7A488B4B8A0E7B91F805A091F802800492B1F846E008904A7A088B0392D7
:2051EC00CD7807900A7AC88A02920F6A0690CA79888A01928A79E146A9F54079B9F11D0F0F
:20520C0010D8DFE809F05B5553514F4D4B494643413F3C3A380F34312E2B2923201E1C0F1D
:20522C0019181716BCF1280F49DA604602F004FD21E0099EB246D046CDF814801DE00898B8
:20524C00079007980690DDF818E005E03831086820608888A08032E070460AE0B1F844009C
:20526C0009E0B1F8420004E0B1F8400001E091F83E00034612E0208021E005980490049830
:20528C00039001E03231E2E7039802900298009006E0019A87310DE068310BE01846EAE732
:2052AC00009D0BE02C31D2E7276008E0583100E048311022204600F027FF00E025700BB015
:2052CC00BDE8F08FF80B00202DE9F041444C94F8E700ADF1280D00286FD1394F387B012595
:2052EC000021242284F8E7507E6884F8E6000823C4F80C6101A804F081F9002604F10C00AE
:20530C00069601ABADF814602E490796324604F079F92D4904F1300001AB324604F072F910
:20532C002A4904F1540001AB324604F06BF9B868014628468847DFF89C8025487B7B0078B7
:20534C00D8F80410C1F381571BB1032F03D184F8E150032F16D0022F14D0012F26D10320DB
:20536C001D4C009031464FF040521C23204602F087FA009531464FF400720923204602F083
:20538C007FFA13E0022003F059F9032F0CBF4FF47A7142F21071114800685434B1FBF0F178
:2053AC00204604F05BF9204604F054F9D8F80000C00802D2304603F041F90AB0BDE8F081AD
:2053CC001CB20000437B0000096400002566000070230020B03F005000A00C409CB2000011
:2053EC00381100202DE9F0430746880FADF1140D75D302F08BF9404D00261C352E6039487B
:20540C0045F81C0C012000F088F93748FAF76CFEBC68B14640F60A01344A6680537B118090
:20542C0090465680107BC2F8049003F0F00300F0F000107343F00103537300E01C46636888
:20544C0013B118888142F9D1C4F80480607B00F0F0006073264804F02EF880680088C91FA1
:20546C0081421DD0491C81421AD03B8CC3B197F82C107E8497F82D00C7F8249001F0F00145
:20548C0000F0F00087F82C1040F0010087F82D0007F12003C8F80430507B00F0F00050730B
:2054AC00B868694603F010FC684603F0ABFEB86800F00FFF28680028FCD02E60012003F084
:2054CC009FFC012808D0607B00F0F00040F0010060730848FAF708FEB86845F81C0C05B0E4
:2054EC00BDE8F08301010E047524000018230020042300205D710000001004402DE9F041D0
:20550C0003F04CFD3F4D3E4EDFF8FC800446A00820D330464168E9B1002242608B690A690F
:20552C000F6922401A4342F0020205F108038A611A68BA4301F110071A6097E80C002A68E7
:20554C000C301B1C9A432A6002F052FE4046022103F0A8FD7068A10815D200F1100191E8FF
:20556C000C00002702EA04013B40002B08BF002909D081691440B0600C4384614FF4804106
:20558C00404603F08FFD7068002837D1304603F092FF071C32D01E48F9680068884228D1E1
:2055AC00B86801F081FE19490860E8B905F1080138690A68104308602B6807F1100494E8FC
:2055CC000300081C1843286000222A61B86845F80C0C05F1100000680028FAD0304603F0CA
:2055EC00F5FC7760BDE8F081086801F00BFCBDE8F08140464FF4805103F054FDBDE8F0814F
:20560C00042300200C1004400C2200204C2300205C2300202DE9F0430646ADF11C0D03F00C
:20562C00E9FF02F0ABFF4FF000090546CDF80C9003F0CCFE30F0010002D00398A84202D1DE
:20564C006FF0040066E070684C4658B1B0F1FF3F05D004A902F07AFF30B1804659E04FF037
:20566C00FF3000E02046049003F0C0FF04994FF00108471802E00A463BE0049368680499CE
:20568C0003F0B0FF00282DD0684601F0B9FDD8B99DF8040005A902F0F5FC88B9B368BDF816
:2056AC0014009DF80610029A984748B1BDF814009DF80670B081029BB773C846336111E04C
:2056CC00029903A803F0BAF80498641CB0F1FF3FD4D00028D2D003F089FF3B1A02D004982C
:2056EC009842CAD2039F03F0D1FB05F1080647B13A4652F80C1C0029BDD1316842F80C1C27
:20570C00376003F0E7FC24B1686803F067FF641EFAD1404607B0BDE8F083704734482DE927
:20572C00F0410E4601683348008806AF98461546ADF1200DF8B13048006801421BD02F4885
:20574C000068014204D12E4800680088014212D02E4840F221530468009311A20192029639
:20576C0003950023049305930693274B1A88254B186807A3A047CDF80080388832462B4617
:20578C000190002001F010FD08B0BDE8F081C04670726F6A6563745F7A65726F2E6300C013
:2057AC00284342292043686172616374657269737469632076616C7565206368616E67657B
:2057CC003A20737663283078253034782920706172616D4944282564292E2053656E646944
:2057EC006E67206D736720746F206170702E00C0ACB20000DCB20000400500003C0500009D
:20580C0044050000C8B2000084050000C4B200002DE9F043814634480E4601683048008871
:20582C0007AF98461546ADF11C0DF8B12F48006801421BD02E480068014204D12D4800681D
:20584C000088014212D0274840F22E530468009311A201920296039500230493059306930D
:20586C00254B1A88254B186807A3A047CDF800803888494632462B460190012001F094FCD9
:20588C0007B0BDE8F083C04670726F6A6563745F7A65726F2E6300C02843422920436861BE
:2058AC007220636F6E666967206368616E67653A207376632830782530347829207061724B
:2058CC00616D4944282564292E2053656E64696E67206D736720746F206170702E00C04672
:2058EC00DCB20000C4B20000ACB20000400500003C0500004405000084050000C8B2000068
:20590C00042998B54CD1274803F0D5FD264C48B9264800F11F010978490838BF206803D397
:20592C00406800E0C06820604168214A09781160416812680978914206D0876927B124A24A
:20594C000CCA6FF0FF01B847022002F077FE112000F0ACF801222168164B087C1A7018B1D5
:20596C0015480078012803D00E2000F09FF82168496812488F680FB9CF681FB10021C161F8
:20598C000F4F07600F4A40F2FF711160002787610D4941610D48FAF7A7FB192003F01AFE97
:2059AC0098BDC046042300205C23002098220020D02108406A2300206D23002000100440D6
:2059CC00510007060000046002000040F153000000000000000000022DE9F843044603F0E3
:2059EC0045FE81462D48021992F8ED10491ECFB2002F82F8ED704BD12B4D05EB84052E78D9
:205A0C00698836F07F0788461AD1F10911D24FF08054D4F8B801806901464046884704F531
:205A2C00DC742068406B0146404688470228F8D121E000EB8800D0F80011002088471AE012
:205A4C004FF08054D4F8B801006A014640468847D4F8B801806A014640468847D4F8B8010C
:205A6C00006B01464046884701210D4A0D48116001688908FCD306F03F003F2801D0FFF7A8
:205A8C00ABFF687800F03F003F2801D0FFF7A4FF484603F0E7FDBDE8F883C046381100207C
:205AAC00282008602820084024AF00002DE9F041064603F0DBFD2D4D8046A91991F8ED00F1
:205ACC00421C002881F8ED204AD1294C04EB8604277807F03F003F2801D0FFF7E7FF6078E4
:205AEC0000F03F003F2801D0FFF7E0FF668837F07F001AD1F80911D24FF08054D4F8B80163
:205B0C00406901463046884704F5DC742068406B0146304688470128F8D121E005EB8605CE
:205B2C00D5F80011012088471AE04FF08054D4F8B801C069014630468847D4F8B801406A15
:205B4C00014630468847D4F8B801C06A0146304688470121074A0848116001688908FCD375
:205B6C00404603F07FFDBDE8F081C0463811002024AF000028200860282008402DE9F04145
:205B8C00DFF8B080044698F800001F4615460E46ADF1380D012804D0FFF772FA404601211A
:205BAC0001704EB166603DB1A56003F05FFD224A117819B103F056FD002038E0491CC9B244
:205BCC00117003F04FFD01251FB9684603F0B8FA6F46386820607868E060387A2074F8680D
:205BEC006061386900B1A0610021782204F1200000F0D0FD05A800212422082303F0E6FCE4
:205C0C0004F138008DF82C50002105AA03F0DAFC05A800212422082303F0F0FC04F170002E
:205C2C0006490B94002205AB03F0ECFC20460EB0BDE8F08145170020722300205794000067
:205C4C002DE9F0412A4829492D4C00250860032004F1180141F80C5F401E8D60FAD1241FD9
:205C6C00062004F14C010A46401E22F80C5BFBD10820204F0880204A8F602049121D22F093
:205C8C000303CF1A6762E3612362E66904F12008944618460A4601E026F8025BB142FBD861
:205CAC00B910E82700EB810121F8045C4FF6FC761F8006EA0C0300F1E807D21A676106EA41
:205CCC000201EC39A0F8E810284600F023FCA061D8F80000606100F0F3FE01F02DFF02F001
:205CEC007DF803F06BFC2846BDE8F08104150020AD790000B58C000073230020483F002048
:205D0C00F8120020F8B503F02BFB03F035FB044604F00C000C2845D0E0081ED202F0FCFD0E
:205D2C00234E376805460120014603F03CF831686943884211D21F4C8220B0FBF7F0291A99
:205D4C00204603F08BFC204603F084FC0120FDF7E5FF204603F008F825E0200922D21648AC
:205D6C00610939BF016821F00101016841F0010102460160D2F898004FF0805440F003004C
:205D8C00C2F89800D4F8B8018069014620208847D4F8B801094C806B21688047012020602B
:205DAC00206800E030BF03F0E1FA00F0F5FEF8BD9CB20000441100208C2108402C200940CD
:205DCC002DE9F0410E462A4990461C4606AF8C4672680878BB8851783F881278002502EB21
:205DEC00012242F62321521A2AD0521E052A19D9921F0DD0263A35D1072F31D8C7F107000F
:205E0C00984298BF83B20CEB070000F1080121E0B84225DBC01B9842D8BF83B22380DCF825
:205E2C0004100BE0F06803F09FF980B2B84217DBC01B9842D8BF83B22380F168C9190AE00D
:205E4C00082F0DD8C7F10800984298BF83B20CEB07010F31238040461A4600F055F903E00B
:205E6C00072501E025800A252846BDE8F081C046640F00202DE9F04F064609AF92468B4616
:205E8C00002EADF1140D3888D7F8088002933D7903903FD0BBF1000F3CD0181C3AD0B8F157
:205EAC00000F37D01D480178002431E0A0008719305A4FF6FF71814226D0BB7823B30298D2
:205ECC000399C268934504D0491E00F11000F8D11AE05FEA000917D0B878410809D30095F6
:205EEC00CDF804803888012152464B4600F03CFAB878800808D30095CDF8048038880221C8
:205F0C0052464B4600F030FA04480178641CE4B2A142CBDC05B0BDE8F08FC046F80B0020CB
:205F2C00F8B503F0A3FB224C0746A06910F4602F25D0A069400CC6B2700807D2B00803D220
:205F4C00F00828BF022602E0012600E00026751D68B201F0FDF9A16906F111020120904087
:205F6C0081433846A16103F07DFB04EB8600876847B1606810A20CCA2946B84702E03846EC
:205F8C0003F070FBA06918B10A48002103F08AF8E07F80080BD367692FB1606808A20CCA20
:205FAC006FF00101B847E07F00F0FD00E077F8BD98220020402200200000000000000008B9
:205FCC0000000000000000802DE9F04114460F4603F04CFB1FFA80F81F480068007808B96C
:205FEC0002F038FFE7B138684FF0FF3518B140280AD3810B08D17E681EB1310A04D0310E4B
:20600C0002D1B9680F2908D93DB10CB1284620700820FFF7E1FC002418E07968BA6803E0C1
:20602C004FF480700122014602F0D8FA0B49012008600B4908684008FCD30A4800684168D8
:20604C00022088470CB1002121700446404603F009FB2046BDE8F0812CB20000A802504277
:20606C0008800240CC010010F0B520480127F84201D001F071FB204D204F214EBD4206D2AE
:20608C0003CD0478A4003459401CA047F6E71D48002800D08047164D164FBD4202D210CDBB
:2060AC00A047FAE7F0BD03251BE0416808300A1C2A400BD11A1C2A40AB4305D004680430EC
:2060CC000C600431043BF9D1131C05D0047801300C700131013BF9D1021C2A4001D0A84361
:2060EC0004300368002BE0D17047C046FFFFFFFF000000000000000010B7000070B7000072
:20610C00CCB6000059C50110002A4AD05FEA000C8B071CD1830722D1102A08D370B4103AAA
:20612C0078C978C0103AFBD270BC103238D0042A2CD3082A05D30C2A24BF08C908C008C993
:20614C0008C008C908C092072AD0920F22E00B780370491C401C521E22D08B07F7D1C3075F
:20616C0014D18307D8D0121F12D308C903801B0C4380001D121FF8D20AE008C903701B0A3D
:20618C0043701B0A83701B0AC370001D121FF4D2121D05D00B780370491C401C521EF9D1C7
:2061AC00604670472DE9F8432020EFF3118780F31188214CA068012103F0FCF94FF0010997
:2061CC004FF0000865692168A4F81C906A1A2168A4F81E80461B401A904227D387F31188EC
:2061EC0040462D18361A4846294603F0DFF9B042F7D92021EFF3118781F31188E18B012990
:20620C0003D14046294603F0D1F9B0F1FF3F06D0A169801B814238BF081C291801E0A06989
:20622C00411903F0BFF9A4F820902560A4F81C8087F31188BDE8F883780100208B4208BFE4
:20624C00824204D90B1C021C002100207047002B08BF002A0BD10B1C021C00210020002BAB
:20626C0008BF002A1CBFC943C04301F0E4BCF0B51C4615460B46024600200021B4FA84F642
:20628C00202E04BFB5FA85F62036B3FA83F7202F04BFB2FA82F72037F61BB6F1200727BFE7
:2062AC0005FA07F400257F42B4403EBF25FA07F73C43B540A34208BFAA4201D3521BA341B3
:2062CC00404149416D0845EAC4756408761EF1D5F0BD7047B0B50446A768ADF1280D5FBBF5
:2062EC000C2000F017F9071C1DD0684600212422082303F083F9002306976A466168ADF8C9
:20630C0010301848059303F049F9386070B90820ADF824000C25ADF8265009A802F0FEF86D
:20632C00384602F05FFA6FF0030018E0E06878602069B860A7600AE002F0A8FD05463868FA
:20634C0002F012FD2069B860284602F0C3FE3868616803F083F9386803F07CF900200AB0B4
:20636C00B0BDC046319300002DE9F04380462248001F046807AF1D4691460E46ADF11C0DCB
:20638C004CB106A8009042464FF6FF711B230120A047024600E00022059242B300200090AD
:2063AC00BDF818000190FF2402947C680DF1120329464046A047041C14D16889ADF810003C
:2063CC00700805D302F050FC1B210346009102E01D2000903B7840464A4604A901F0E2F91C
:2063EC00041C05D004A81B2102F078FD00E01524204607B0BDE8F083B01600202DE9984328
:20640C0003F034F91F4CDFF87880814604F1E000007850B94446A0680146022088470746E2
:20642C00102001F099FA2FB320E000F0DBFD002820460FD1144909683222B2FBF1F101B919
:20644C00012100F13004204603F008F9204603F001F90FE044460022A16880F8E0200220FE
:20646C0088470746102001F077FA1FB1A068014603208847484603F0F5F8BDE89883C0461D
:20648C001CB20000381100209CB2000070B51E4DAC68064602F06AFD4FF47A71001B48434E
:2064AC00030C02F08FFA2969401A48BF404240F6B831F618B14210D306280EDAE9688C4299
:2064CC000BD8286848B1114A091B51438A0C02EB1141884288BF011C08E00D4948684008F8
:2064EC000ED208687D2100F0FF004143C82905D3B1F57A6F88BF4FF47A6103E0C82101E0C5
:20650C004FF4FA61084670BDF022002040420F00AC3F0050F8B5001D84B214F0030002D07F
:20652C00241A241DA4B202F0B1FC1A49102C02464F690A61C8BF8F69388800231E46C10B3F
:20654C00CD0319D126B984420ADD3B46012617E01988091889B28C42198011DC1F46084646
:20656C009FB1001B80B20428B4BF3C88385344F400443C803F1D08E080F40040002680B2FC
:20658C003F1838880028DAD10027104602F0A2FD3846F8BDF41200202DE9F041984616461D
:2065AC000F46044603F04EF80546384602F088F942463146071C03D1284603F03FF824E029
:2065CC00F87F10F0070F19D112487B68984202D07B682366786004F1580080E806002846E2
:2065EC0003F02CF804F138004FF0FF3102F0FAFF04F1680797E80300BDE8F081284603F094
:20660C001DF8F87F10F0070FFBD102200021BDE8F081C046E57500001CB5042002F0F0FB75
:20662C00022818D0032816D016480068C0F38150032814BF41F288324FF47A721248144C0D
:20664C00016854342046B2FBF1F103F007F8204603F000F81CBD03200C4C009000214FF0C1
:20666C0040521C23204601F00BF9012000214FF4007209230090204601F002F9022001F0CA
:20668C00C5FF1CBDB43F00509CB2000000A00C40381100202DE9FF410E4605461A4C718817
:2066AC00E08A81420CDCB188814209DBF088218B884205D13089618B884208BF18271FD0B1
:2066CC00052001F0B9FA77888046F188B388ADF80270A08AADF806100C4AADF800003789B5
:2066EC00ADF8043011216846ADF8087001F069FE071C05D1A57304F1F000414601F020FCD6
:20670C0038460090BDE8FF81F80B00209F9400002DE9F843884602F0A9FF1B4D6C78814618
:20672C0002F024FCE60006EB4416761906F1B8073860A888A6F8BC00A888401CA880B8F83F
:20674C000E00A6F8BE0008F110004EC808374EC70FC887E80F00AE7800271EB92878A04255
