:20000000483F0020B17A000001CA011001CA011001CA011001CA011001CA011001CA0110E6
:1C00200001CA011001CA011001CA011001CA011001CA011001CA01103FCA011082
:20003C001FB58DF80C002448016824480088E0B123480068014218D022480068014204D1FD
:20005C0021480068008801420FD0224840F2E743046800930CA201929DF80C001C4B029069
:20007C001A881A4B186804A3A047032003A9012207F054FD00901FBD70726F6A6563745F53
:20009C007A65726F2E6300C02843422920474150205374617465206368616E67653A20253F
:2000BC00642C2053656E64696E67206D736720746F206170702E00C078B40000A8B400006B
:2000DC00400500003C0500004405000094B40000840500008CB40000014908607047C046B5
:0400FC00F4250020C7
:200100003C000000000000000000000034010000000000000000000001000000000000006D
:1C01200000000000000000000000000001000000000000000800000000000000BA
:20013C00340000000000000000000000680100000000000000000000010000000000000005
:14015C00010000000000000000000000080000000000000086
:2001700030000000000000000000000098010000040000000000000001000000FFFFFFFFA5
:10019000FF00000001000000080000000000000057
:2001A0002C0000000000000000000000C4010000040000000000000001000000FFFFFFFF4D
:0C01C000FFFFFFFF08000000000000002F
:2001CC0034050000E401000099A1011095A70110A5C2011009B2011045B80110000000000B
:0801EC00000000002E000000DD
:2001F400280000000000000000000000140200000000000000000000FFFFFFFF00000000B1
:080214000800000000000000DA
:20021C00300500003002000069C201106DC101101FC2011095BA011000000000000000008E
:04023C002C00000092
:20024000300500005402000075C20110A9B601109DBF011049B601100000000000000000DE
:040260002D0000006D
:200264002400000000000000000000008002000000000000000000000000000008000000CC
:040284000000000076
:20028800240000000000000000000000A40200000000000000000000000000000800000084
:0402A8000000000052
:2002AC00240000000000000000000000C8020000000000000100000000000000080000003B
:0402CC00000000002E
:2002D00000000000C41800200400000000000000000000002000000070010000300000004D
:2002F0001C020000CC1800200400000000000000000000000C000000300400001800000070
:2003100040020000D4180020040000000000000000000000240000004804000018000000F3
:2003300000000000DC18002004000000000000000000000010000000A00100002C000000B8
:20035000CC010000E4180020040000000000000000000000200000006402000024000000F6
:20037000FFFFFFFFEC18002004000000000000000000000028000000880200002400000073
:20039000FFFFFFFFF4180020040000000000000000000000580000003C0100003400000058
:2003B000FFFFFFFFFC1800200400000000000000000000001000000060040000180000006D
:2003D000FFFFFFFF041900200400000000000000000000001C000000AC02000024000000E2
:2003F000FFFFFFFF0C19002004000000000000000000000038000000F40100002800000053
:20041000FFFFFFFF1419002004000000000000000000000054000000000100003C000000EE
:1804300018000000000000000000000040040000080000000000000050
:1804480018000000000000000000000058040000080000000000000020
:18046000180000000000000000000000700400000800000000000000F0
:08047800020000004CB400007A
:0404800009F0F9B8CE
:040484000100000073
:0404880000008C0FD5
:04048C000000BC0FA1
:040490003200000036
:040494000100000063
:0404980038180020F0
:04049C00000200005A
:0404A0000000000058
:0404A40001CA011078
:0404A8000000000050
:0404AC00000000004C
:0404B0000800000040
:0404B40000007612BC
:0404B80020170020E9
:0404BC00010000003B
:0404C00050180020B0
:0404C400080000002C
:0404C8000000000030
:0404CC00000000002C
:0404D0000000000028
:0404D4000000000024
:0404D8000000000020
:0404DC00010000001B
:0404E0008817002059
:0404E400060000000E
:0404E800010000000F
:0404EC008C1600204A
:0404F0000000000008
:0404F4000000000004
:0404F80000020000FE
:0404FC0000000000FC
:02050000704742
:020502002800CF
:020504000100F4
:020506002400CF
:020508002C00C5
:02050A002D00C2
:02050C002E00BF
:02050E000100EA
:0105100001E9
:080514000300000010B4000018
:08051C000000000000000000D7
:040524000000930D33
:040528000000AD0D15
:04052C0087C401106F
:04053000380500008A
:040534003805000086
:0405380000000000BF
:04053C0090610000CA
:0405400090610000C6
:0405440000000000B3
:040548005018002027
:04054C005B930000BD
:040550002000000087
:0405540074B300007C
:04055800D4B2000019
:04055C000DC30110BA
:040560008D96000074
:040564008F9600006E
:0405680099C801101D
:04056C009BC8011017
:040570000000000087
:0405740048980000A3
:0405780084B100004A
:04057C009CB100002E
:040580006CB100005A
:020584000280F3
:020586000380F0
:02058800C0179A
:02058A0001006E
:01058C00016D
:040590000000000067
:040594000000000063
:04059800000000005F
:04059C00000000005B
:0405A0007F96000042
:0405A4007D80000056
:0405A800318D000091
:0405AC002D8400009A
:0405B0008F85000033
:0405B400318800008A
:0405B800316A0000A4
:0405BC00CF940000D8
:0405C0008570000042
:0405C40011C8011049
:0405C80021C8011035
:0405CC000800000023
:0405D0002400000003
:0405D400180000000B
:0405D80028000000F7
:0405DC0020000000FB
:0405E0003C000000DB
:0405E4000C00000007
:0405E80034000000DB
:2005EC002DE9F04FADF17C0D00F016FD9148944904889148096806689048924A006806EA6A
:20060C0000070E9706EA01070F971768A74A1588A74A12681192A74A12681292A64A0D94C9
:20062C001268139202EA00040A401592A34A14941268169202EA00040A40A2491794A0483F
:20064C0018920068199056391A9194A110910820ADF820000A24ADF822404FF0FF33099394
:20066C0008A807F0D7FF0028F1D100200C900824ADF820400923ADF8223008A807F0CAFF87
:20068C00DDF828C0CDF86CC00028CDF830C040F02A81BDF824004FF00108102840F01B81C3
:2006AC00A8489DF826100078884240F01481644620884FF6FF71814200F091802378913B3A
:2006CC0070D01F3B40F0078160780D9A162840D020797E2824D07F2810D0131C5CD00E9B31
:2006EC00002B59D00F9B13B93888064254D040F2734000909CA3019320790FE0002A4BD0E3
:20070C000E9B002B48D00F9B13B93888064243D040F26E4000908DA301932089314610E00C
:20072C001399002A38D0149B002B35D0159B13B93888014230D040F269400090BFA3019310
:20074C00207A0290DDF848C0109B11982A46E04722E016999AB1179B8BB1189B13B9388870
:20076C0001420CD04FF48A60A1A30090DDF848C001932079109B029011982A46E0476088DE
:20078C00082108F0ADF838B9404604F0E7F86D484FF00008C4609EE0217904F1080008F010
:2007AC005BFC98E060780E2840F095800D9C002C00F091800E9C002C00F08D800F9C1CB9E2
:2007CC003888064200F0878040F23340C5A400900022DDF848C001943146029258E06088B1
:2007EC00000978D35748C468002C74D080785549B4F802B0401C887094F804A0102008F0BE
:20080C00C5FA04F10809041C1ED00221152208F051FEA4F808B084F80AA0C4F80C9008F08E
:20082C00C5FAC44A214607F093FB0446162C0CD10FE0C046A8B4000078B4000040050000C8
:20084C003C0500004405000004243E48C068042C3AD10D9C1699002C3DD0179C002C3AD077
:20086C00189C14B93888014235D036484FF49562C0680092C9A401940079324B02909878D7
:20088C0003900022049214460594DDF864C00692109B11982A46E0471DE0C04670726F6AD4
:2008AC006563745F7A65726F2E6300C08405000094B400008CB4000074B400007CB4000017
:2008CC0090B400006A0800204088002108F008F8204604F043F80C9C2CB1B8F1000F02D0B1
:2008EC001B9808F0DDFB1748806808F0A3FF00287FF4ADAE1348806808F098FF83460246AF
:20090C000D999BF808000BF10904002800F0C681401E00F01181401E00F0F980401E00F02D
:20092C000383401E00F0A880401E40F000830B1C45D00E9B002B42D00F9B43BB38880642CC
:20094C003DD001E0C007002021E0C0464D54552053697A65206368616E67653A2025642075
:20096C00627974657300C04652656365766965642047415454204D6573736167652E204F45
:20098C0070636F64653A2030782530327800A378002B0CBFBBA0BEA040F2BB2100220091B4
:2009AC00ABA30193DDF864C0029011460392109B0491119805922A4606913146E047B4F801
:2009CC000080102008F0E2F9041C00F0B0820121132208F06FFDA4F808800020A0720246ED
:2009EC00E26008F0E3F9AC4A214607F0B1FA9EE24F7574676F696E67205246204649464F0E
:200A0C002066756C6C2E2052652D7363686564756C65207472616E736D697373696F6E200E
:200A2C006F66206D73672077697468206F70636F64652030782530327800C046466C6F7793
:200A4C0020636F6E74726F6C2076696F6C617465642E204F70636F6465206F66206F6666F9
:200A6C00656E64696E6720415454206D73673A2030782530327800C0002902F1090423D0A8
:200A8C000E9B0BB30F9B13B9388806421CD020780D2814BF97A09AA06378002B0CBF9BA15B
:200AAC009FA140F23532BCA30092DDF864C0019300220290109B03911198049211460591B4
:200ACC00314606922A46E04723780D3B1CD05B1E40F02D8201200146641C224601F0C4FF39
:200AEC0025E2C04648434920436F6D6D616E6420436F6D706C657465204576656E7420721D
:200B0C00656365697665640001210020E4E7238841F210101B1A06D0103B40F00882207940
:200B2C006188641DD9E720796188621D07F0BAFDFDE1C046A594000023880FF2642E0FF274
:200B4C00742CA2A2B3F5895340D0103B40F0EF81B4F8050048B1401E04D0401E08BFCDF860
:200B6C0070E003E0CDF870C000E01C922079012840F0DD81002900F0DA810E9C002C00F029
:200B8C00D6810F9C1CB93888064200F0D0811C9940F20C4077A47EA2E9E0C046526574724F
:200BAC0079696E67206D6573736167652077697468206F70636F6465203078253032782E02
:200BCC0020417474656D707420256400B4F8050048B1401E04D0401E08BFCDF874E003E064
:200BEC00CDF874C000E01D9224799CB1641E40F09E81002900F09B810E9C002C00F0978193
:200C0C000F9C1CB93888064200F0918140F2AF30A8A20FE0002900F08A810E9C002C00F00A
:200C2C0086810F9C1CB93888064200F080814FF469709AA24FA49BA31D990090019402932F
:200C4C000392049100240594224606921DE1C046426F6E644D677220526571756573746586
:200C6C00642070617373636F64652E205765206172652025732070617373636F64652025C1
:200C8C0030366400446973706C6179696E6700C053656E64696E670097940000238841F2D9
:200CAC0010101B1A00F09B80203B40F040812379002B3ED05B1E40F03A81002900F0378172
:200CCC000E9B002B00F033810F9B1BB93888064200F02D8140F2DF300090B8A301936079D3
:200CEC000290A0790390E07904900022059211460691CAE0427574746F6E203100C046C0D9
:200D0C00427574746F6E203000C046C01B5B33336D72656C65617365641B5B306D00C0468E
:200D2C001B5B33326D707265737365641B5B306D00C085480021282205F018FD8248641D09
:200D4C002722214605F042F90D9C002C00F0EF800E9C002C00F0EB800F9C1CB938880642BA
:200D6C0000F0E58078494FF476708BA491A2A2A363E7C04643434344204368616E6765209E
:200D8C006D73673A2025732025733A20257300C053747265616D00C0257320257300C04622
:200DAC00496E6469636174696F6E7320656E61626C6564004E6F74696669636174696F6EE0
:200DCC007320656E61626C656400C0464E6F74692F496E642064697361626C656400A1784E
:200DEC001A9A601D05F060FF04F1050924790D9B0FF2142A0FF21428002C5FD0641E40F091
:200E0C0096801C1C1CD00E9CD4B10F9C14B93888064215D07E494FF45C705FA4009059A393
:200E2C005BA20194DDF864C00293002411980392109B049122460594314606922A46E0473D
:200E4C00744899F800200069072107F009F80D9C002C6CD00E9C002C69D00F9C14B9388838
:200E6C00064264D099F8004004B1C2464FF45E7040A300903BA401940293CDF80CA000223C
:200E8C0004921146059114460694DDF864C0109B119831462A46E04749E0C0464255545406
:200EAC004F4E3000427574746F6E205365727669636500C0425554544F4E3100E3B10E9CE1
:200ECC00D4B10F9C14B93888064215D0504940F2613031A400902BA320A20194DDF864C03D
:200EEC000293002411980392109B049122460594314606922A46E047464899F80020006960
:200F0C00022106F0ADFF0D9C8CB10E9C7CB10F9C14B9388806420AD099F8004004B1C2465B
:200F2C0040F2693009A3A4E7507A01F037FF0820ADF82000CDF824B00524ADF8224008A84C
:200F4C0007F068FBCFE4C0466A0800201B5B33316D4C4544301B5B306D00C0464C45443076
:200F6C0000C046C05475726E696E6720257320257300C0461B5B33326D4C4544311B5B304E
:200F8C006D00C0464C45442053657276696365004C45443100C046C056616C756520436878
:200FAC00616E6765206D73673A2025732025733A20257300537472696E6700C056616C75B8
:200FCC0065204368616E6765206D73673A20446174612053657276696365205374726561EF
:200FEC006D3A20253032783A253032783A253032782E2E2E00C046C0446174612053657299
:20100C007669636500C046C06F6666006F6E00C014080020C00700202DE9F04F0820ADF141
:20102C007C0DADF80C000125ADF80E5003A807F0F1FA7D4C9DF8100020700598606077489A
:20104C00D0F80080764800880FF25C191D90F8B1C548006818EA000F1AD0C448006818EA44
:20106C00000F05D1C2480068008818EA000F0FD0CB4806684FF4C3774FA300220097C749DC
:20108C000193C54F02920A8838684B464146B04704F13C060021304608F0C4FB04F1480005
:2010AC0004F11C01A66005F0C1F8206110BB5D481D9F0168DFB1AC480068014217D0AB483F
:2010CC000068014204D1AA480068008801420ED0B3484FF4CC7748A306680097002201935A
:2010EC00AE4FAD4B029218683A884B46B04708F095FB206902212A4606F0B2FEAA464FF018
:20110C00000B40F2053029468DF86EA00DF16E02ADF81CB001F0A2FF40F20630022107AAA2
:20112C0001F09CFF621C4FF44270294601F096FF04F1640240F20730112101F08FFF1D9885
:20114C0004F16405002800F082808748006818EA000F7CD08548006818EA000F05D184488F
:20116C000068008818EA000F71D05946202204F18A0005F0FBFA884E8848894B0788306836
:20118C001E681E9058462A5C401CC0B22B5C2918092B18BF082B01D11F2A47DB8018C0B2D0
:2011AC002028F0DB47E0C04670726F6A6563745F7A65726F2E6300C0496E697469616C6949
:2011CC007A696E67207468652075736572207461736B2C2068617264776172652C20424CC4
:2011EC004520737461636B20616E642073657276696365732E00C0464572726F7220696E5C
:20120C00697469616C697A696E6720626F617264204C45442070696E7300C04678B4000065
:20122C00A8B4000074B40000C0070020AE48491C521E04F0CBFEAC4B40F2D710ABA50090BF
:20124C003A46414601951E9802934B46B0470620A02106F079FF0720A02106F075FF082043
:20126C00A02106F071FF0920A02106F06DFF50461E2106F069FFCDF818B057468DF86FA0FE
:20128C0058468DF870A004218DF8710006AA8DF872704FF4816006F03DFF4FF480605146CD
:2012AC000DF16F0206F036FF40F2024051461CAA06F030FF40F2034051460DF1710206F01F
:2012CC0029FF40F2064051460DF1720206F022FF032007F071F8042007F06EF8A648A74A5F
:2012EC000D2106F027FDA649032006F013FEDFF8ACB2A44A04210BF10C0006F01BFD0426F9
:20130C000820A14FADF80C0094F800903878ADF80E608000049003A807F07CF900280CBFFB
:20132C0005980020994D0FF2EC1A0028E86039D007F01CFD964A05F14C00062106F0FAFC39
:20134C001D9830B30848006818EA000F21D00748006818EA000F0DD105480068008818EA4A
:20136C00000F16D006E0C046400500003C050000440500000A48EE236AA20668009306211A
:20138C000192064B029104491A88086853464146B04785F8009005E094B400008405000091
:2013AC008CB4000008200426ADF80C003B78ADF80E609800049003A807F02CF900280CBF32
:2013CC0005980020734E706038B107F0CFFC724A30460821303006F0ADFC584604F12C01EE
:2013EC001D9E816004F13400A860EEB16E49096818EA010F18D06D49096818EA010F05D144
:20140C006B490968098818EA010F0DD06949FF264DA30D68009668490193684E02900A882A
:20142C00306853464146A8470DF11E000021282205F09CF95A490DF14600282204F0C6FD00
:20144C00002001210DF11E0207F02CF9002028210DF1460201F066F9012014210DF11E0291
:20146C0001F060F9B87820BB04F1180097F80180FD787862182007F089FC061C19D00421BB
:20148C00002207F03DFF404607F0CDFB307275720020B07207F14803F36007F15802326160
:2014AC0007F12001716107F081FC3E4A314606F04FFD0C2007F06AFC071C0AD001210422B2
:2014CC0007F0F8FF2434BC6007F070FC394607F05FFA0120102106F089FF0220102106F053
:2014EC0085FF1FB0BDE8F08F4A0800204E616D6520696E20616476657274446174612061DE
:20150C00727261793A201B5B33336D25731B5B306D00C046646174615F73657276696365C3
:20152C002E6300C05265676973746572656420736572766963652C20256420617474726916
:20154C00627574657300C046526567697374657265642063616C6C6261636B7320746F2065
:20156C006170706C69636174696F6E2E2053747275637420257000C09C110020ECB3000017
:20158C000F960000A8B20000040C00202C14002050B200007C130020F8B3000040160020DE
:2015AC00C5B100001B960000400500003C050000440500008CB400008405000094B4000018
:2015CC002DE9F04F0120ADF1240DADF80A000827ADF8087002A807F01DF800263546D84C44
:2015EC008DF81C509DF80C006070A6700498E0614FF6FF70A082384607F0C8FB5FEA00082B
:20160C000CD00121122207F055FF07F0CFFB07A90123D94A0091414606F0B8FC9DF81C0016
:20162C000121207004F1A80006F092FE04F1CC00022106F08DFE04F1F000042106F088FEDE
:20164C00042031461022E07004F1480005F08EF804F158003146102205F088F8256226721F
:20166C0066720720E67204F148021021A072022006F0E2FC04F158020320102106F0DCFC1E
:20168C00042004F12002014606F0D6FC19E0A078B4F84050B4F84230B4F84420B4F8461077
:2016AC0006280ED1ADF80A50ADF80C30ADF80E20C948ADF8101007F0D6FF012002A904F0FC
:2016CC00D5FF0A20ADF80A00ADF808704FF0FF35039502A806F09EFF002840F0D5813046C8
:2016EC000690ADF808700925ADF80A5002A806F091FFDDF810900028CDF8189040F0C4814F
:20170C00BDF80C00102840F0B38160789DF80E10884240F0AD814D4628884FF6FF718142F2
:20172C0000F09E812B78A23B00F083812E3B40F09F81A878B046002800F05081801E00F0D4
:20174C002881401E012840F2FD80801E00F0AD80401E73D0401E60D0083800F05B81801E0A
:20176C0040F05D8194F83E30A888052BADF808004BD001208DF81200974807F074FF94F8A0
:20178C003E00012820D004281ED003280DD002280BD00698C188ADF80A100189ADF80C10CE
:2017AC004189ADF80E1080892BE0B4F84000B4F84250ADF80A00B4F84430ADF80C50B4F8D6
:2017CC004600ADF80E301CE0B4F84000E9888842D8BF081CADF80A002989B4F842008842DD
:2017EC00D8BF081CADF80C006989B4F844008842D8BF081CADF80E00B4F84610A889814261
:20180C0000DC0146ADF8101001E08DF81260AB4A02A8122106F051FE01E1A94807F023FFF9
:20182C006878002840F0FB80E888E0822889208368896083684807F0C3FDF0E0B5F804A067
:20184C000A2007F0A3FA5FEA00080AD00121152207F030FEA8F808A007F0A8FA414607F0B6
:20186C0097F8B8483146062204F080FFE68226836683A8796073584807F0F5FE904807F074
:20188C00F2FE4FF001084FF6FF706379A0824BB9A879082814BF04200520A070404607F054
:2018AC009BFCBCE00320A070B9E06878002840D1A449281D02680A60808888800623A370B2
:2018CC006889A082E889E082288A2083688A6083E878207394F83E00012818BF022808D12C
:2018EC001F2006F009FA4FF47A7141433A4806F087FB95F803B0B5F80AA0142007F046FAF6
:20190C005FEA000800F08E800121142207F0D2FD88F808B02D1DC8F80C50A8F810A004203C
:20192C0088F8120007F042FA7F4A414606F010FB78E0687831286BD12671042023E0C046F4
:20194C00040C00206878002862D1A878618AA278032813D02079657921B9012814BF6671B9
:20196C00267105E0054303D0724806F049FBA278072AE2D1062006E0B3940000062A06D079
:20198C00207910B90320A0704CE00220FBE70720F9E7687800283BD1EB78A078E17993B93A
:2019AC00022815D0072813D0062802D1617901290ED103280CD05F4807F002FD40B9012058
:2019CC0007F00AFC04E0604A404605F07DFD68706878E8B923E0C046D00C00206878B8B9CC
:2019EC00554A0220102106F0CDFC544A0320102106F0C8FC5548ED1C29680160AB888380B0
:201A0C00534A01252846A179A57005F05DFD48B1A77007E0A888454A102106F035FDB8F153
:201A2C00010F25D1606A18B3016809B3A07888471EE0687913281BD12889012808D1A07B1F
:201A4C00022805D11E4807F00EFE05F0E9FE0FE0052006F051F90146194806F0D1FA07E091
:201A6C006888C00B04D3364A0420014606F08AFC069848B1ADF808700320ADF80A00CDF816
:201A8C000C9002A806F0C6FD208A65792179420830D320F0010055EA010320822AD08DB996
:201AAC002C49207A8DF80800657A8DF809500A680DF10A031A608988998006E0159600000F
:201ACC00F40C002003208DF80800A07AE57A184A8DF8100006218DF8115002A806F004F811
:201AEC00616A30B1A77021B1086810B1096838468847208A810807D3174920F00200208235
:201B0C00304604F0B3FD208AC108FFF4DAAD20F00400A57B2082681E3FF4B9AD401E7FF4EC
:201B2C00D0AD05F07DFECCE589940000399600002D960000AC0C00204C0C00205C0C002074
:201B4C00240C00203C0C00208B0C0020300C00206C0C0020360C0020420C00202DE9F84FE9
:201B6C008046DD480122A0F130010A60D7490F68002FFCD0D74ED64AC02706F1040B1760E4
:201B8C00DBF80010890804D23168090C41F0F00100E07221E34AE44D4FF0000982F8541226
:201BAC00A5F1D407C0F80090D6F808A03868C0F3046007F047FC5246534600EB2270401CEF
:201BCC00162805DA10F10A0FB8BF6FF0090000E01520E649E64F00F01F0040F4F850088057
:201BEC00386880083ABFE348C0F8009042F04062E149A5F13C04D00E970E80F0010000F08D
:201C0C000100086087F0010000F0010088602068C0F38367C0F38F215FEA9A4022D243F329
:201C2C00072000280BD542424846490805D17F0806BF0127391C4FF6FF71521EF5D1002854
:201C4C0010DD4FF6FF72490041F001018A4207D27F0047F001070F2F92BF01210F27111CE2
:201C6C00401EF0D141EA0741182006F0EFFA20682768C34CC0F3870140F2FF324B4607F063
:201C8C00030041EA0021274688B22C210090A7F1400005F00DFEA5F110073868C0F30D017F
:201CAC001C2006F0D3FAB54957F8080C014000F07C400143142006F0C9FA57F80C1C01F42E
:201CCC007C000904090C0143102006F0BFFA57F8042CDBF80010C2F30350C2F30343490881
:201CEC0012D231680E0510EB267003D41028A8BF0F2000E04846090413EB217303D4102BF3
:201D0C00A8BF0F2300E04B4643EA001302F47F4002F0FF01B8F1220F40EA034041EA000153
:201D2C0024BF02F0804211430C2006F08FFAB8F1220F32BF01202868C0F30070B8F1220F88
:201D4C004FEA400040F0200084F8090126BF2868C0F3407001208B4EB8F1200F40F010003E
:201D6C0084F8090138BF494606D33168C80C00F44070C1F384510143282006F067FAB8F14C
:201D8C00200F26BF3068C0F301504846B8F1220F4FEA400040F0600084F80C0126BF286818
:201DAC00C0F3C0604846B8F1220F4FEAC00040F0800084F8010126BF2868C0F3455048466A
:201DCC00B8F1200F4FEA800040F47C40A4F89C0138BF6D490AD3306801038A15920501F4EC
:201DEC007C1100F00F00114341EA0031082006F02DFA2E464FF480002060A6F1D000816D4A
:201E0C0040F20F226FF31F418A4213D901680068C1F30367C0F3034007B17F1E072805D09B
:201E2C0006280EBF0720801C00F00F003D4947EA00100870CAF381477F1E02D07F1E28D011
:201E4C0023E03168880C20D24FF4804020604F48D0F802204B0AC1F3033703F0800322F085
:201E6C008F02134347EA0302C0F80220D0F801300F0A67F30303C0F80130026801F0E707BB
:201E8C0022F0E70247EA020102E04FF0004120460160DBF80000C0F3C0070FB94020A06267
:201EAC004FF400703E4F206428684FF04008C0F3C14040F0300084F8C800CAF38150A8B3FA
:201ECC00401E0BD0401E28D0022127E09402224300600C40AC3F005040100940012007F0AA
:201EEC0031F805460420294605F002FC042007F029F88542FAD12648056825F07F4006F069
:201F0C00E9FB384614300068036807214FF06022280E98474FF4806020600321042005F05E
:201F2C00E7FB0AE0026008408C1300500420012105F0DEFB174806F0CDFB203E30681649AA
:201F4C00164B47F6180500F03F0084F8CB0F3A460D8018681068C168022088471248114E5D
:201F6C00C0F8008001213160BDE8F88F6E6208400000094094042A4300002043FCFCFC0081
:201F8C0040A00C409813005000803F400A600840A83F0050BD37860070B00C402C200940AB
:201FAC00A00100109404604200600C402DE9F04F09AFADF13C0D1C460025DFF8F891DFF8CC
:201FCC00F881DFF8F8A1DFF8F8B1089038790A923F880B90FF200D9008780991022809D16B
:201FEC000846494640680E88008842F60213834200F0E880099805F03FFA064649469BA2E1
:20200C00002E0B880C96994640D0761E1FD0A8480168D3B1A7480068014216D0A64800682C
:20202C00014204D140460068008801420DD0A54840F22927A9A604680097A14B01969F4FB4
:20204C0002951A883868A1A3A0470A200BE150465E46B9F1000F4FF0140A0168079606F10D
:20206C00040B3FD09348006801423BD092480068014204D1404600680088014232D09248B6
:20208C004FF40973066800939BA31DE050465E46B9F1000F4FF0280A0168079606F1020BCB
:2020AC0020D08448006801421CD083480068014204D1404600680088014213D0824840F2DE
:2020CC001623066800938EA30192029308980390049405970B987A4B06901A88774B186818
:2020EC007AA3B047BA4530DD3E19B24521DA70480168B9F1000F1AD06E480068014216D060
:20210C006D480068014204D140460068008801420DD06C484FF40D73066800937AA20192C1
:20212C00674B0295654D1A88286868A3B0470D252CE009980A99C0682246C01903F046FF41
:20214C00ABF800600C980D9020E059480168B9F1000F1AD057480068014216D0564800684C
:20216C00014204D140460068008801420DD0554840F22F23066800936CA20192504B0295B0
:20218C004E4D1A88286851A3B04707250D98FF280DD00798806850B1066846B1E419A0B26A
:2021AC0000900C9A0A9B089841F23011B047284659E0C046A8B400004405000078B40000AF
:2021CC002C14002050460068002E81462ED03948006819EA000F29D03748006819EA000FB5
:2021EC0005D140460068008819EA000F1ED00B98FE280CBF0FF258180FF27018099805F063
:20220C003BF9314940F2FB130E6800935AA20192029008980390CDF8108029490595274B94
:20222C0006950A881868494628A3B04700970320019009990A9A0898234604F09DFD064620
:20224C005846083007686EB967B1786850B1099805F012F9009402460A9B7C68089841F234
:20226C003011A047F0B20FB0BDE8F08F5772697465417474724342203A20257320636F6E08
:20228C006E48616E646C6528256429206C656E28256429206F666673657428256429206D57
:2022AC006574686F64283078253032782900C04674B40000400500003C05000094B400000A
:2022CC00840500008CB4000090B40000646174615F736572766963652E6300C0417474720F
:2022EC00696275746520776173206E6F7420666F756E642E00C046C053747265616D00C081
:20230C00537472696E6700C0496E76616C69642076616C7565206C656E6774682077617369
:20232C002072656365697665642E00C0416E20696E76616C6964206F6666736574207761E7
:20234C0073207265717565737465642E00C046C02D20726573746F72696E6720626F6E642B
:20236C00656420737461746500C046C02D204F5441207772697465005772697465417474D1
:20238C00724342202843434344293A20706172616D3A20256420636F6E6E48616E646C6554
:2023AC003A202564202573002DE9FE4FB84C0F460646F80B80F04781B80880F0D480B54DAD
:2023CC00DFF8D892DFF8E0B2DFF8E882DFF8F4A22C68B80F67D2B0480678002E47D1380908
:2023EC0047D3AF4801264946067000240C70204602F065FFAB48FDF777FEAC4922465846E1
:20240C0007F026F9AA48017801291CD141460B78CBB9A94E306880B106F05EFF2B68A849F3
:20242C003668A64D0A68C01A000B82182860B2EBC61F28BF0C6007D20A60A4484FF00051F2
:20244C0006F006FF2CE00670504640F609010180417B01F0F00141F0010141734480017BD7
:20246C0001F0F00101734460974E306018E0390914D2B80BC0F004819D48001D07F0F1F8E7
:20248C00061C08D0706830B17468F068B6F91C1098A20CCAA04727F40057F1E000210170A2
:2024AC0027F00807ECE0ECB1042006F04BFDC8B106F012FF864A29681060814226BF401ACC
:2024CC00401E401A000BF060F06800F58D70F060F16840F6C410884203D340F2EE228A4232
:2024EC0000D9F0600024D6F818C02C60BCF1000F10D050460D30007810F00F0F0AD1708C75
:20250C0040F60901814205D17CA20CCA30466FF48071E0476F495846224607F099F8454620
:20252C00287850B10220ADF80000684606F0DCFA2C70BDF808006849088049460120674ABA
:20254C00674B087010781C70401C1070192006F03FFF756925B16BA20CCA30462146A84785
:20256C0027F000578CE004F10C0A504607F079F8061C5FD005F098FD7368B2690025B56160
:20258C00E3B1F37F42F002024FF00009904603F007035B1E07D05B1E03D09B1E06D15BA0B1
:2025AC0002E05CA000E05DA090E800037268F068B6F91C104B4694464246E04707F02AF998
:2025CC008046B4F91200401C6FF31F306082E0681F30017801F07F010170504606F0C0FD40
:2025EC00404607F013F9F068B0F99410B4F9122091421FD13B49097801291BD090F8964087
:20260C009CB904688CB1384909680968B1F1FF3F10D0364909687030B4FBF1F107F0F2F88B
:20262C00F068703007F0EAF804E080F89650284604F0D6FB504607F014F827F0020708B1D6
:20264C0047F002071CE007F0E5F801462046083007F007F80646B469084607F0D7F8A0085E
:20266C000CD25EB17068B169A143B16130B17568F068B6F91C1000232246A84727F480472C
:20268C001FB11248394606F0E3FDBDE8FE8FC04698250020E42500200726002003260020DB
:2026AC0001260020BD6900004C250020A18C00000526002000260020E0250020EC250020FC
:2026CC00DC250020AC2500200010044048240020E8250020AD50000010250020092600202E
:2026EC000226002044190020F025002068B4000098250020000000002000000000000000BB
:20270C00000000020000000000000004000000000000001000000000000000400000000057
:20272C00000000202DE9F04F05467F487F4CADF13C0D0FF2442C0F46DFF8F4A1DFF8F491C6
:20274C00DFF8F4810088DFF8F4E107902E1C0890E068099245D0761E21D0BD48079F0168E3
:20276C00002F00F0DD80BB480068014200F0D880B9480068014205D1504600680088014290
:20278C0000F0CE80B5484FF49A7771A604680097434601964F4602951A88386876E0089EFA
:2027AC008346231D04F11002704614210B93002E0A9205680C914FF001030D933FD0A548C1
:2027CC00006805423BD0A4480068054204D1504600680088054232D04FF498736DA2002176
:2027EC001CE0089EA31C704604F1240200210B9305680A920D9128230C9306B3954800684D
:20280C0005421CD094480068054204D1504600680088054213D040F2251360A290480668B7
:20282C000093CDF804C002920397049105914346069149461A88086841A32946B0470C9868
:20284C00B84226DA8248089E0168002E68D081480068014264D080480068014204D15046AD
:20286C000068008801425BD07D4840F24D16046800964CA501950297002303930C9A04927D
:20288C00464605934D460693328828682CA3A04746E00A9809993A4603F098FB0D9E0B981E
:2028AC00002E07803CD00798294600282BD069480068014227D068480068014204D1504601
:2028CC000068008801421ED0654B40464E4602889BF802701D683068002F19A308BF3FA7BD
:2028EC0003D0012F0CBF44A749A74FF4A27600964CA60196BBF800600296039700270497A2
:20290C0005970697A84706200090564F0A99207804F14C03002201905846029703F0B8F91B
:20292C000FB0BDE8F08FC046A8B400002C1400204405000094B400008405000078B40000A0
:20294C00646174615F736572766963652E6300C0536574506172616D657465723A20506158
:20296C0072616D6574657220232564206E6F742076616C69642E00C0536574506172616DE3
:20298C0065746572203A202573206C656E3A20256400C04653747265616D00C05374726953
:2029AC006E6700C04C656E677468206F75747369646520626F756E64733A204C656E3A2079
:2029CC002564204D696E4C656E3A202564204D61784C656E3A2025642E00C0461B5B3333C4
:2029EC006D4E6F74692F696E642064697361626C65641B5B306D00C04E6F74696669636102
:202A0C0074696F6E20656E61626C656400C046C0496E6469636174696F6E20656E61626C1B
:202A2C00656400C0547279696E6720746F2073656E64206E6F74692F696E643A20636F6ED9
:202A4C006E48616E646C652025782C20257300C074B40000400500003C0500008CB4000061
:202A6C0090B40000F13400002DE9F04F0546C04BBE48DFF808B3DFF808A3DFF80893DFF8D3
:202A8C000883DFF80CE30F46ADF12C0D0FF2042C2E1C0892D9680288186907923FD0761E10
:202AAC0020D0B4480168171C00F0D280B2480068014200F0CD8058460068014205D15046A9
:202ACC0000680088014200F0C380B0484FF4A57766A604680097434601964F4602951A8830
:202AEC003868B3E00646704604681D46002A05F106000A9003F1020009903CD09E4800681D
:202B0C00044238D058460068044204D150460068008804422FD04FF4A37365A219E0704660
:202B2C0004681E463546301D0A900E46681C09900AB39148006804421DD058460068044269
:202B4C0004D1504600680088044214D040F23B1359A2904805680093CDF804C002920397DA
:202B6C000021049105914346069149461A88086839A32146A847022F44DA002F42D00998D9
:202B8C0008993A4603F022FA079D0A982146002D078029D078480068014225D05846006839
:202BAC00014204D150460068008801421CD0794B40464D460288B7781C682868002F26A39A
:202BCC0008BF3FA703D0012F0CBF44A749A74FF4AD7500954CA501953588029503970027FD
:202BEC00049705970697A0470720FF2700906A4D01975F4B0295099900223046143303F02D
:202C0C0047F825E05C4D5B4C07982A682168061C1ED011421CD058460068014204D1504657
:202C2C0000680088014213D05A4840F263160468009640A50195029701230393002204939C
:202C4C00464605924D4606923288286802A3A0470BB0BDE8F08FC046627574746F6E5F73F1
:202C6C006572766963652E6300C046C0536574506172616D657465723A20506172616D65F6
:202C8C0074657220232564206E6F742076616C69642E00C0536574506172616D65746572B5
:202CAC00203A202573206C656E3A20256400C046425554544F4E3100425554544F4E300095
:202CCC001B5B33336D4E6F74692F696E642064697361626C65641B5B306D00C04E6F7469D6
:202CEC006669636174696F6E20656E61626C656400C046C0496E6469636174696F6E206543
:202D0C006E61626C656400C0547279696E6720746F2073656E64206E6F74692F696E643AB9
:202D2C0020636F6E6E48616E646C652025782C20257300C04C656E677468206F7574736956
:202D4C00646520626F756E64733A204C656E3A202564204D696E4C656E3A202564204D6183
:202D6C00784C656E3A2025642E00C046A8B400006C15002074B40000400500003C050000EE
:202D8C004405000094B40000840500008CB4000078B4000090B40000B13200002DE9F04F25
:202DAC00A549A64EA64DA74CDFF89CB2DFF89CA2DFF89C92DFF89C820F88401EADF1340D37
:202DCC0000F09080401E75D0801E61D0401E4DD0401E2ED0401E17D0401E40F0C9803168E9
:202DEC00002F00F0C5802868014200F0C1802068014205D15A4610680088014200F0B880B3
:202E0C004FF4477060A766E03168002F00F0B0802868014200F0AC802068014205D15A4647
:202E2C0010680088014200F0A3804FF4447058A751E040F2153004A901F088FF04A804F0CD
:202E4C00BBFB3168002F00F093802A68114200F08F802268114205D15A4612681288114247
:202E6C0000F0868040F20B3750A676E03168002F7ED0286801427BD02068014204D15A461C
:202E8C0010680088014273D04FF4467051A722E03168002F6CD02868014269D020680142D2
:202EAC0004D15A4610680088014261D04FF445704EA710E03168002F5AD02868014257D054
:202ECC002068014204D15A461068008801424FD040F201304AA7424614680090019700269E
:202EEC0002963FE04FF441700AA901F02FFF9DF829308DF8113000218DF814109DF82A20EC
:202F0C008DF813109DF828008DF812209DF82D308DF810009DF82C208DF8173004A98DF823
:202F2C0016209DF82B304C4A8DF81530086810604B6853600AA804F03FFB3168C7B12A6836
:202F4C00114215D02268114204D15A461268128811420DD04FF43F772CA642461468009731
:202F6C000196029053464D4618682A8802A3A0470DB0BDE8F08FC04670726F6A6563745FF5
:202F8C007A65726F2E6300C04572726F7200C046436F6E6E656374656420616E6420616439
:202FAC00766572746973696E6700C046436F6E6E65637465642E20506565722061646472FC
:202FCC006573733A201B5B33326D25731B5B306D00C046C0436F6E6E656374696F6E2074E3
:202FEC00696D6564206F757400C046C0446973636F6E6E6563746564202F2049646C650028
:20300C004164766572746973696E670047415020697320737461727465642E204F75722095
:20302C00616464726573733A201B5B33326D25731B5B306D00C046C0A8B4000078B4000003
:20304C00400500003C0500004405000094B40000840500008CB4000007110020F8B5A0F20D
:20306C00013517460E46022D40F214818A4A8B498B4B2D1F0F2D04D9143D4AD0AD1E1CD062
:20308C0011E0DFE815F0C300BC00F400E400B300AB000701A2009A00100010009200880034
:2030AC0079006F006300282880F2F480022E40F0F180398805F048F8F8BD012E40F0EA803E
:2030CC0015462879012800F0E58051793878507181B9002800F0DE809078012800F0A98035
:2030EC00042800F0A680062800F0A380052800F0A080F8BD3878002840F0CC8090780328C8
:20310C0000F0A280072800F09F80052800F09C80F8BD012E40F0BE803878012840F0BA8085
:20312C00154605F1F00006F04BF9002840F0B2802C46002004F13E0103F098FA002840F0DB
:20314C00A98004F1CC0006F08EFAF8BD022E40F0A18038880A28C0F29D80B0F5486F00F3B5
:20316C00998015E0022E40F095803888B0F5FA7F80F290800880F8BD022E40F08B803888F8
:20318C000628C0F28780B0F5486F00F383801946891C0D4638E0022E7CD13888062879DBBC
:2031AC00B0F5486F76DC1946F3E7012E72D1387806286FDA891F0D460EE0012E6AD1387880
:2031CC00042867DA15460B3506E0012E62D1387808285FDA15460A352870F8BD012E59D13A
:2031EC003878042856DA1546093506E0012E51D1387804284EDC154608352946DBE7022EE8
:20320C0048D13888154612352946B3E7012E41D11546687901283DD011793878107161B996
:20322C00002837D09078012803D0042818BF052830D1012005F0D0FFF8BD387850BB9078C1
:20324C00022818BF052825D106F092F8F8BD154605F1870400211F22204603F087FA394672
:20326C003246204602F0B2FE0020EE710EE0154605F1680400211F22204603F077FA3946ED
:20328C003246204602F0A2FE0120AE713146224604F01AF9F8BDC046040C0020480C00202D
:2032AC00440C00202DE9F04F804609AF0846ADF1340D0A9397F808B00992B98808903F8873
:2032CC000B9104F0B1F806467C497B48DFF8F491DFF8F4A1814ADFF808C200240FF2681EF6
:2032EC00002E0588C8888988079538D0761E1FD073480168D5B148460068014216D0504620
:20330C000068014204D171480068008801420DD071484FF4EA7745A6056800976D4B0196BD
:20332C006B4F02941A8838683BA3A8470A206FE005461046079E0168002E37D048460068CF
:20334C00014233D050460068014204D15F480068008801422AD040F2CF134AA214E00D46EA
:20336C001046079E01680EB34846006801421DD050460068014204D1544800680088014211
:20338C0014D04FF4E27341A2604606680093CDF804E00292CDF80C800497CDF814B04D4BD1
:2033AC0006941A884A4B18681BA3B047BD420EDB0B98E91B8142D4BF8AB2021C0A98028098
:2033CC000898C1680998C91902F000FE1FE03C48079F0168D7B148460068014216D05046D6
:2033EC000068014204D139480068008801420DD039484FF4ED7727A605680097354B0196A0
:20340C00334F02941A88386803A3A847072420460DB0BDE8F08FC046627574746F6E5F73CB
:20342C006572766963652E6300C046C041747472696275746520776173206E6F7420666F26
:20344C00756E642E00C046C052656164417474724342203A20257320636F6E6E48616E642E
:20346C006C653A202564206F66667365743A202564206D6574686F643A2030782530327860
:20348C0000C046C0425554544F4E3100425554544F4E3000416E20696E76616C6964206FFC
:2034AC00666673657420776173207265717565737465642E00C046C0A8B400006C1500209A
:2034CC0074B40000400500003C0500004405000094B40000840500008CB4000078B40000AC
:2034EC0090B400002DE9F04F804609AF0846ADF1340D0A9397F808B00992B98808903F885D
:20350C000B9103F0B9FF06467A498448DFF8EC91DFF8ECA17F4ADFF800C200240FF2641EBC
:20352C00002E058888884988079538D0761E1FD071480168D5B148460068014216D050465F
:20354C000068014204D16F480068008801420DD06F484FF4E57744A6056800976B4B019687
:20356C00694F02941A8838683BA3A8470A206FE005461046079E0168002E37D0484600688F
:20358C00014233D050460068014204D15D480068008801422AD040F2C51349A214E00D46B5
:2035AC001046079E01680EB34846006801421DD050460068014204D15248006800880142D1
:2035CC0014D04FF4DD7340A2604606680093CDF804E00292CDF80C800497CDF814B04B4B97
:2035EC0006941A88484B18681BA3B047BD420EDB0B98E91B8142D4BF8AB2021C0A98028058
:20360C000898C1680998C91902F0E0FC1FE03A48079F0168D7B148460068014216D05046B7
:20362C000068014204D137480068008801420DD037484FF4E87726A605680097334B019669
:20364C00314F02941A88386803A3A847072420460DB0BDE8F08FC046646174615F736572B6
:20366C00766963652E6300C041747472696275746520776173206E6F7420666F756E642E4C
:20368C0000C046C052656164417474724342203A20257320636F6E6E48616E646C653A2036
:2036AC002564206F66667365743A202564206D6574686F643A2030782530327800C046C083
:2036CC0053747265616D00C0537472696E6700C0416E20696E76616C6964206F6666736592
:2036EC007420776173207265717565737465642E00C046C02C14002074B40000400500002C
:20370C003C0500004405000094B40000840500008CB4000078B4000090B40000A8B4000036
:20372C002DE9F04F0128ADF1140D40F0F280DFF81492D9F8DC00012840F0E9800220C9F8CF
:20374C00DC0006F057F80290012004F041F920B101210646C9F8DC10D5E006F047F80390F2
:20376C006E484FF00008C0F80080012005F0EAFB012818BFCDF8008004D1404603F082FDFB
:20378C000120009066486E4CC0F800801934D4F8FF0F112005F0CCFE00280CBF464601260F
:2037AC00102005F0C5FE08B146F002060F2005F0BFFE08B146F004060B2005F0B9FE30B18C
:2037CC00584800685849006B0246088890470A2005F0AEFE0028404618BF01204FF0805B8F
:2037EC000BF5DC7528B128685049006B0246088890474F480127076028688069014646F034
:20380C00200088474B48076005F08CFE00F001010191400815D2484805F01BFE8246BAF170
:20382C00040FF8D0BAF1010F06D1DBF8D801406802464148032190474049086820F00300E3
:20384C000860404600F080F82868D4F8FF1F806B8047019801280ED0BAF1010F06D1DBF8D5
:20386C00D801406802463448394690473349086840F0030008602A480760286840690146C1
:20388C00304688470B2005F053FE28B128682649C06A0246088890470A2005F049FE28B176
:2038AC0028682249C06A024608889047204807600322C9F8DC201F4BC3F800802868406B97
:2038CC000146304688470128F8D1042004F080F8124807601A48D4F8FF1F01688909FCD3F7
:2038EC000098012802D1384603F0CCFC05F014FE082004F06DF806460398C9F8DC7005F07E
:20390C0071FF03F08BFB029805F068FF02E0042600E00126304605B0BDE8F08F0C400940C5
:20392C0000022243B801001002B10000FEB000002820086080010443004003402422084061
:20394C00141009406C1200202DE9F84F07467F48DFF8EC8135380068800880F0E28005F077
:20396C00AFF805467D480830D0F800A000244FEA2A725FEA9A5002F101020AD2C5F13E00F2
:20398C0015F10A0F4FEAE000D8BF08208242B8BF021C684ED6F87C01C0F3046005F052FD6F
:2039AC0003463068C0F3044005F04CFD9A188346162A05DA12F10A0FB8BF6FF0090200E06E
:2039CC0015225D4B5D4802F01F0141F4F8511980006810F0030F18BF0124C00828BF44F0D5
:2039EC0002040FB144F00404414691F90700281A052804DA8879A04208BF888870D0DFF883
:203A0C0044810F2DA5F10F092ADB09EB0510A0F1F0094FEA2920072888BF07200746062FB2
:203A2C0088BF062758F827C00423464603EB8703F3584FEA940EE708A3EB0C0303F0FF06FA
:203A4C0024BFC3F307273E444FEA540CA70824BFC3F307473E44670828BF06EB136605E0BB
:203A6C0000264FEA940E4FEA540C304658F820805FEA5E0708F0FF0324BFC8F307273B4447
:203A8C005FEA5C0724BFC8F307473B44670828BF03EB1863B6B2A9EB0027ABEB02007E43C8
:203AAC00002806F1800603EB1623D8BF012034220AF0FF0742437A43B2FBF3F04FF6FF7298
:203ACC00824238BF101C802D80B2888005DA15F1800FB8BF6FF07F0500E07F25CD718C717F
:203AEC00194A12681F280A604FF0000208D340F2FF11814206D24008521C8142FBD301E00B
:203B0C001F208880124F11490F38000942EAC00247EA0200C1F8FB0F0026C1F8FF6FBDE871
:203B2C00F88F0D4F0B4E414608203760891D0870BDE8F88F3C1100506E620840242208406A
:203B4C00D02500209C130050082009403500094000E7A48030100940FDFDA400AC3F0050E9
:203B6C002DE9F04F8946054613220021ADF1140D684602F0FBFDB9F1140F00F3F3802B7946
:203B8C006E1CAF78EC7879498DF8033030788DF801704FF00E0B8DF8024007228DF800001F
:203BAC0001F11E0300271224984683F800B001F11F03581C1A70641E00F8017BFBD10C465A
:203BCC00142020612078012808BF637810D0E760FF20A07084F87A710A23677004F27B107F
:203BEC005B1E00F8017BFBD1E77001203B4620702878012800F0B280002B00F0B38008280E
:203C0C0000F0A88094F80390042870D005284FD0092806D0022840F0A5800F2102208B4600
:203C2C0060E0681D022105F08FF81FFA80F90421304605F089F882460421E81D05F084F80E
:203C4C003E4604F194053A46014605F1E60313F8010F18B305EB4200008D81451ED155F8F9
:203C6C00220082451AD102EB0210401990F83CE090F83DC00CEB8E0C90F83EE090F83F00E5
:203C8C000EEB8C0E00EB8E00814207D1761C94F87A011F70F6B2401E84F87A01521C0A2AAA
:203CAC00D5DB6671002E08BF08201BD0092049E03046012105F048F8C1B2894511DD0F20EC
:203CCC00052788F80000091988F80170097D112208F1020001EB01110919D03102F076F9E3
:203CEC0040E0052088F800B088F801003AE0681D022105F029F885B204213046E58005F0BE
:203D0C0023F83E4604F19402A06002F1E60111F8013F63B102EB47031B8D9D4207D152F856
:203D2C002730984203D13319761C1F75F6B27F1C0A2FECDBE670002E04BF042059463FF480
:203D4C006EAF04200F2188F8001088F8010088F8026007E0284601F0EBFC03E049462846E6
:203D6C0001F0A0FB05B0BDE8F08FC046700F00202DE9F843814605F0C9FB002100B9012160
:203D8C006B4E30680028FCD06C4D01242D1DEF6A346009B105F0C0FBDFF89881C7F3072082
:203DAC0008F1BC01086005F0B1FB002100B9214630680028FCD02F68346009B105F0ACFBEA
:203DCC00C7F38440C8F8C00005F0A0FB0146002001B92046014630680028FCD0ED69346005
:203DEC0009B105F099FBC5F38120C8F8D000B9F5C061C8F8B81000F0968098F8D80068B9A5
:203E0C00C8F8D410D8F8C000C8F8C800D8F8BC70C8F8C470D8F8D060C8F8CC60D8F8D4104A
:203E2C00D8F8BC60002954BF02206FF00100454605F1C8031A6801EB41014018411000EB3C
:203E4C00917002EBA0021A60D5F8C810C5F8C46000291CDD1E293DDDD5F8CC0030B9342964
:203E6C00B4BF15391E21C5F8C81025E02A29BABFD5F8C8000B381E20C5F8C800D5F8C400A4
:203E8C003F28B4BF401C3F20C5F8C4001FE0D5F8CC00032812D011F10B0FC6BFD5F8C80025
:203EAC000B30201CC5F8C800D5F8C4000028CCBF401E0020C5F8C400032009E011F1150F85
:203ECC00C6BFD5F8C8001530201CC5F8C8000020C5F8CC00B5F8C400174E30214FF47F42E2
:203EEC0008230090304603F0E3FC009404214FF400321123304603F0DBFCB5F8C800042177
:203F0C004FF4F80212230090304603F0D1FCB5F8CC0020214FF440620A230090304603F098
:203F2C00C7FCBDE8F883002088F8D800BDE8F88300800C406C12002000A00C4000A00C40B8
:203F4C002DE9FC416F4C204605F08BFB15460E46009005F05FFC05F001078046B6F1FF3F2F
:203F6C000DD1606820B9B4F91200401C06B202E06068B0F91C6064490020C91C0870304674
:203F8C0004F01CFD0326002800F0A4806168814270D0009FDFF848C1B84231D03FB10099D4
:203FAC000A68904209D0096800290091F7D1832E44D0404605F02AFC40E0604604F076FF50
:203FCC0000990868AA0803D202680B4601461A6000220A60009078B10C340146C87F40F086
:203FEC000400C877684605F0BBF80146204604F095F900980028F0D1404605F007FC1CE0F2
:20400C00604604F053FFA8083ABF2068006800202060404605F0FAFB0C340099C87F40F0AF
:20402C000400C877684605F09BF80146204604F075F9009808B1A808EFD2832629482C4A9A
:20404C00007890B928480078012846D02748FCF74BF80221104605F0FBF826480078012857
:20406C003BD02548FCF740F837E01046022105F0EFF832E0A90803D32168009100262660C6
:20408C00C27F0121B9401143C17705F0AFFB0646002F14BF19481A4804F026FD404605F0EA
:2040AC00B5FBA80811D3009878B10C340146C87F40F00400C877684605F052F80146204614
:2040CC0004F02CF900980028F0D1304605F08AFB832602E0404605F099FB3046BDE8FC8118
:2040EC00B02400200226002001260020B52300004824002003260020915500000100020497
:20410C000100010498250020102500202DE9F04FADF1840D209000F0A9FE03F0A5FB0024D9
:20412C00012804D104F0ECFF022808BF012459490868C0F38150012805D151F80C1C012059
:20414C00090E884004435448007804F07FFDDFF84C81DFF84CA1C8F8000030B15246FF21E8
:20416C0007467F1E02F8011BFBD120990968002501F0FF02FE2A1BD0DDF880C052462B46F5
:20418C00012701F0FF06FF2E0BD0B04203D907FA06F6344201D0022079E001F0FF013543F7
:2041AC0053545CF8041F5B1C01F0FF06FE2EEAD1092001F027FB3B49209824220823086030
:2041CC0001A8002105F006FB4FF0010901AA3E488DF81C90494605F0F9FAD8F800303BB303
:2041EC003A4E00274FF0040BBA4609FA07F0044218D1054204BF07F0FF0141F4C04104D082
:20420C0027482099C05D51F82010274801F08AFCF8B24FF0FF3104F0A3FED8F80030C6F882
:20422C0000A001E0C6F800B07F1C361D9F42DCD30AA800213022082305F0C4FA1B4D1D4A33
:20424C002878002410210AAB12901948009405F0B5FA16A828220823214605F0ABFA686869
:20426C0016AA16491C9014481D94234605F09EFA134A52F80D0C494620F4F85040F4005035
:20428C0042F80D0C0F4BC2F8FF1F2046196021B0BDE8F08FB43F005008260020D82500200B
:2042AC00D4240020F8250020007FC76734B4000014250020898F00001424002005790000C1
:2042CC000D3009400800094030250020982300202DE9F04F0D460646DFF88481DFF888B1CB
:2042EC00DFF888A1DFF88891287809AFADF1240D08930228079207D140466B6804881888E0
:20430C0042F60211814225D0284603F08DF85548474601683888D8B158460068014217D09C
:20432C0050460068014204D148460068008801420ED05248046840F213272CA600250097BC
:20434C004D4B01964B4F02951A88386822A3A0470A203DE04A480068002C80462ED0584634
:20436C00006818EA000F29D05046006818EA000F05D148460068008818EA000F1ED03879AC
:20438C00FE280CBF0FF280090FF29809284603F04BF83C4940F201230C68009324A2019215
:2043AC0002900396CDF8109000210591324B069130491A88086808A34146A04738880090A2
:2043CC0003270197089B079A2946304602F0D4FC09B0BDE8F08FC046627574746F6E5F73D3
:2043EC006572766963652E6300C046C041747472696275746520776173206E6F7420666F57
:20440C00756E642E00C046C02D20726573746F72696E6720626F6E6465642073746174655E
:20442C0000C046C02D204F54412077726974650057726974654174747243422028434343F2
:20444C0044293A20706172616D3A20256420636F6E6E48616E646C653A20256420257300E0
:20446C00A8B4000074B40000400500003C0500004405000094B40000840500008CB40000CC
:20448C0078B4000090B400002DE9F84F9A4693460D46044605F0BEF9DFF85C810AAFB8F923
:2044AC001220B8F91010009040F6F870891A0840082880F29280B8F91000401C6FF31F3052
:2044CC00A8F81000B8F9109004F0B0FC064604F1700004F0EBFCB56086F81EB0C6F804A0E0
:2044EC00F460A6F81C9097E80C0051A003C800251040F577D8F8002006F11007194087E824
:20450C000300002A5CD14046314603F007FF00285BD0A4F894904448F17F0778DFF8DCA05E
:20452C0041F08001F17784F8965067B151460F784FB1344A3449324B0570012015700A78A8
:20454C001870521C0A70009805F060F9D8F8040000284ED15146087800282DD12B480078B6
:20456C00012846D005F056F9054629480078F8B9B06802F0B1FE284B2C4A26491B681268B9
:20458C00086038B9284605F041F92448042104F05FFE2EE0D0680968214C091AB1FBF3F160
:2045AC00204605F02FF9204605F028F928461EE01C4901200870F9E7192004F009FF18E079
:2045CC004046314603F0AAFE50B9B8F9100000F6FF706FF31F30A8F810006FF0010905E059
:2045EC00A4F89490F07F40F08000F077009805F00DF94846BDE8F88F9825002003260020F6
:20460C000726002000260020092600200226002001260020E025002068B400004824002050
:20462C00B02400200426002006260020F0250020F1EFFF9F200000002DE9DF4F6548DFF849
:20464C008CC1DFF874B1DFF874A1DFF87491DFF87481DFF874E1078856480E1C32A313D135
:20466C000168002F5DD058460068014259D050460068014204D1484600680088014250D000
:20468C0040F213572CA62DE0012E17D0022E48D1002A46D10168002F43D0584600680142FF
:2046AC003FD050460068014204D1484600680088014236D040F2245723A613E0A2B90168D5
:2046CC00002F2ED05846006801422AD050460068014204D1484600680088014221D040F264
:2046EC00195725A6002212E039480168CFB158460068014215D050460068014204D1484623
:20470C000068008801420CD040F21D5722A660460468009701967746464602923A88306899
:20472C00A0470090BDE8DF8F70726F6A6563745F7A65726F2E6300C050616972696E672092
:20474C00737461727465640052652D65737461626C69736865642070616972696E6720665A
:20476C00726F6D2073746F72656420626F6E6420696E666F2E00C04650616972696E672081
:20478C00636F6D706C65746564207375636365737366756C6C792E0050616972696E6720F3
:2047AC006661696C65642E204572726F723A20253032780078B40000400500003C05000025
:2047CC004405000094B40000840500008CB4000074B40000A8B400002DE9FC415E4C574D4E
:2047EC00574EDFF860815A4F94F8E410481E0B2861D8DFE800F07B2C4306234306234306D6
:20480C007664042907D001220A2945F8212C14BF0220032004E02021012045F8211C0246AE
:20482C0084F8E200002045F8390C0827C5F8FF7FC5F8F37F45F8392CBDE8FC81052914BF0E
:20484C0009200620002584F8E400356070E094F8E1700120383D002FC5F81B0004BF062030
:20486C00002102D00021F160032084F8E400032045F8010C31603068800859D294F8E4008B
:20488C00012503280DD00021404660220523009103F00EF894F8E400062814BF0A20072041
:2048AC00D1E702200090002160220523404602F0FFFF0420C7E704F075FFBDE8FC8122497A
:2048CC00002622480E60012505600E2000F0C6FE022003F02FFF84F8E45084F8E360BDE80A
:2048EC00FC81002038600C2578601FE01948006800680146202088472C3D41F61D560F20A6
:20490C0000214FF4C072072345F8010C4046C5F803600225009502F0CBFF404600214FF479
:20492C00C072072303F088F90120386084F8E45004F1780004F062FFBDE8FC8139400C4089
:20494C0038600C4000A00C402C500C4004800C4034600C40A00100106C1200202DE9F04F5F
:20496C005D4CE7680346ADF11C0D002F68D05148DFF848A1DFF84891DFF84881DFF848B143
:20498C00DFF848C1DFF848E106882FA23BBB4A490968002E4ED05046006801424AD048469D
:2049AC000068014204D1404600680088014241D0704640F2BD460568009627A301933879A4
:2049CC000290A078039000260496634605965F4606961E88386813463246A8472AE03D48B4
:2049EC00016816B35046006801421ED048460068014204D1404600680088014215D07046E8
:204A0C0040F2C246056800961EA6019638790290039300260496674605965B460696186854
:204A2C003E8813463246A847E768397907F1080004F012FBE06804F033FB0020E060A07008
:204A4C0007B0BDE8F08FC04670726F6A6563745F7A65726F2E6300C053656E74206D657303
:204A6C00736167652077697468206F70636F6465203078253032782E20417474656D707420
:204A8C002025640047617665207570206D6573736167652077697468206F70636F6465203E
:204AAC003078253032782E205374617475733A20256400C0A8B4000078B400004005000001
:204ACC003C0500004405000094B400008405000090B4000074B40000C0070020F8B5414CE2
:204AEC00201D0368B3F1FF3F08BF002302F0BCFE002876D13C4E20683468070F04F0FF0460
:204B0C00802C28BF002402F0AFFE4FF0FF3578B1401E07D0401E012802D9801E13D014E08B
:204B2C008FB112E0381C5CD0801E0ED114340BE03846401E55D0801E53D0001F51D0401EA7
:204B4C0003D1163400E00A3465B2162D49DB27482749002501270560264E0F60264C376012
:204B6C0020680028FCD1274A161D2449244F306820F0030001433868C0080CD2106810F07B
:204B8C00030F0AD041F003003060106800F003000328FAD101E041F001011B483160006888
:204BAC0020B11A4800681846FCF7D8FF184819490560194F0A686FF35B4247EA020008608B
:204BCC0016490868C0F30130012806D10A681448104040F400320A60086020680028FCD143
:204BEC00F8BDFEE718130050A0100050840460425C600C40082204430C0068420400002017
:204C0C00B03F00500040034080012843000120438C2108404820034000003901040009404F
:204C2C00FFFFFCFC70B5ADF1380D00F01FF9324908682822082340F00200086001A800219E
:204C4C0004F0B8FD2D4EB0782E4907902C48002301AA04F0ABFD00213022082301A804F0D5
:204C6C00B1FD002519213078284AADF81C5001AB09902548009504F0A1FD2822082301A8F9
:204C8C00294604F097FDF07822490790204801AA2B4604F08BFD3022082301A8294604F01E
:204CAC0091FD01241A2170781C4AADF81C4001AB09901948009504F081FD194819492A46CB
:204CCC00134604F06BFD1848FBF70EFA1849194E0C70164835704FF6FF728283C577164B1A
:204CEC001D70164C257016490D70174E3560154A15700EB070BDC046002009405AB4000002
:204D0C00482400202D9200004C250020A18C00007C240020F15D0000682500203973000017
:204D2C00B0240020A187000091550000F4240020002600200526002002260020012600200D
:204D4C000626002007260020E42500202DE9F04F0C464549CA7AADF12C0D84460592487B11
:204D6C0009900D7900958A7A488B4B8A0E7B91F805A091F802800492B1F846E008904A7A44
:204D8C00088B0392CD7807900A7AC88A02920F6A0690CA79888A01928A79E146A9F5407921
:204DAC00B9F11D0F10D8DFE809F05B5553514F4D4B494643413F3C3A380F34312E2B292315
:204DCC00201E1C0F19181716BCF1280F49DA604602F092FF21E0099EB246D046CDF81480C1
:204DEC001DE00898079007980690DDF818E005E03831086820608888A08032E070460AE051
:204E0C00B1F8440009E0B1F8420004E0B1F8400001E091F83E00034612E0208021E00598D7
:204E2C0004900498039001E03231E2E7039802900298009006E0019A87310DE068310BE095
:204E4C001846EAE7009D0BE02C31D2E7276008E0583100E048311022204601F0B7F800E010
:204E6C0025700BB0BDE8F08F040C00202DE9F041444C94F8E700ADF1280D00286FD1394F75
:204E8C00387B01250021242284F8E7507E6884F8E6000823C4F80C6101A804F07BFC00263D
:204EAC0004F10C00069601ABADF814602E490796324604F073FC2D4904F1300001AB3246D6
:204ECC0004F06CFC2A4904F1540001AB324604F065FCB868014628468847DFF89C80254831
:204EEC007B7B0078D8F80410C1F381571BB1032F03D184F8E150032F16D0022F14D0012FEC
:204F0C0026D103201D4C009031464FF040521C23204602F0CDFC009531464FF400720923DD
:204F2C00204602F0C5FC13E0022003F01BFC032F0CBF4FF47A7142F2107111480068543404
:204F4C00B1FBF0F1204604F05DFC204604F056FCD8F80000C00802D2304603F003FC0AB0CB
:204F6C00BDE8F081CCB300003374000061630000FD65000008260020B03F005000A00C404A
:204F8C0068B400006C1200202DE9F0430746880FADF1140D75D302F0D1FB404D00261C3555
:204FAC002E60394845F81C0C012000F088F93748FBF79AF8BC68B14640F60A01344A66801C
:204FCC00537B118090465680107BC2F8049003F0F00300F0F000107343F00103537300E0BB
:204FEC001C46636813B118888142F9D1C4F80480607B00F0F0006073264804F032FB806842
:20500C000088C91F81421DD0491C81421AD03B8CC3B197F82C107E8497F82D00C7F824901B
:20502C0001F0F00100F0F00087F82C1040F0010087F82D0007F12003C8F80430507B00F040
:20504C00F0005073B868694603F0E0FE684604F0AFF9B86801F09FF828680028FCD02E60ED
:20506C00012003F06FFF012808D0607B00F0F00040F0010060730848FBF736F8B86845F815
:20508C001C0C05B0BDE8F08301010E04B5230000AC25002098250020397100000010044057
:2050AC002DE9F04104F044F83F4D3E4EDFF8FC800446A00820D330464168E9B100224260A0
:2050CC008B690A690F6922401A4342F0020205F108038A611A68BA4301F110071A6097E883
:2050EC000C002A680C301B1C9A432A6003F016F94046022104F0ACF87068A10815D200F190
:20510C00100191E80C00002702EA04013B40002B08BF002909D081691440B0600C438461E4
:20512C004FF48041404604F093F87068002837D1304604F096FA071C32D01E48F968006804
:20514C00884228D1B86802F0C7F819490860E8B905F1080138690A68104308602B6807F1EC
:20516C00100494E80300081C1843286000222A61B86845F80C0C05F1100000680028FAD007
:20518C00304603F0EDFF7760BDE8F081086801F027FEBDE8F08140464FF4805104F058F847
:2051AC00BDE8F081982500200C10044048240020E0250020F02500202DE9F0430646ADF177
:2051CC001C0D04F0E3FA03F055FA4FF000090546CDF80C9004F0D0F930F0010002D0039848
:2051EC00A84202D16FF0040066E070684C4658B1B0F1FF3F05D004A903F024FA30B18046B1
:20520C0059E04FF0FF3000E02046049004F0BAFA04994FF00108471802E00A463BE0049331
:20522C006868049904F0AAFA00282DD0684601F0D5FFD8B99DF8040005A902F09FFF88B91C
:20524C00B368BDF814009DF80610029A984748B1BDF814009DF80670B081029BB773C84665
:20526C00336111E0029903A803F066FB0498641CB0F1FF3FD4D00028D2D004F083FA3B1AD4
:20528C0002D004989842CAD2039F03F0BDFE05F1080647B13A4652F80C1C0029BDD1316890
:2052AC0042F80C1C376003F0EBFF24B1686804F061FA641EFAD1404607B0BDE8F0837047BF
:2052CC0034482DE9F0410E4601683348008806AF98461546ADF1200DF8B1304800680142BA
:2052EC001BD02F480068014204D12E4800680088014212D02E4840F232530468009311A256
:20530C000192029603950023049305930693274B1A88254B186807A3A047CDF80080388839
:20532C0032462B460190002001F02CFF08B0BDE8F081C04670726F6A6563745F7A65726FC1
:20534C002E6300C0284342292043686172616374657269737469632076616C756520636829
:20536C00616E67653A20737663283078253034782920706172616D4944282564292E2053AD
:20538C00656E64696E67206D736720746F206170702E00C078B40000A8B400004005000006
:2053AC003C0500004405000094B400008405000090B400002DE9F043814634480E460168F9
:2053CC003048008807AF98461546ADF11C0DF8B12F48006801421BD02E480068014204D15F
:2053EC002D4800680088014212D0274840F23F530468009311A201920296039500230493B5
:20540C0005930693254B1A88254B186807A3A047CDF800803888494632462B46019001208D
:20542C0001F0B0FE07B0BDE8F083C04670726F6A6563745F7A65726F2E6300C028434229AF
:20544C00204368617220636F6E666967206368616E67653A207376632830782530347829E6
:20546C0020706172616D4944282564292E2053656E64696E67206D736720746F20617070A7
:20548C002E00C046A8B4000090B4000078B40000400500003C0500004405000084050000A8
:2054AC0094B400002DE9F04704466778A6780D4610220021ADF1200D684601F057F967B18C
:2054CC0039460020C21C954207DD0219D278491E00F80D2000F10100F4D14FF0000804A8ED
:2054EC00102207F80D80414601F040F966B1304604AAF91C8D4207DD3919C978401E07F145
:20550C00010702F8011BF4D11D4C0DEB06004546474694F802A080F8108004F17106B14684
:20552C00203E3046694603F06FFE40B905EB090004A903F069FE10B9BA4684F802A07F1C01
:20554C0010351036022FECDBBAF1FF0F11D00F21A17701206070E077E068010E84F820108F
:20556C00070C84F82170060A84F8226084F8230003E00E20A0770127E77708B0BDE8F087D0
:20558C00700F0020042998B54CD1274804F069F8264C48B9264800F11F010978490838BF4A
:2055AC00206803D3406800E0C06820604168214A09781160416812680978914206D087690E
:2055CC0027B124A20CCA6FF0FF01B847022003F0C9F8112000F016F901222168164B087C56
:2055EC001A7018B115480078012803D00E2000F009F92168496812488F680FB9CF681FB101
:20560C000021C1610F4F07600F4A40F2FF711160002787610D4941610D48FAF765FD192022
:20562C0004F0A4F898BDC04698250020F0250020F4240020D021084002260020052600205D
:20564C0000100440510007060000046002000040954F000000000000000000022DE9F843AF
:20566C00044604F0D7F881462D48021992F8ED10491ECFB2002F82F8ED704BD12B4D05EBC1
:20568C0084052E78698836F07F0788461AD1F10911D24FF08054D4F8B8018069014640464E
:2056AC00884704F5DC742068406B0146404688470228F8D121E000EB8800D0F80011002097
:2056CC0088471AE04FF08054D4F8B801006A014640468847D4F8B801806A0146404688474C
:2056EC00D4F8B801006B01464046884701210D4A0D48116001688908FCD306F03F003F286E
:20570C0001D0FFF7ABFF687800F03F003F2801D0FFF7A4FF484604F079F8BDE8F883C04613
:20572C006C1200202820086028200840D4B000002DE9F04106460421701CADF1180D03F001
:20574C0003FB2F4CE568771C281AB0F1FF3F4FD106F10A00042103F0F7FA8046022106F1B9
:20576C000E0003F0F1FA86B200211122684600F0FDFF68463946112200F028FC94F87A0190
:20578C000A28A8BF042034DA04F194030A21002003F1E60212F8017F27B1491E00F10100C4
:2057AC00F8D113E00121117003EB40073E8543F8208094F87A11112200EB0017F8183C30E3
:2057CC00491C84F87A11694600F000FC6D1CE5600F20A0770827E7772E0E84F820602B0CA6
:2057EC0084F821302A0A84F8222084F8235003E003200E21A177E07706B0BDE8F081C04679
:20580C00700F00202DE9F041064604F003F82D4D8046A91991F8ED00421C002881F8ED20D7
:20582C004AD1294C04EB8604277807F03F003F2801D0FFF7E7FF607800F03F003F2801D02B
:20584C00FFF7E0FF668837F07F001AD1F80911D24FF08054D4F8B801406901463046884737
:20586C0004F5DC742068406B0146304688470128F8D121E005EB8605D5F8001101208847D8
:20588C001AE04FF08054D4F8B801C069014630468847D4F8B801406A014630468847D4F82E
:2058AC00B801C06A0146304688470121074A0848116001688908FCD3404603F0A7FFBDE8AC
:2058CC00F081C0466C120020D4B0000028200860282008402DE9F0412C482B4908602F48D5
:2058EC001C30FEF713FC2E4C0025032004F1180141F80C5F401E8D60FAD1241F062004F164
:20590C004C010A46401E22F80C5BFBD10820204F0880204A8F602049121D22F00303CF1A22
:20592C006762E3612362E66904F12008944618460A4601E026F8025BB142FBD8B910E827DB
:20594C0000EB810121F8045C4FF6FC761F8006EA0C0300F1E807D21A676106EA0201EC3954
:20596C00A0F8E810284600F081FDA061D8F80000606101F091F802F03FF902F08FFA03F00B
:20598C00F1FE2846BDE8F0812C1900206D7A0000F98D00000B260020483F0020C0070020D7
:2059AC00DC1400202DE9F041DFF8B080044698F800001F4615460E46ADF1380D012804D0AF
:2059CC00FFF730F94046012101704EB166603DB1A56003F01FFF224A117819B103F016FFF3
:2059EC00002038E0491CC9B2117003F00FFF01251FB9684603F07AFC6F4638682060786837
:205A0C00E060387A2074F8686061386900B1A0610021782204F1200000F0A8FE05A800214C
:205A2C002422082303F0D6FE04F138008DF82C50002105AA03F0CAFE05A80021242208232A
:205A4C0003F0A8FE04F1700006490B94002205AB03F0A4FE20460EB0BDE8F081451900202F
:205A6C000A26002003960000F8B503F04FFD03F059FD044604F00C000C2845D0E0081ED291
:205A8C0002F0C8FF234E376805460120014603F02CFA31686943884211D21F4C8220B0FBBB
:205AAC00F7F0291A204603F0ADFE204603F0A6FE0120FDF735FE204603F0F8F925E02009EF
:205ACC0022D21648610939BF016821F00101016841F0010102460160D2F898004FF08054D0
:205AEC0040F00300C2F89800D4F8B8018069014620208847D4F8B801094C806B216880473C
:205B0C0001202060206800E030BF03F005FD01F02FF8F8BD68B40000781200208C21084004
:205B2C002C200940F8B50D46EEB2290824BF27494D40274BB400DFF89CC0195900EA050257
:205B4C000CEA020200F4E02C85EA0107BCF5E02F00EA070721EA0001C7F3006742EA0102B4
:205B6C0001D1510E14D300F4E0210F4310D002F4E027B7F5A02707D0B7F5803704BF22F457
:205B8C00003242F4A02203E022F4803242F4C0221A51114CC10D04D3C5F38052A4F1D001AF
:205BAC008A55000E10D303F035FE290E03D201220021B24002E00122B240114623689343F2
:205BCC001943216003F022FEF8BDC046006000A000100840007F077FD02002402DE9F04138
:205BEC000E462A4990461C4606AF8C4672680878BB8851783F881278002502EB012242F6EF
:205C0C002321521A2AD0521E052A19D9921F0DD0263A35D1072F31D8C7F10700984298BF1A
:205C2C0083B20CEB070000F1080121E0B84225DBC01B9842D8BF83B22380DCF804100BE039
:205C4C00F06803F067FB80B2B84217DBC01B9842D8BF83B22380F168C9190AE0082F0DD808
:205C6C00C7F10800984298BF83B20CEB07010F31238040461A4600F0A9F903E0072501E0A8
:205C8C0025800A252846BDE8F081C046F81000202DE9F04F064609AF92468B46002EADF1A4
:205CAC00140D3888D7F8088002933D7903903FD0BBF1000F3CD0181C3AD0B8F1000F37D0EF
:205CCC001D480178002431E0A0008719305A4FF6FF71814226D0BB7823B302980399C26804
:205CEC00934504D0491E00F11000F8D11AE05FEA000917D0B878410809D30095CDF8048055
:205D0C003888012152464B4600F0DAFAB878800808D30095CDF804803888022152464B462B
:205D2C0000F0CEFA04480178641CE4B2A142CBDC05B0BDE8F08FC046040C00202DE9F04FD6
:205D4C0009AF1C468A46ADF1140D97F8049002903F880392084601F007FC00264FF0FF08CF
:205D6C001F49049038B1401E18BF0A2034D1084600F1040B02E0084600F1020B0190C7B941
:205D8C003D19022D13DA2DB9B9F1180F0FD0B9F1120F0CD0DAF80C0003992246C01900F09D
:205DAC0015F91DB1DDF81080ABF8005002E00D2600E00726B8F1FF0F0DD00198806850B16B
:205DCC00056845B1E419A0B20090049A039B029841F21011A847304605B0BDE8F08FC04607
:205DEC0040160020F8B503F015FD224C0746A06910F4602F25D0A069400CC6B2700807D205
:205E0C00B00803D2F00828BF022602E0012600E00026751D68B201F0B3FAA16906F1110275
:205E2C000120904081433846A16103F0EFFC04EB8600876847B1606810A20CCA2946B84729
:205E4C0002E0384603F0E2FCA06918B10A48002103F0FEF9E07F80080BD367692FB1606899
:205E6C0008A20CCA6FF00101B847E07F00F0FD00E077F8BDF42400207C24002000000000E6
:205E8C000000000800000000000000802DE9F04114460F4603F0BEFC1FFA80F81F4800686B
:205EAC00007808B903F094F8E7B138684FF0FF3518B140280AD3810B08D17E681EB1310A10
:205ECC0004D0310E02D1B9680F2908D93DB10CB1284620700820FFF7C1FB002418E0796816
:205EEC00BA6803E04FF480700122014602F00AFC0B49012008600B4908684008FCD30A48F2
:205F0C0000684168022088470CB1002121700446404603F07BFC2046BDE8F081DCB30000BF
:205F2C00A802504208800240CC010010F0B520480127F84201D001F027FC204D204F214ED3
:205F4C00BD4206D203CD0478A4003459401CA047F6E71D48002800D08047164D164FBD42D6
:205F6C0002D210CDA047FAE7F0BD03251BE0416808300A1C2A400BD11A1C2A40AB4305D01C
:205F8C00046804300C600431043BF9D1131C05D0047801300C700131013BF9D1021C2A40BE
:205FAC0001D0A84304300368002BE0D17047C046FFFFFFFF000000000000000050B90000DC
:205FCC00B0B9000010B9000059C50110002A4AD05FEA000C8B071CD1830722D1102A08D3AA
:205FEC0070B4103A78C978C0103AFBD270BC103238D0042A2CD3082A05D30C2A24BF08C900
:20600C0008C008C908C008C908C092072AD0920F22E00B780370491C401C521E22D08B0799
:20602C00F7D1C30714D18307D8D0121F12D308C903801B0C4380001D121FF8D20AE008C984
:20604C0003701B0A43701B0A83701B0AC370001D121FF4D2121D05D00B780370491C401CAA
:20606C00521EF9D1604670472DE9F8432020EFF3118780F31188214CA068012103F06EFB73
:20608C004FF001094FF0000865692168A4F81C906A1A2168A4F81E80461B401A904227D3F7
:2060AC0087F3118840462D18361A4846294603F051FBB042F7D92021EFF3118781F31188E0
:2060CC00E18B012903D14046294603F043FBB0F1FF3F06D0A169801B814238BF081C2918AB
:2060EC0001E0A069411903F031FBA4F820902560A4F81C8087F31188BDE8F883780100205C
:20610C008B4208BF824204D90B1C021C002100207047002B08BF002A0BD10B1C021C0021A3
:20612C000020002B08BF002A1CBFC943C04301F062BDF0B51C4615460B46024600200021E1
:20614C00B4FA84F6202E04BFB5FA85F62036B3FA83F7202F04BFB2FA82F72037F61BB6F10D
:20616C00200727BF05FA07F400257F42B4403EBF25FA07F73C43B540A34208BFAA4201D338
:20618C00521BA341404149416D0845EAC4756408761EF1D5F0BD7047B0B50446A768ADF134
:2061AC00280D5FBB0C2000F061F9071C1DD0684600212422082303F0EDFA002306976A4674
:2061CC006168ADF810301848059303F0BBFA386070B90820ADF824000C25ADF8265009A8B6
:2061EC0002F018FA384602F091FB6FF0030018E0E06878602069B860A7600AE002F004FF92
:20620C000546386802F052FE2069B860284603F037F83868616803F0F5FA386803F0EEFA4E
:20622C0000200AB0B0BDC046DD9400002DE9F843DFF87C900F4604464FF0FF31484603F0D1
:20624C009DFADFF870801D4800210AE0FF2A07D00368934202D958F822600EB1002421E093
:20626C00491C1FB117F82120FE2AEFD100202060012660600546A0600EE0FF290BD0636817
:20628C0006FA01F048F8214018430B4960601268204602F00FF86D1C27B107EB85021178B5
:2062AC00FE29EAD1484603F065FA2046BDE8F8833025002098230020007FC767D825002070
:2062CC002DE9F04380462248001F046807AF1D4691460E46ADF11C0D4CB106A800904246E0
:2062EC004FF6FF711B230120A047024600E00022059242B300200090BDF818000190FF2490
:20630C0002947C680DF1120329464046A047041C14D16889ADF81000700805D302F046FDD8
:20632C001B210346009102E01D2000903B7840464A4604A901F04EFA041C05D004A81B2100
:20634C0002F08AFE00E01524204607B0BDE8F083B01800202DE9984303F05CFA1F4CDFF805
:20636C007880814604F1E000007850B94446A0680146022088470746102001F029FB2FB3BE
:20638C0020E000F01DFE002820460FD1144909683222B2FBF1F101B9012100F13004204660
:2063AC0003F030FA204603F029FA0FE044460022A16880F8E020022088470746102001F0BD
:2063CC0007FB1FB1A068014603208847484603F01DFABDE89883C046CCB300006C12002023
:2063EC0068B4000070B51E4DAC68064602F07CFE4FF47A71001B4843030C02F061FB296956
:20640C00401A48BF404240F6B831F618B14210D306280EDAE9688C420BD8286848B1114A8E
:20642C00091B51438A0C02EB1141884288BF011C08E00D49486840080ED208687D2100F081
:20644C00FF004143C82905D3B1F57A6F88BF4FF47A6103E0C82101E04FF4FA61084670BD2A
:20646C008425002040420F00AC3F0050F8B5001D84B214F0030002D0241A241DA4B202F0DB
:20648C00C3FD1A49102C02464F690A61C8BF8F69388800231E46C10BCD0319D126B9844235
:2064AC000ADD3B46012617E01988091889B28C42198011DC1F4608469FB1001B80B204287D
:2064CC00B4BF3C88385344F400443C803F1D08E080F40040002680B23F1838880028DAD17C
:2064EC000027104602F0CCFE3846F8BDD81400202DE9F041984616460F46044603F076F996
:20650C000546384602F05AFA42463146071C03D1284603F067F924E0F87F10F0070F19D12E
:20652C0012487B68984202D07B682366786004F1580080E80600284603F054F904F138008C
:20654C004FF0FF3103F01AF904F1680797E80300BDE8F081284603F045F9F87F10F0070F92
:20656C00FBD102200021BDE8F081C04615760000FEB506460C4608AF20783988022831D1CC
:20658C00606847780078002500EB072042F60217C01B1ED04DF2EF66801B07D0401E16D154
:2065AC0099B9142B0FDC11461A4608E069B9142B09DCD9B21046FDF7D3FA14220B49E068FA
:2065CC00FFF704FD0FE00D250DE00B250BE00A2509E00091012021460190304600F0CCFBA0
:2065EC00054600E001252846FEBDC0468E0F00201CB5042002F0A6FC022818D0032816D0A6
:20660C0016480068C0F38150032814BF41F288324FF47A721248144C016854342046B2FB4C
:20662C00F1F103F0EFF8204603F0E8F81CBD03200C4C009000214FF040521C23204601F0ED
:20664C0037F9012000214FF4007209230090204601F02EF9022002F06DF81CBDB43F005038
:20666C0068B4000000A00C406C1200202DE9FF410E4605461A4C7188E08A81420CDCB188C6
:20668C00814209DBF088218B884205D13089618B884208BF18271FD0052001F02DFB7788E2
:2066AC008046F188B388ADF80270A08AADF806100C4AADF800003789ADF8043011216846E4
:2066CC00ADF8087001F0F9FE071C05D1A57304F1F000414601F094FC38460090BDE8FF8178
:2066EC00040C00204B9600002DE9F843884603F091F81B4D6C78814602F0F6FCE60006EB14
:20670C004416761906F1B8073860A888A6F8BC00A888401CA880B8F80E00A6F8BE0008F1E5
:20672C0010004EC808374EC70FC887E80F00AE7800271EB92878A04208BF0127641CE4B2D3
:20674C00202C1CBF6C70002002D100206870044607B12C70A870484603F058F8BDE8F88398
